:100000000C9409030C9426030C9426030C942603E9
:100010000C9426030C9426030C9426030C942603BC
:100020000C9426030C9426030C948E1C0C944A1CEE
:100030000C948B1D0C9426030C9426030C9426031D
:100040000C9426030C9426030C9426030C9426038C
:100050000C9426030C94671D0C9426030C94260321
:100060000C9426030C9426030C9426030C9426036C
:100070000C9426030C9426030C9426030C9426035C
:100080000C9426030C9426030C9426030C9426034C
:100090000C9426030C9426030C9426030C9426033C
:1000A0000C9426030C9426030C9426030501098066
:1000B000A101850319012AB700150126B700950192
:1000C00075108100C0050C0901A101850419012AE0
:1000D000A002150126A002950175108100C00660DE
:1000E000FF0961A1010962150026FF00952075082E
:1000F00081020963150026FF00952075089102C052
:1001000005010906A101050719E029E715002501E8
:10011000950875018102950175088101050719008F
:1001200029FF150026FF00950675088100050819AE
:10013000012905950575019102950175039101C08D
:10014000783C1E1E140A05FD377A585A000004E652
:10015000D6B4460200210116000000742FE5A3E08A
:1001600000EC009A5D003D8889C65436C3174FE401
:10017000E20F5525C005AEC83220396380EDF8E3A3
:10018000B98EEF318335C6B7D474ABCEE3D75A03FB
:100190001A667732D2C4468C0FC5F1E20704E05BE1
:1001A000AF9C2BB0FD748211D4E1FE9D7D07D40677
:1001B0003EA9DABA888D0A8EED0F7D676EEA8C361D
:1001C000742533E3923BAD6EDB44DFE9D90E2D6736
:1001D00063F32D19D8A19F32D22592437B3395CD5D
:1001E000C3A462248FD8985BF8A2667769FDAC43FC
:1001F000FF6587DC7C46FF783910B69988BE366289
:10020000000000AD85955DF952C1100001B601ED09
:10021000010000D7FE7117B1C467FB0200000000A7
:1002200004595A0001010101010101010102020208
:100230000202020202020303030303030303040492
:10024000040404040405050505050606060606075C
:100250000707070708080808090909090A0A0A0B15
:100260000B0B0C0C0C0D0D0D0E0E0E0F0F0F1010B6
:10027000111111121213131414151516161717183D
:100280001819191A1A1B1B1C1D1D1E1E1F202021A8
:100290002222232424252626272829292A2B2C2DEF
:1002A0002D2E2F30313232333435363738393A3B10
:1002B0003C3D3E3F404142434445464748494A4C05
:1002C0004D4E4F50515354555658595A5B5D5E5FD1
:1002D000616264656668696B6C6D6F707273757767
:1002E000787A7B7D7E8082838587888A8C8E8F91C9
:1002F000939596989A9C9EA0A2A3A5A7A9ABADAFF3
:10030000B1B3B5B7BABCBEC0C2C4C6C9CBCDCFD1DC
:10031000D4D6D8DBDDDFE2E4E7E9EBEEF0F3F5F885
:10032000FAFDFF2223252628292A2C2D2F303233AF
:100330003536383A3B3D3E4042434547494A4C4EAC
:100340005051535557595A5C5E6062646668696BD8
:100350006D6F71737577797B7D7F81838587898ADE
:100360008C8E90929496989A9C9E9FA1A3A5A7A8E4
:10037000AAACAEAFB1B3B4B6B8B9BBBCBEBFC1C214
:10038000C3C5C6C7C9CACBCCCDCED0D1D2D2D3D4A7
:10039000D5D6D7D7D8D9D9DADADBDBDBDCDCDCDCC5
:1003A000DCDDDDDDDDDCDCDCDCDCDBDBDBDADAD993
:1003B000D9D8D7D7D6D5D4D3D2D2D1D0CECDCCCB15
:1003C000CAC9C7C6C5C3C2C1BFBEBCBBB9B8B6B433
:1003D000B3B1AFAEACAAA8A7A5A3A19F9E9C9A98C3
:1003E000969492908E8C8A89878583817F7D7B7994
:1003F000777573716F6D6B6968666462605E5C5A75
:100400005957555351504E4C4A4947454342403E37
:100410003D3B3A3836353332302F2D2C2A292826C9
:10042000252322A900AA00A900AA00A900AA00A9C0
:1004300000AA000000AE0000000150AF00C25CAC9A
:1004400000AD00AB000000010000000050C55CC71B
:100450005CC35CC65CC85C000001000000010001D8
:100460000001000100010001000000010000000186
:10047000000100010001000100010009025B00030E
:100480000100A0FA09040000010301010009211183
:100490000100012240000705810308000109040151
:1004A00000020300000009211101000122220007BF
:1004B000058203200001070503032000010904024F
:1004C0000001030000000921110100012232000790
:1004D0000584032000011201000200000008EDFE67
:1004E000B0231001010203011C03760069006100C2
:1004F0006C003A006600360034006300320062008F
:1005000033006300000028034C006900740074008D
:100510006C00650020004200690067002000530065
:10052000630072006F006C006C0020003600000059
:100530002C03540077006500650074007900730097
:100540002000570069006C0064002000540068001F
:1005500069006E006B0069006E0067000000040314
:10056000090400000000000000000000000000007E
:10057000000000000000000000000000000000007B
:100580000000000000007E0F00D4FFFFFFC7000046
:10059000007800000000000000002A2B2800000066
:1005A0000000000000000000000000000029000022
:1005B00000002C1E3420212224342627252E362DFF
:1005C0003738271E1F202122232425263333362E99
:1005D00037381F0405060708090A0B0C0D0E0F100B
:1005E0001112131415161718191A1B1C1D2F313050
:1005F000232D350405060708090A0B0C0D0E0F10F4
:100600001112131415161718191A1B1C1D2F31302F
:10061000354C11241FBECFEFDAE0DEBFCDBF11E0B5
:10062000A0E0B1E0E0E4FCE402C005900D92AA373E
:10063000B107D9F723E0AAE7B1E001C01D92A834C1
:10064000B207E1F70E94B21D0C94FA250C94000049
:10065000E8EDF0E080818E7F80831092E2001092BE
:10066000DA001092E100A0EEB0E08C9181608C93F2
:1006700080818F77808319BCA7EDB0E08C918E7F4D
:100680008C9380818F7E808310922F030895209118
:10069000E4003091E50095E6A9012091EC00822F5D
:1006A000817020FF06C08091E80080FF06C080E0D6
:1006B00008952091E80022FD1AC080914603882306
:1006C00089F0853089F08091EB0085FD0FC0209185
:1006D000E4003091E50042175307F9F29150E1F63A
:1006E00084E0089582E0089583E0089581E008950C
:1006F000EF92FF920F931F93CF937C018B010E9487
:100700004703C82F811117C08091E80085FD0BC0F9
:100710008091E8008E778093E8000E944703882349
:1007200099F3C82F08C0F70181917F018093F100F0
:100730000150110949F78C2FCF911F910F91FF9014
:10074000EF900895CF93FC0180914603843001F52A
:10075000C091E900CF702091EC00922F917020FDA4
:1007600090E8C92B82E08093E9008091E80080FF47
:100770000CC050E040E060E270E0CF010E947803DE
:100780008091E8008E778093E800CF70C093E900F5
:10079000CF91089580913E0387FF13C08091E800B8
:1007A00082FF06C08091E8008B778093E80004C048
:1007B000809146038111F2CF0895809146038823EA
:1007C000D9F38091E80080FFF8CF8091E8008E7720
:1007D000ECCF982F9093E900242F762F50E08917C3
:1007E00031F07091EC002091ED005091F00021FD6E
:1007F00007C09F5F973071F78093E90081E008950B
:100800003091EB003E7F3093EB003091ED003D7F67
:100810003093ED003091EB0031603093EB0070933A
:10082000EC002093ED005093F0002091EE0027FDA6
:10083000E0CF80E00895B0E0A0E0E1E2F4E00C94C5
:100840004325C8EDD0E088818F7E8883E7EDF0E016
:1008500080818160808384E082BF81E080932F0368
:1008600088818E7F888302EE10E0F801108210925A
:10087000DA0081EEC82ED12CF601108288818F77A4
:10088000888388818068888388818F7D888319BC6C
:100890001092460310923D0310923C0310923B03CA
:1008A00090EEE92EF12CF70180818B7F8083888187
:1008B0008160888342E060E080E00E94E903F60105
:1008C00080818E7F8083F801808181608083808138
:1008D00088608083F70180818E7F8083888180613A
:1008E0008883CDB7DEB7E8E00C945F25FC018091EA
:1008F00044039091450386179707A0F06115710591
:1009000029F49091E8009E779093E80090E06115BB
:10091000710551F4911108C08091E80082FF34C044
:1009200080E00895BC01F2CF809146038823C1F195
:100930008530C1F18091E80083FD30C08091E800EE
:1009400082FDEACF8091E80080FFE1CF8091F30043
:100950002091F200382F6115710519F0283031050A
:1009600058F091E02830310509F090E02091E8003E
:100970002E772093E800CBCF81918093F1006150D6
:1009800071092F5F3F4FE7CF80914603882341F0E5
:10099000853041F08091E80083FFBECF81E008956B
:1009A00082E0089583E00895089508950895809160
:1009B0003203089587E797E7909301088093000832
:1009C00088E19AE00FB6F894A895809360000FBE76
:1009D00090936000FFCF9C014FB7F894809128035B
:1009E00090912903A0912A03B0912B034FBF821B42
:1009F000930B08952FB7F894609128037091290301
:100A000080912A0390912B032FBF08952FB7F8945C
:100A10008091280390912903A0912A03B0912B0380
:100A20002FBF0895209125033091260328173907F9
:100A300071F09093260380932503E0912303F091B6
:100A40002403309721F00084F185E02D0995089565
:100A500020912103309122032817390771F09093D8
:100A6000220380932103E0912303F0912403309724
:100A700021F00680F781E02D09950895E091230388
:100A8000F0912403309729F00190F081E02D099531
:100A9000089580E00895DC0160911D0380911E039C
:100AA000962F891301C00895292F30E0F901EE0F28
:100AB000FF1FEB5EFC4F408151814A175B07A1F499
:100AC00087E08A9FA0018B9F500D112443525D4FF8
:100AD00081E0FA0184839613E6CF2F5F3F4F2370A6
:100AE000332720931D0308952F5F3F4F922F93705C
:100AF000D8CF1092790210927802EDEDF2E0858164
:100B0000811102C014821682379683E0E531F8071E
:100B1000B1F70895FA01811101C0FB01099508950B
:100B200080911D02982F9E7F29F4817082608093AE
:100B30001D0208958231E8F381708061F8CFAF9291
:100B4000BF92DF92EF92FF920F931F93CF93DF93A9
:100B5000082F162FE901E42FF0E0ED5DFD4F611144
:100B600010C0E4915E2F4E2F4983E8835A83DF91B2
:100B7000CF911F910F91FF90EF90DF90BF90AF90BA
:100B80000895E62EF12C4491D42EE42FF0E026E0D7
:100B9000829FC00111242FEF30E0B9010E9404258B
:100BA000802F90E0880F991F55E5569FD001579FE1
:100BB000B00D11248A1B9B0B982F990F890F590197
:100BC000AE18BF08AE9ED001AF9EB00DBE9EB00D58
:100BD00011245B2F189F80011124012F1127590127
:100BE000A01AB10AAE9E8001AF9E100DBE9E100DE0
:100BF00011245901A81AB108AE9CC001AF9C900DF8
:100C0000BE9C900D1124892F9927281B390B2E9FEC
:100C1000C0012F9F900D3E9F900D1124E92F62304F
:100C20007105A1F050F46115710509F49DCF613093
:100C3000710581F0EB2F512F97CF6430710569F06A
:100C400080F06630710509F48FCFF4CFE42F4B2F7D
:100C5000592F8ACFE42F412F87CFEB2F542F492FC5
:100C600083CF4B2F5D2DE12F7FCF80E008959091B2
:100C7000E60192FF06C0282F28712830F9F4877FFB
:100C8000846093FF06C0282F28712831F1F4877EF5
:100C900084612091E70120FF06C0382F3871383079
:100CA000D9F4877F816021FF06C0282F2871283161
:100CB000D1F4877E816194FD877E0895282F247169
:100CC0002430F9F68B7F8860DCCF282F2471243103
:100CD00001F78B7E8861DDCF382F3171313019F704
:100CE0008E7F8860E0CF282F2171213121F78E7E01
:100CF0008861E1CFCF93DF93EC018238910581F1D8
:100D0000D8F58133910509F498C020F58932910511
:100D100009F488C08A9709F497C0C11521E5D20764
:100D200008F0B1C0C11530E5D30708F0F9C0CF3BDA
:100D3000D10508F090C0C83AD10508F0E6C0C53A20
:100D4000D10508F0DAC0C430D10520F5C130D10595
:100D500009F145C08533910509F45FC0C997E9F6EB
:100D60008091E601837009F029C18091E70183FF3A
:100D700011C0C9E2D0E00EC0833E910599F170F434
:100D8000803E910501F1823E910539F68091E601A0
:100D900082FD21C0CE01DF91CF910895863E91055D
:100DA00061F1873E910571F1843E910509F0B5CF5F
:100DB0008091E70181FFEECF8091E601C7EED0E0A0
:100DC00084FD0DC0E7CF8091E60180FD33C0909196
:100DD000E70190FFDFCFC3EED0E084FFDBCFD0E0B0
:100DE000C0E0D8CF8091E60182FDE5C09091E70197
:100DF00090FDE4C084FFCECFF2CF8091E60183FD69
:100E0000DDCFC8CF8091E60183FDDBC09091E70183
:100E100091FFF0CFC4EED0E0BDCF8091E60185FF19
:100E2000B9CFA7CF8091E60185FDCEC08091E701C3
:100E300083FFB0CFC9E3D0E0ADCF8091E60186FF5C
:100E4000A9CFCAE2D0E0A6CF8091E60186FFA2CF6B
:100E5000C1E3D0E09FCFC11540E2D40760F4C115D3
:100E600081E0D80708F096CFCE01805E91090897FF
:100E700008F490CFB4CFC11520E4D20708F4AFCF67
:100E8000DF70D06A87CFC11534E5D30778F4C11578
:100E900043E5D40708F06DC0C11582E5D80708F016
:100EA00054C0DC2FCC27C16FD06A74CFC1152AE59E
:100EB000D20778F4C11539E5D30708F06EC0C11523
:100EC00048E5D40708F48BCFDC2FCC27C06FD06A5D
:100ED00061CFCE0190568115904208F080CF8D2FC2
:100EE0008F710E94370690E0982F882788279F717E
:100EF0009C012C2BE901D0624DCFC55AD0E0C95ED0
:100F0000DE4FC881D0E0D06445CFC85AD0E0CC0FC6
:100F1000DD1FC65EDE4F0990D881C02DD4643ACF64
:100F20002C2F26952695237040E2249F90011124B2
:100F30008C2F8370C1E0D0E002C0CC0FDD1F8A95FA
:100F4000E2F7C22BD32BDD6825CFCE018370992722
:100F500021E030E002C0220F331F8A95E2F7C695E8
:100F6000C69580E2C89FE0011124C22BD32BDC6818
:100F700011CFCE018370992721E030E002C0220F0B
:100F8000331F8A95E2F7C695C69540E2C49FE001FB
:100F90001124C22BD32BDA68FDCE8C2F8F700E94C8
:100FA000370634E0D695C7953A95E1F7CF709C2F78
:100FB000EC01D069EFCEC2EED0E0ECCEC0EED0E0D6
:100FC000E9CEC6EED0E0E6CEC5E3D0E0E3CE809138
:100FD000D60190919501981301C008958F5F877095
:100FE000FACFA82FA77023E0969587952A95E1F769
:100FF000FC01EE0FFF1FE80FF91FE60FF71F50E08F
:1010000040E080E0219130E00A2E02C0369527951D
:101010000A94E2F721703327042E01C0220F0A94AC
:10102000EAF7822B4F5F5F4F4330510559F7089520
:10103000903FC9F0933080F48330A8F4282F30E03B
:1010400067E871E0A901E3E09E9F400D511D112466
:10105000CA010E94F10708959C5F923020F464E871
:1010600071E090E0F6CF80E00895262F277091E0A0
:1010700001C0990F2A95EAF723E0769567952A959E
:10108000E1F7FB01EE0FFF1FE60FF71FE40FF51F5F
:1010900050E040E0682F70E08191DF0111979B01E3
:1010A000042E02C0369527950A94E2F72170219507
:1010B0002827292328272C934F5F5F4F4330510562
:1010C00059F70895282F862F903F79F0933070F4C8
:1010D000233058F4622F70E023E0929F600D711D61
:1010E000112447E851E00E94350808959C5F923032
:1010F000E0F7622F70E044E851E0F5CF9C013A95AB
:1011000021153F4150F5FC01EE27F170BC01662727
:101110007270AC01442754709C012227387094FFF0
:101120000EC080E1EF2B09F480E0672B09F08062AC
:10113000452B09F08064232B89F08068089581E0B5
:10114000EF2B09F480E0672B09F08260452B09F052
:101150008460232B19F08860089580E008958093BF
:101160002C0370932E0360932D03809146038430EB
:10117000F9F48093E9008FEF9091E800815095FD9C
:1011800006C095ED9A95F1F700008111F5CF809199
:10119000E80085FF0DC050E040E063E070E08CE2C5
:1011A00093E00E9478038091E8008E778093E800B6
:1011B0000895BC0184E00E94AF080895BC0183E05B
:1011C0000E94AF080895CF93DF93EC0181E08093F4
:1011D000E9008FEF9091E800815095FD06C095EDF4
:1011E0009A95F1F700008111F5CF8091E80085FF15
:1011F00014C050E040E068E070E0CE010E94780347
:101200008091E8008E778093E80088E0FE01A3E3F8
:10121000B3E001900D928A95E1F7DF91CF910895A7
:1012200080911D0280FD0AC0EDEFF1E01182108275
:101230001282339652E0E531F507C1F7529A3BB17D
:101240003B7F2BB124604FB7F8948DEF91E0FC0108
:101250005191CF0168E02BB9000000C057FF3BB9A6
:10126000550F000000C000C000C03BB900C06A9527
:1012700091F7F2E085319F0751F74FBF8FE594E07A
:101280000197F1F700C00000089590911D0290FFB2
:101290000CC0EDEFF1E0818360834283339692E0EE
:1012A000E531F907C1F70E9410090895A3E0B0E005
:1012B000ECE5F9E00C94492590911D0290FF0AC0DD
:1012C0009E012F5F3F4F0E949F054B8169818A815C
:1012D0000E9445092396E2E00C946525CF93DF93A5
:1012E000EC01EDE1F2E0438162818C810E945609BC
:1012F0008C818F5F8C83DF91CF910895CF93DF93A3
:10130000EC01EC81F0E0ED5DFC4F4491EDE1F2E0A9
:10131000628181810E9456098C818F5F8C83DF916D
:10132000CF910895CF93DF93CFECD0E060E0CE0172
:101330000E94BE252196C11584E0D807B9F7DF9138
:10134000CF9108950F931F93CF93DF93142F022F04
:101350008430F0F461111CC094E0899FE0011124F5
:10136000C159DF4F82E090E0442311F090E080E02B
:10137000632F8C0F9D1F0E94BE2583E090E01123F8
:1013800011F081E090E0602F8C0F9D1F0E94BE2520
:10139000DF91CF911F910F9108951F93CF93DF930A
:1013A000122F8430E0F46330D0F44330C0F4C42F03
:1013B000D0E0CC0FDD1F96E0699FC00DD11D112438
:1013C00092E1899FC00DD11D1124632FCE01879614
:1013D0000E94BE25612FCE0188960E94BE25DF9116
:1013E000CF911F910895CF93C82F6FEF811166E8B9
:1013F00083E290E00E94BE256FEFC1116FE884E2A6
:1014000090E00E94BE256FEFC11162E185E290E09D
:101410000E94BE25CF910895AAE0B0E0E2E1FAE093
:101420000C943A25609072027090730281E090E013
:10143000909373028093720283E2C82E84E0D82EC8
:1014400095E2A92E94E0B92E23E3E22E24E0F22EB9
:10145000512C8701412C14C0F40125913491432D66
:10146000642D852D0E94CD0982E0880E911C339455
:1014700093E03912F1CF0A5F1F4F4394491619F0D8
:101480004801312CE9CFF6012591349141E060E02B
:10149000852D0E94A209F5012591349140E060E07C
:1014A000852D0E94A209E4E0CE0ED11C5394F4E0F5
:1014B000AF0EB11C82E1E80EF11C94E05912C9CFC5
:1014C000FE0131967F018AE011928A95E9F70FE7D4
:1014D00010E04AE050E0B801C7010E94E225065F33
:1014E0001F4F0F3C1105A9F77092730260927202B0
:1014F0002A96E1E10C94562580E00E94F30960E011
:1015000086E290E00E94BE250E940C0A0E94920989
:1015100081E00E94F3090895FF920F931F93CF93E8
:10152000DF93F42E843040F5611126C024E0829FC1
:101530008001112401591F4F82E090E0442311F0F3
:1015400090E080E0800F911F0E94AA25C82FD0E074
:10155000DC2FCC2783E090E0FF2011F081E090E0C9
:10156000800F911F0E94AA259E01282BC901CDB78B
:10157000DEB7E5E00C94622590E080E0F8CF0F93B1
:101580001F93CF93DF93843030F5633020F54330E1
:1015900010F5C42FD0E0CC0FDD1F26E0629FC00DF8
:1015A000D11D112432E1839FC00DD11D1124CE0124
:1015B00087960E94AA25082F10E0102F0027CE0141
:1015C00088960E94AA259801282BC901DF91CF9106
:1015D0001F910F91089590E080E0F8CF462F672F7C
:1015E0002091760230917702232BF9F4703F39F481
:1015F000403FD9F48091740290917502089584302F
:10160000A0F4733028F4433080F40E94BF0A089598
:101610007D3F39F4411109C041E060E00E948C0A2D
:1016200008957C3F11F44423C1F390E080E00895D5
:10163000CF92DF92FF920F931F93CF93DF936C01B2
:10164000009147038091DF01082BC7E0D0E010E054
:10165000FC2EC8010C2E02C0959587950A94E2F7DE
:1016600080FD0CC02197A0F7F12C8F2DDF91CF9139
:101670001F910F91FF90DF90CF900895B6018C2FAE
:101680000E94EE0A0E947A06019761F3EECFCF9393
:10169000DF93EC010E94180BBE010E94EE0A0E942B
:1016A0007A06DF91CF910895FC0183819481892B83
:1016B00029F08081918189238F3FF1F480E00895A2
:1016C0000E947A0692959F70963089F058F4925F46
:1016D0009F70923098F7803F19F030F4883E70F791
:1016E00081E008959A5FF4CF843F41F7F9CF883EB7
:1016F000B8F3813F19F7F4CF86819781009701F7FE
:10170000808191810E94470BDDCFA5E0B0E0EBE83E
:10171000FBE00C9448259C01FC0186819781009791
:10172000E1F485E0DE01119601900D928A95E1F7D2
:10173000F901228189819A81222399F0662389F017
:101740000E94180B182F682F89819A810E946208C5
:1017500069817A81812F0E94EE0A2596E3E00C943C
:1017600064250E941808182FF3CF83E290E00E94AE
:10177000AA25863889F484E290E00E94AA258F3851
:1017800059F485E290E00E94AA2591E0823109F0A7
:1017900090E0892F8170089580E0FCCFAAE0B0E04E
:1017A000E4EDFBE00C944325E2E2F2E080E5DF01AA
:1017B0001D928A95E9F7EDEDF2E088E3DF011D92D5
:1017C0008A95E9F782E2C82E82E0D82E7F010FE7E2
:1017D00010E0F701D182C0824AE050E0B801CE01AA
:1017E00001960E949A2588E0FE013196D60101906B
:1017F0000D928A95E1F789859A85D70113969C9376
:101800008E931297BAE0CB0ED11CE7E0EE0EF11CDE
:10181000065F1F4F0F3C1105E1F62A96E8E00C9495
:101820005F2560911D02669570E041E050E08CE01C
:1018300091E00E947925892B19F481E080931C02A4
:101840000E94060590931602809315020895CF9288
:10185000DF92EF92FF926B017C010E949005B7012D
:10186000A60188E090E00E94D025FF90EF90DF90E5
:10187000CF900895A3E0B0E0E0E4FCE00C944525AF
:10188000082FF62E142FE22E80911D0280FF28C013
:10189000E82FE695F0E0EF59FE4F908190931B0200
:1018A0008E7F823009F59E012F5F3F4F802F0E946F
:1018B0009F054B8169818A810E94450900931E0220
:1018C000F0921F0210932002EE2051F060911D0251
:1018D00070911E0280911F02909120020E94270C9D
:1018E0002396E6E00C946125923019F410912002C1
:1018F000E5CF963019F700911E02E0CFEDE1F2E05E
:10190000438121E1421B08F440E021E062818181B2
:101910000E943A0C0895EDE1F2E0438121E1420F8B
:1019200008F44FEF21E0628181810E943A0C089512
:10193000EDE1F2E0628121E1621B08F460E021E068
:10194000438181810E943A0C0895EDE1F2E06281C9
:1019500021E1620F08F46FEF21E0438181810E9451
:101960003A0C0895EDE1F2E0818121E0438162814A
:1019700088500E943A0C0895EDE1F2E0818121E067
:1019800043816281885F0E943A0C08958091210210
:10199000882319F081508093210260911D0270917B
:1019A0001E0280911F02909120020E94270C089530
:1019B00080912102833018F48F5F8093210260911F
:1019C0001D0270911E0280911F02909120020E94C0
:1019D000270C089590911D0290FF2CC091708111E9
:1019E0002AC0926090931D02662351F060911D02FF
:1019F00070911E0280911F02909120020E94270C7C
:101A000060911D02669570E041E050E08CE091E04D
:101A10000E947925892BB1F010921C0281E08093FD
:101A2000180220E04091200260911F0280911E0266
:101A30000E943A0C0895893010F09061D3CF880F3E
:101A4000982BD0CF0E94110CE9CF80911D02869572
:101A5000815009F488E061E00E94EA0C08958091C9
:101A60001D0286958F5F893008F081E061E00E9459
:101A7000EA0C089590911D0290FF08C09695981762
:101A800028F0961718F40E942F0D089561E00E9427
:101A9000EA0C0895EDE1F2E083E0808311828FEF9C
:101AA00082838383148260817181828193810E9409
:101AB000270C089568EE7EEF90E080E00E94DC2520
:101AC00060E082E090E00E94BE2560E083E090E06C
:101AD0000E94BE251092DF0160E084E090E00E9449
:101AE000BE2564E082E290E00E94BE2560E085E0D1
:101AF00090E00E94BE2560E086E090E00E94BE2556
:101B00006FEF87E090E00E94BE2540E050E0BA0110
:101B100088E090E00E94D02560E08DE090E00E9497
:101B2000BE2540E050E0BA0188E190E00E94D02557
:101B300060E087E190E00E94BE2540E050E0BA01FD
:101B40008CE190E00E94D02570E060E080E290E0BF
:101B50000E94DC2540E050E0BA0188E190E00E945C
:101B6000D02580E00E94F3090E947C0A40E050E00A
:101B7000BA018FE090E00E94D02540E050E0BA0129
:101B800083E190E00E94D0250895809130039091E8
:101B90007A02892B80937C0148E050E067ED71E088
:101BA0008CE791E00E948625892BA9F088E0ECE77C
:101BB000F1E0A7EDB1E001900D928A95E1F7E09197
:101BC0002303F0912403309731F00280F381E02D5C
:101BD0008CE791E00995089590E080E00E94280547
:101BE00090E080E00E94120510927A020E94C50DDA
:101BF0000895809347030E94EC0D08958091470358
:101C0000982F9670963021F488600E94F90D0895FF
:101C1000877FFBCF21E030E001C0220F8A95EAF7F1
:101C200020958091470382230E94F90D089521E0B9
:101C300030E001C0220F8A95EAF780914703822B9A
:101C40000E94F90D08958093DF010E94EC0D089524
:101C5000EEE7F1E086E0DF011D928A95E9F70E9448
:101C6000EC0D0895AAE2B0E0E8E3FEE00C9448250C
:101C70008EE393E02091F100DC012D93CD01B3E0E0
:101C800086349B07B9F780913F03833009F472C013
:101C9000B8F4813009F449C0823009F4B5C08091AC
:101CA000E80083FF98C280913E0390913F039A30F1
:101CB00008F091C2E92FF0E0E450FA4D0C942C2585
:101CC0008A3009F490C08B3009F471C0893039F73B
:101CD00080913E03813219F7809142039091430332
:101CE000009711F00297D9F68091E800877F8093E2
:101CF000E8008091E80082FF38C09091F300809165
:101D0000F200029731F48091F100813011F08630B9
:101D100021F48091F100809332038091E8008B7769
:101D20008093E8000E94CA03BACF80913E03813AB3
:101D300009F0B5CF8091E800877F8093E80080911B
:101D4000420390914303892B61F468E083E393E0BD
:101D500070E00E9476048091E8008B778093E80021
:101D60009ECF60E090E080E0F3CF80914603811148
:101D7000C0CF95CF80913E03813A09F090CF8091FA
:101D8000420390914303892B09F089CF8091E800A9
:101D9000877F8093E8008091E80080FFFCCF8091EE
:101DA0000E018093F1008091E8008E77B9CF809189
:101DB0003E03813209F073CF809142039091430337
:101DC000892B09F06CCF8091E800877F8093E80031
:101DD0000E94CA038091400380930E011092300349
:101DE0000E94280E5CCF80913E03813209F057CFCC
:101DF0008091E800877F8093E8000E94CA03809169
:101E00004103809331034BCF80913E03813A09F027
:101E100046CF8091E800877F8093E8008091E800BA
:101E200080FFFCCF80913103BCCF803899F082389D
:101E300009F0D1C1809142038F70873008F0CBC187
:101E40008093E9008091EB0085FB882780F9109250
:101E5000E90006C080913B0390913C0391118260A0
:101E60009091E800977F9093E8008093F1001092A2
:101E7000F1008091E8008E77AAC1882309F498C107
:101E8000823009F0A8C18091400381119BC18091EB
:101E900042038F702FEF280F263008F09CC18093EB
:101EA000E9002091EB0020FF8DC1933031F4809147
:101EB000EB0080628093EB0085C19091EB00906114
:101EC0009093EB0021E030E001C0220F8A95EAF701
:101ED0002093EA001092EA008091EB008860EACF3C
:101EE000811179C1109140031F778091E3008078C0
:101EF000812B8093E3008091E800877F8093E80046
:101F00000E94CA038091E80080FFFCCF8091E3002B
:101F100080688093E30082E0111183E080934603A0
:101F20005AC18058823008F056C120914003309148
:101F300041032C3DE3E03E07A1F583E08A838AE27A
:101F400089834FB7F894DE01139620E03EE051E21A
:101F5000E32FF0E050935700E49120FF03C0E29597
:101F6000EF703F5FEF708E2F90E0EA30C0F0C796C1
:101F70008D939D932F5F243159F74FBF8091E800D7
:101F8000877F8093E8006AE270E0CE0101960E94AC
:101F900076048091E8008B778093E8001CC1C0969E
:101FA000E7CF8091420390914303432F552743305D
:101FB000510509F44AC078F54130510509F485C04E
:101FC0008BE590E0EBE7F4E04230510509F003C106
:101FD0002091E800277F2093E8002091440330916E
:101FE00045038217930708F49C0140E02115310551
:101FF00009F070C041116EC08091E80082FDC9CF28
:1020000080914603882329F2853019F28091E800F7
:1020100083FFF2CFBECF4132510509F447C04232AF
:10202000510509F0D8C08330910508F0D4C0FC01F7
:10203000EE0FFF1FE359FE4F0190F081E02D86590E
:102040009E4FDC018C9190E01DC03327213031057B
:10205000E9F02115310579F022303105F9F023300E
:10206000310509F0B8C0E8EEF4E0E4918E2F90E07D
:10207000E8EEF4E007C0EEE5F5E0E4918E2F90E0A5
:10208000EEE5F5E0009709F4A6C0A2CFE0E3F5E0A5
:10209000E4918E2F90E0E0E3F5E0F4CFE6E0F5E0A8
:1020A000E4918E2F90E0E6E0F5E0ECCF83309105EF
:1020B00008F091C0880F991FFC01ED58FE4F019068
:1020C000F081E02D89E090E083CF82E190E0E6EDC1
:1020D000F4E07ECF80914603882309F45ACF8530FF
:1020E00009F457CF8091E80083FD53CF8091E80039
:1020F00082FD82CF8091E80080FF78CF9091F3003D
:102100008091F2002115310519F08830910550F0C9
:1021100041E0089709F040E08091E8008E778093D5
:10212000E80064CF44914093F10031962150310989
:102130000196E8CF803809F04EC08091E800877F93
:102140008093E80080913D038093F10092CE81114D
:1021500042C0109140031230F0F58091E800877F73
:102160008093E80010933D030E94CA03112311F0ED
:1021700084E005C08091E30087FDFACF81E0809381
:10218000460342E061EC81E00E94E90342E261EC37
:1021900084E00E94E90342E261EC82E00E94E903EC
:1021A00042E260EC83E00E94E9038091460313C0A1
:1021B00080914003813079F481E0933009F080E030
:1021C00080933C031092E9008091E800877F809320
:1021D000E8000E94CA038091E80083FF0AC0809152
:1021E000E800877F8093E8008091EB008062809315
:1021F000EB00AA96E3E00C946425109230030E9451
:10220000280E2FEF84E39CE0215080409040E1F7BE
:1022100000C0000088E19AE00FB6F894A89580937A
:1022200060000FBE90936000FFCF882341F080953F
:1022300090917A02892380937A020E94C50D0895B5
:10224000882339F090917A02982B90937A020E9419
:10225000C50D0895882341F080959091300389231E
:10226000809330030E94C50D0895882339F0909122
:102270003003982B909330030E94C50D0895882356
:10228000C1F19CEF980F913A78F4EEE7F1E091916B
:10229000891303C0DF0111971C9241E0E438F40771
:1022A000B1F70E94C50D089590E2980F983088F418
:1022B000877021E030E0A90102C0440F551F8A95C4
:1022C000E2F7CA018095909130038923809330030F
:1022D000E8CF9BE5980F933028F490E080E00E94CF
:1022E00028050895885A873120F490E080E00E9404
:1022F000120508950F931F93CF93C82F882349F198
:102300008CEF8C0F813AB8F50EE711E084E891E08C
:10231000F8012191C21709F121E0E438F207C9F769
:10232000EFEF80E0D8019D918D01C91781F0EF3F5B
:1023300019F4911101C0E82F8F5F863099F7EF3FB4
:1023400031F00E2E000CFF0BE458FE4FC2830E94AA
:10235000C50DCF911F910F910895EEE7F1E0219106
:10236000C21303C0DF0111971C928E179F07B9F7A4
:102370000E94C50DD5CF80E28C0F883068F4C770FD
:1023800021E030E001C0220FCA95EAF780913003C6
:10239000822B80933003DBCFEBE5EC0FE33040F48E
:1023A000F0E0E95EFE4F808190E00E942805D1CFE9
:1023B000C85AC73170F6EC2FF0E0EE0FFF1FE65E53
:1023C000FE4F808191810E941205C3CF1F93CF934E
:1023D000DF93182FEB010E947A11209739F4812F97
:1023E0000E943F11DF91CF911F9108958FE99FE0E7
:1023F0000197F1F700C000002197EFCFB0E0A0E017
:10240000E4E0F2E10C944125EC018AE0A82E288159
:10241000222309F49FC0213009F03FC099818A81AD
:10242000913051F4229670E060E0893311F460E558
:1024300070E00E94E61105C0923029F422960E94B5
:102440007A112196E4CF933021F422960E943F1115
:10245000F8CF943011F02196F4CF229630E020E0AE
:10246000AE014F5F5F4F8053990B8A30910550F05A
:102470002150310930F38FE99FE00197F1F700C057
:102480000000F6CFA29EB001A39E700D11249C0106
:10249000260F371F8981EA01E3CFE22FF0E0EE56E5
:1024A000FA4FB490822F86958695869590E0FC0130
:1024B000EE57FA4FE4902770F12C022E02C0F594EB
:1024C000E7940A94E2F731E0E322FF24FC01EE589E
:1024D000FA4FC490D12C022E02C0D594C7940A940E
:1024E000E2F731E0C322DD24FC01EE59FA4F0491FA
:1024F00010E002C0159507952A95E2F701701127A3
:10250000E114F10419F081EE0E947A11C114D10492
:1025100019F086EE0E947A1189E370E060E0B8124B
:1025200002C060E570E08B2D0E94E611C114D10459
:1025300019F086EE0E943F11E114F10419F081EECA
:102540000E943F110115110509F47BCF70E060E096
:102550008CE26FCFCDB7DEB7EAE00C945D25A4E046
:10256000B0E0E5EBF2E10C9442257C01FC018381B3
:102570009481892B31F08081918189238F3F09F0EB
:10258000EEC22496E9E00C945E25980122513F4565
:102590002031310508F0D0C28FEF93E00E94AA25C8
:1025A0008111EFCF02519FECE92EF12C011133C0C4
:1025B00019821A821B821C82BB24BA9487010F5F86
:1025C0001F4FC7010E94AA2589831A828823C9F256
:1025D000813009F081C0670142E0C40ED11CC801FE
:1025E0000E94AA25082F8A83882359F2C6010E94D7
:1025F000AA25182F8FEF800F8330E0F4670153E096
:10260000C50ED11C1B83112321F0CE0101960E941F
:10261000FE117601D3CFE114F4E0FF0609F4B1CF47
:10262000C7010E94AA25811101C001502FEFE21AB3
:10263000F20ABCCF8BEF800F833038F5C7010396C9
:102640001B836C01112329F36701E4E0CE0ED11C3A
:102650000E94AA258C838823E1F2EB80FC80F1E0C4
:10266000EF16FFEFFF0610F0FE2CEE24063049F0C7
:10267000073019F0C7010E94831BC7010E944B1B42
:10268000C8CFC7010E94831BC4CF043011F6670175
:1026900024E0C20ED11CC70103960E94AA25112373
:1026A00009F46FCF882309F46CCF8150990BB89E41
:1026B0009001B99E300D1124412F4150550BCA0194
:1026C000820F931F019708F4A4CFEFE9FFE0319741
:1026D000F1F700C00000F6CFCE0101960E94FE1176
:1026E000680197CF81E00E94170E03C081E00E942D
:1026F0000A0E0E94FE0D45CF82E0F5CF82E0F7CFB3
:10270000073CECE51E0709F478C008F471C0083CEA
:102710002CE5120709F476C0093C4CE5140709F0D2
:102720004EC24EE75CE06BE87CE055C00E3C5CE5D9
:10273000150709F476C088F40C3CFCE51F0709F482
:102740006BC046EC5CE068ED7CE00D3C2CE51207CC
:1027500008F441C061E081E037C0063D4CE5140754
:1027600050F468E086E0003D5CE5150708F009CF0D
:102770000E943A0D06CF0D35100709F402CF1FC293
:1027800080911D0280FF1BC08E7F80931D0260918F
:102790001D0270911E0280911F02909120020E94E2
:1027A000270C10921C029FEFE0E7F2E09150E0400E
:1027B000F040E1F700C000000E941009E2CE816005
:1027C00080931D0261E086950E94EA0CDACE45E214
:1027D0005DE06FE27DE00E948A05D3CE4FE25DE0CE
:1027E00065E27DE0F8CF42EB5CE06CEB7CE0F3CFA0
:1027F0004CEB5CE062EB7CE0EECF48E95CE065EA44
:102800007CE0E9CF45EA5CE068E97CE0E4CF4BE8B6
:102810005CE06EE77CE0DFCF48ED5CE066EC7CE0FE
:10282000DACF65E082E0A4CF073A2DE5120709F47C
:1028300094C101154CE5140709F0C1C11092300391
:102840000E94280E5FEF84E39CE05150804090404E
:10285000E1F700C000000E94DA0400811181992391
:1028600069F0C8010E94180BD82E682FC8010E9479
:102870006208B8018D2D0E94EE0AA9C1C8010E940C
:102880001808D82EF6CF022F0F70207F11F0029576
:10289000007F3323C9F0002369F080E2810F883084
:1028A00010F011110BC080913003082B00933003FE
:1028B0000E94C50D812F0E947A1119C080917A0261
:1028C000082B00937A02F4CF812F0E943F1100233E
:1028D00071F0009580E2810F883010F0111115C061
:1028E000809130030823009330030E94C50DE8E077
:1028F000CE1AD108F4E0CF16D10410F40E943E05A0
:1029000060E0C7010E94850B3CCE80917A020823CB
:1029100000937A02EACF822F8F70207F203211F04D
:102920008295807F113061F4332329F04630F8F628
:102930000E943511DCCF4530D0F60E942A11D7CF46
:10294000332341F04423A1F350FFB4CF5F70F7016C
:102950005583EECF442389F3193349F4FFEF27EE73
:1029600043E0F15020404040E1F700C00000812FDB
:102970000E943F11BCCF822F86958695837069F0A7
:10298000813009F0B4CF812F922F9370311102C0A2
:1029900090E080E00E941205AACF812F922F9370C1
:1029A000311102C090E080E00E942805A0CF822F64
:1029B000837089F531119BCF312F32953695377061
:1029C000330F330F812F8F70032E01C0880F0A94AD
:1029D000EAF7412F407114FF07C04FE050E001C0FB
:1029E000440F3A95EAF740952695269523702230B4
:1029F00069F050F43091DF01213029F0842B8323DA
:102A00000E94230E74CF832B842BFACF482B809106
:102A1000DF018427F5CF8695332311F0822F817053
:102A2000882309F464CF312F329536953770330FF0
:102A3000330F812F8F70032E01C0880F0A94EAF79D
:102A4000412F407114FF07C04FE050E001C0440F18
:102A50003A95EAF74095269526952370223069F03D
:102A600050F430914703213029F0842B83230E94B6
:102A7000F90D3DCF832B842BFACF482B8091470350
:102A80008427F5CF022F0F70332329F0802F0E9467
:102A9000170E812F4DCF812F0E942A11802F0E9467
:102AA0000A0E25CF113F61F148F4103FA9F03323FE
:102AB00099F14111FFCE822F8F7126C0123F39F15B
:102AC000133FA9F780E0332391F22F7181E001C019
:102AD000880F2A95EAF7CBCF332371F0453008F001
:102AE00006CF2F7181E090E001C0880F2A95EAF7A8
:102AF000909147038927BBCF463008F0F8CEF1CF3D
:102B0000822F8F71332359F20E94170EF0CE822F3D
:102B10008F713323C9F3C3CF442359F0193309F01C
:102B200026CF5FEF87EE93E0515080409040E1F771
:102B30001CCF822F8F71B3CF00312FE5120709F41C
:102B4000D1CD01314FE5140709F4D6CD0E3D2CE56A
:102B5000120709F069CE0E945A0D0E94FD1061E033
:102B6000C7010E94850B8C01F701928191110DCD57
:102B700000315FE5150709F4B9CD01318FE518077C
:102B800009F4BCCD8091300382720A3C4CE51407F5
:102B900009F43DCE08F0CACD053CECE51E0709F46A
:102BA00022CE08F0ADCD033C2CE5120709F40FCE80
:102BB00008F014CE023C5CE5150709F4E1CDF701FD
:102BC000268137812115310509F447CEC9010E94BC
:102BD0007A06182F292FF70132815581452F42950A
:102BE0004F7092959F70C92ED12C9C3008F07FCEEB
:102BF000F601EA5FF94D0C942C25CF93DF93809179
:102C00009201807F09F049C080918F01882309F4E7
:102C100044C08091D601D091950160918D01709151
:102C20008E01A0919001B0919101C62FC723D817B2
:102C3000A1F190E0109711F0CF3F19F40196877041
:102C4000F6CF9C0143E0220F331F4A95E1F7F901CB
:102C5000EA56FE4F41814713F1CF40814613EECF34
:102C600042814111EBCF438154814A1B5B0B483CAD
:102C7000510520F7809192018F70806180939201BD
:102C8000F901E556FE4F80818F70806180838DE869
:102C900091E00E94AF120E94E707DF91CF91089563
:102CA000A5E1B0E0E6E5F6E10C9441258C0185E074
:102CB000F801DE01519601900D928A95E1F7F80135
:102CC000E2806DE8A62E61E0B62E609190017091D1
:102CD00091016115710509F45CC190918D014091DC
:102CE0008E01892F84238F3F09F453C120813181C4
:102CF000C380D480F0908F01F601E61BF70BFF2014
:102D000009F411C180919201582F507FE83CF105E0
:102D100008F0C4C0511175C0FE2C43131EC092139D
:102D20001CC06091930170919401F8014681578114
:102D30006417750791F4E11010C08F708061809363
:102D40009201C5010E94AF1280919201F801858322
:102D50008F2D6596EAE00C945D25C114D10429F00D
:102D6000822F83238F3F09F02FC180E0F82FF1706D
:102D7000DF2E80FF3CC08091D601409195018413E5
:102D800015C0298B3A8B89899A890E94470B292F74
:102D900022952F702230F8F0243020F59F70F9F042
:102DA000F8019581907FD9F4D12C1FC090E0FC01EF
:102DB00053E0EE0FFF1F5A95E1F7EA56FE4F51819F
:102DC000351306C05081251303C05281E5120FC090
:102DD00001968770D4CF9F7011F0882329F3805E0D
:102DE000883010F3C8010E94AF12FD2CB1CFEE2045
:102DF00009F4AECF80919201816080939201F12C11
:102E0000A7CF43131BC0921319C040919301509157
:102E10009401F801268137814217530779F4E110B4
:102E20000DC08583C8010E94AF1288E0F801ADE8AB
:102E3000B1E001900D928A95E1F78ACFC8010E9416
:102E4000540B882339F1EE2029F1809192018032D0
:102E5000A0F020918D0130918E013A8729871B8641
:102E6000DD86CC868E878091930190919401988B1A
:102E70008F87CE0109960E94AF1288E0F801ADE875
:102E8000B1E001900D928A95E1F70E94FD15FF24B3
:102E9000F3945ECFC8010E94AF12F9CF51110AC05E
:102EA0008DE891E00E94AF1288E0F50111928A95B9
:102EB000E9F7A5CF431318C0921316C040919301B0
:102EC00050919401F801268137814217530761F42C
:102ED000E1100AC08583C8010E94AF1288E0F501A5
:102EE00011928A95E9F734CFC8010E94540B8823C8
:102EF00089F2EE2079F280919201803208F4BDCF00
:102F000020918D0130918E013A8329831B82DD82CD
:102F1000CC828E83809193019091940198878F83C6
:102F2000CE010196A8CFE83CF105C0F6FE2CEE20BC
:102F300009F4B0CF43131FC092131DC02091930119
:102F400030919401F801868197812817390799F407
:102F50009091920190FD69CF907F09F466CF8091A6
:102F600092018583903F09F45DCF982F907F905F09
:102F70008F70892B56CFC8010E94540B81117DCFD1
:102F800080919201816080939201C8010E94AF12EA
:102F9000DFCEEE2009F47ECFC8010E94540BF82E3C
:102FA000882309F477CF88E0F801ADE8B1E001901B
:102FB0000D928A95E1F780918D0190918E010E948A
:102FC000470B0E94FD15C4CE81E08E25CFCEA0E137
:102FD000B0E0EDEEF7E10C94492529873A874B875D
:102FE0005C876D877E878F87988BCE0109960E94BC
:102FF0005016811112C088E0FE013996DE0111964B
:1030000001900D928A95E1F78C859D85892B29F099
:1030100089859A8589238F3F81F58091D60190918A
:103020009501891317C06096E2E00C94652593E042
:10303000AA0FBB1F9A95E1F7AA56BE4F98E0FE0172
:10304000319601900D929A95E1F7809395010E9437
:10305000E707E3CFB8E08B9FC00111248A569E4F4B
:103060000E9450168823F9F28091D60190E00196D3
:10307000877099278093D601D0CFA0919501B0E0B9
:10308000CD010196877099272091D601281719063E
:1030900071F6109230030E94280E10929501109242
:1030A000D60188E0EDE8F1E0DF011D928A95E9F7AD
:1030B000B4CF0F931F93CF93DF9380917C02E09165
:1030C0007B02CCE081111AC0DF91CF911F910F914B
:1030D0000895D1E0DE0FD0937B020E2F10E0EC9F1D
:1030E000F0011124E358FD4F83819481892B29F04D
:1030F0008081918189238F3F51F4ED2F80917C0253
:10310000E81738F310927C0210927B02DDCFC09F4B
:10311000D001C19FB00D1124A358BD4F16968D91BB
:103120009C911797892B29F418968D919C91019663
:1031300051F420813181428153816481758186817E
:1031400097810E94E717C09FF001C19FF00D1124E5
:10315000E358FD4F1482138210927A02CECF109260
:10316000200310921F0310920D0180911E03809383
:103170001D030E9479050E9459180895B0E0A0E04F
:10318000E4ECF8E10C943A25C0911D0397E0892EF8
:1031900001E010E02CE0322E3EEF932E44244394C5
:1031A00080911E038C1309C00E9459180E94790552
:1031B000CDB7DEB7E1E10C945625D0E0FE01EE0F6D
:1031C000FF1FEB5EFC4F80819181889ED001899E1C
:1031D000B00D1124A352BD4F14962C9114972111B8
:1031E00058C050907C02EDE7F2E030E020E0712C16
:1031F0005D01251508F04BC0E284F384D501CD9024
:10320000DC906FEF7FEF612C462D50E0DA01AA0FC2
:10321000BB1FAC0DBD1D0D90BC91A02D109731F0C2
:10322000EA16FB0609F4BA016394EECF6F3F760706
:10323000A9F1D80102C0AA0FBB1F6A95E2F77A2A4A
:10324000B801062C02C0660F771F0A94E2F7AB01A3
:103250004150510974161506F9F4329EF001339E5F
:10326000F00D1124E358FD4F889ED001899EB00DCA
:103270001124A352BD4F12962D913C911397378381
:103280002683908291829187808715964C920E9426
:103290004B052196C37084CF148213822F5F3F4F5A
:1032A0003C96A7CFA9E1B0E0E8E5F9E10C94392517
:1032B000498B5A8B6B8B7C8B8D8B611110927A02B0
:1032C0001D861E861F86188A85E0FE017196DE0126
:1032D000199601900D928A95E1F78C859D85892B31
:1032E00031F089859A8589238F3F09F0C0C12985EE
:1032F0003A854B855C856D857E858F8598890E9492
:10330000E717C3C028EFC2162CE5D20629F488239C
:1033100079F00E94AF18EBCF39EFC3163CE5D30626
:1033200039F4882329F080910D018111F2CFAFC1CA
:103330000DED12E0E12CB12CA12C88248394912C6A
:103340002EEF522E44244394F8014081518166248B
:103350006A94762C20E0822F90E0FC01EE0FFF1F94
:10336000E40FF51F608171816115710531F0C6169A
:10337000D70609F43C012F5FEECFF12CFFEF6F165B
:103380007F0609F444C0F8014481F0900D018F2DAF
:10339000411180E0F82FF170FF2EF8012580868121
:1033A0009B85992309F4F2C0FF2009F4EFC0211096
:1033B00014C0A401062C01C0440F0A94EAF7842B20
:1033C00086838091780290917902C29730F462E30B
:1033D00070E07093790260937802C40102C0880F94
:1033E000991F2A95E2F70197F801268128171906F7
:1033F00071F480911F0390912003009709F449C054
:103400000E94EB04C39708F444C0F8014482EF28FB
:10341000FFEFAF1ABF0A095F1F4F28E0A216B104E1
:1034200009F092CF8B85882309F40CC1EE2009F4B2
:1034300009C10E9406059093200380931F03809189
:103440007C02883010F591E0980F90937C0298E010
:10345000FE013996DE01119601900D929A95E1F7E1
:103460003CE0839FC001112483589D4F28E0FE015A
:103470003196DC0101900D922A95E1F72FEF3FEF95
:10348000FC0131872087D386C2866996E2E10C94DD
:10349000552580911D0350911E03982FF0E0E0E028
:1034A000851314C090931D030E171F0709F4AFCFA7
:1034B00090E0FC01EE0FFF1FEB5EFC4FB182A0829B
:1034C00001968370992780931E03A1CF282E312C5B
:1034D000F101EE0FFF1FEB5EFC4F20813181F7E021
:1034E000F29FD001F39FB00D1124A352BD4F2D9137
:1034F0003C911197398F288F40E020E030E0E32F96
:10350000F0E0EE0FFF1F688D798DE60FF71F6080EA
:10351000718061147104E1F0F8010190F081E02DF7
:10352000FF8BEE8B20E005C06616770609F44F2D61
:103530002F5FE22FF0E0EE0FFF1F6E897F89E60F0D
:10354000F71F608171816115710571F73F5FD7CFFA
:103550004423C9F0F801231708F0FD0144820E1737
:103560001F0721F490931D03F42E51CF981305C02B
:10357000AE17BF0711F49F5F937091012F5F3F4F0C
:10358000822F83708DCFF0E0E0E0F7CF90E0211044
:1035900020C0B40102C0660F771F2A95E2F79B0195
:1035A000215031098217930731F4442309F448C0AC
:1035B000C5010E944B05C401062C01C0880F0A9466
:1035C000EAF7982F9095F801868189238683F22C5B
:1035D0001ECF9C01062C02C0359527950A94E2F770
:1035E000A90141705527BC016150710986239723B9
:1035F000892B11F5452B01F1F80182819381892BEB
:10360000C1F01B821C821D821E8259825A820E9436
:1036100006058160582F9D838C83F80182819381F8
:103620008F83988729813A814B816D817E810E94A9
:10363000E717F8011582BFCFF22FF1702F2EBBCF05
:103640002F2CB9CF90911D0380911E03981731F054
:103650000E94BE18EE2009F44ACE17CF0E945918D6
:103660001092200310921F030E947905F3CF61E0AE
:10367000CE0109960E94850B6C018B85F7EFCF1662
:10368000FCE5DF0609F03ECE882309F451CE81E047
:1036900080930D012CCEA5E0B0E0E1E5FBE10C94B8
:1036A00047258C019093750280937402011580E286
:1036B0001807C0F4802F0E943F11C8010E947E08A5
:1036C0009801205E31092830310518F001151105E7
:1036D00031F40E942A112596E4E00C9463250E949F
:1036E0001511F9CF80EF89838A831B820E9406051A
:1036F0008160782F9D838C8349815A816B818D8174
:103700000E945219E8CFA5E0B0E0E9E8FBE10C9493
:1037100047258C019093750280937402011580E215
:103720001807C0F4C8010E947E089801205E310984
:103730002830310518F00115110549F40E943511A2
:10374000802F0E947A112596E4E00C9463250E9454
:103750002011F6CF80EF89838A8381E08B830E94DA
:1037600006058160782F9D838C8349815A816B8106
:103770008D810E945219E7CFA3E0B0E0E2ECFBE1BB
:103780000C94432519821A821B82FE01319688E42B
:10379000C82E81E0D82E7E0184E0E80EF11CBF0126
:1037A000860153E040E031E0D8012D918D012F3F9B
:1037B00091F0822F82958F7090E0DC0190968C9131
:1037C00090E02F7002C0959587952A95E2F780FDCD
:1037D00048C0832F482B330F515031F74193B3E04A
:1037E000CB0ED11CEE15FF05D9F643E050E083EE79
:1037F00091E00E948625892BB1F189819A81AB8164
:103800008093E3019093E401A093E50181E080932C
:10381000E2010E9406059093E1018093E00180910E
:10382000E0019091E1010E94EB04059700F143E073
:1038300050E063EE71E08AEF91E00E948625892BCB
:10384000D9F08091E3019091E401A091E50180938A
:10385000FA019093FB01A093FC0181E01092E20138
:1038600007C080E0B7CF8091E2018111D8CF80E01E
:103870002396E8E00C945F2580E0F0CF90E080E0B4
:103880000E94B825883E9E4F19F40E94B50B0895FA
:1038900080E008951F920F920FB60F9211242F937C
:1038A0003F934F935F936F937F938F939F93AF93C8
:1038B000BF93CF93DF93EF93FF93D091E900DF7035
:1038C0008091EC00C82FC17080FDC0E81092E90023
:1038D0008091F000877F8093F00078940E94320EF0
:1038E0001092E9008091F00088608093F000CD2B69
:1038F000CF70C093E900FF91EF91DF91CF91BF911D
:10390000AF919F918F917F916F915F914F913F9177
:103910002F910F900FBE0F901F9018951F920F922E
:103920000FB60F9211242F933F934F935F936F9392
:103930007F938F939F93AF93BF93EF93FF93809168
:10394000E10082FF09C08091E20082FF05C0809102
:10395000E1008B7F8093E1008091DA0080FF24C03A
:103960008091D80080FF20C08091DA008E7F809304
:10397000DA008091D90080FF9DC080E189BD82E19D
:1039800089BD09B400FEFDCF81E08093460380919C
:103990002F03811109C00E9428030E941B048091FB
:1039A000E20084608093E2008091E10080FF17C014
:1039B0008091E20080FF13C08091E2008E7F8093AF
:1039C000E2008091E20080618093E2008091D80063
:1039D00080628093D80019BC85E080934603809173
:1039E000E10084FF2BC08091E20084FF27C080E1CA
:1039F00089BD82E189BD89B5982F917080FFFBCF89
:103A00008091D8008F7D8093D8008091E1008F7ED7
:103A10008093E1008091E2008F7E8093E2008091AC
:103A2000E20081608093E20080913D03882309F4E5
:103A300047C084E080934603809146038091E10073
:103A400083FF27C08091E20083FF23C08091E100C3
:103A5000877F8093E10082E08093460310923D03CC
:103A60008091E1008E7F8093E1008091E2008E7F63
:103A70008093E2008091E20080618093E20042E066
:103A800060E080E00E94E9038091F000886080930C
:103A9000F000FF91EF91BF91AF919F918F917F9136
:103AA0006F915F914F913F912F910F900FBE0F90AB
:103AB0001F90189519BC1092460310922F0374CFD3
:103AC0008091E30087FD93E090934603B5CF78940F
:103AD0001F921FB61F9211248F939F93AF93BF9392
:103AE0008091280390912903A0912A03B0912B0380
:103AF0000196A11DB11D8093280390932903A093E3
:103B00002A03B0932B03BF91AF919F918F911F9088
:103B10001FBE1F9018951F921FB61F9211248F93DE
:103B20009F93AF93BF9380912703811113C080911E
:103B3000280390912903A0912A03B0912B03419669
:103B4000A11DB11D8093280390932903A0932A03FC
:103B5000B0932B03BF91AF919F918F911F901FBE88
:103B60001F901895CDB7DEB7C854D1090FB6F89499
:103B7000DEBF0FBECDBF85B7806885BF85B78068C3
:103B800085BF84B7877F84BF0FB6F894A8958091CE
:103B90006000886180936000109260000FBE80E832
:103BA00090E00FB6F89480936100909361000FBE8F
:103BB00085E396E090937B0180937A010E94CE0B7F
:103BC0000E9428030E941B048091E200846080937D
:103BD000E2007894809146038823A1F01091E900D7
:103BE0001F709091EC00892F817090FD80E8182B58
:103BF0001092E9008091E80083FD0E94320E1F7050
:103C00001093E90082E084BD93E095BD9AEF97BDE3
:103C100080936E000E94B50B811102C00E947C0A45
:103C200028E431E061E070E0D90150E040E08D919E
:103C30008F3F91F0E82FE295EF70F0E0F1A08F70E8
:103C40008B0101C0000F8A95EAF7902F90959F2174
:103C500091A382A1802B82A34F5F5F4F4330510518
:103C600031F72D5F3F4F81E021353807E9F683E0DA
:103C7000EAEFF1E0DF01282F1D922A95E9F7E3EE44
:103C8000F1E0DF011D928A95E9F70E943E1C811147
:103C900002C00E945A0D82E090E00E94AA25809303
:103CA000ED0184E090E00E94AA25182F82E290E0C6
:103CB0000E94AA25982F812F9093E7018093E60117
:103CC0000E94BC1BEFE3FCE93197F1F700C0000054
:103CD0000E94BC1B8091FC0180FF08C06FEF7FEF4A
:103CE00090E080E00E94DC250E94DA0483E090E00E
:103CF0000E94AA250E94230E8091E801811133C001
:103D00000E943E1C811104C00E945A0D0E944A0D5F
:103D100088E090E00E94B22560931D0270931E021D
:103D200080931F02909320026E7F71F40E944A0DCF
:103D300088E090E00E94B22560931D0270931E02FD
:103D400080931F02909320020E94900510921C0203
:103D500080911D0280FF04C060E086950E94EA0CFD
:103D600081E08093E80181E08093F30187988F9A46
:103D700086988E9A8FE891E00197F1F700C00000D5
:103D80003091F30144EF51E0FA018E2F841B831729
:103D900008F4BEC080E091E0909324038093230355
:103DA00048E1242E312C8091460311E000E132E1FC
:103DB000F32E853009F423C10E94BC1B9091EE01C3
:103DC0008091FA01981338C19091FB018091EF0125
:103DD000981332C19091F0018091FC0198132CC18D
:103DE0000E9406058C018091EB019091EC0108176F
:103DF000190701F18FEF8FAF21968FAF2197229690
:103E00001FAE22970E9406058160782F24969FAFEF
:103E10008EAF24974FAD21965FAD219722966FAD5F
:103E2000229724968FAD24970E9452191093EC018B
:103E30000093EB0180910D01882301F180911F0314
:103E4000909120030097D1F00E94EB04209178021A
:103E5000309179022817390788F490911D038091D9
:103E60001E03981709F434C10E94BE1810927902FB
:103E7000109278021092200310921F0380911C026E
:103E80008823D1F180911B02E0911D02E695E81B89
:103E9000E0931702823009F024C1F0E0ED5BFE4FA1
:103EA000E4910E2F10E08EE7E82E89E0F82E809145
:103EB0001802882361F0109218020E940605909360
:103EC00016028093150210921A02109219020E9493
:103ED0000605E0911502F09116028E1B9F0B8F3F95
:103EE0009F4750F40E0F1F1F1093160200931502E8
:103EF00085E192E0F7010995B12CA12C64E0E62E52
:103F0000F12C7DEF972E88248394ECEF7E2E97C1C1
:103F10008FB190E0880F892F881F990B7E9904C07C
:103F200020E0822B819331CF22E0FBCF80914603AA
:103F3000843009F43EC010921C028091EA01811184
:103F400016C01093EA0180911D02982F91709093F2
:103F5000E9018E7F80931D029FEFA0E7B2E09150B0
:103F6000A040B040E1F700C000000E94100910928C
:103F70002703E0E40FB6F894A895209260000FBEE6
:103F8000E093600083B7817F846083BF83B78160E3
:103F900083BF7894889583B78E7F83BF0FB6F894DC
:103FA000A895809160008861809360001092600005
:103FB0000FBE80913C03882311F10E94BC1B8091AD
:103FC000FB019091FA01892B9091FC01892BB9F0AA
:103FD00009BDF9BC09B400FEFDCF8091D8008F7DEA
:103FE0008093D8008091E00082608093E00080910F
:103FF000E00081FDFCCF109230030E94280E8091DA
:104000004603853009F492CF109230030E94280EA7
:104010000E943E051092EA018091E901882349F04F
:1040200080911D02816080931D0260E086950E9450
:10403000EA0C0E94110CC0CE9AEFC92E91E0D92E45
:104040002EEEA22E21E0B22E10E0D6010D916D01D0
:10405000F50181915F018017A1F1982E9026F12C36
:10406000EE24E394892D8E2121F12596FFAE25972C
:1040700026961FAF269791E0802F8E2109F490E0BD
:1040800027969FAF27970E9406058160782F299673
:104090009FAF8EAF299725964FAD259726965FAD9A
:1040A000269727966FAD279729968FAD29970E945F
:1040B0005219F394EE0CF3E0FF12D4CFF5013197CF
:1040C00000831F5F133009F0C0CF0E94FA04B2CE04
:1040D0000E9459181092200310921F030E94790524
:1040E000CDCE00ED17E0A5EDEA2EA4E0FA2E863045
:1040F00009F0DDCEF0E0E05CFE4FE4910E2F10E021
:10410000BEE6EB2EB9E0FB2ED2CECB2CD12C8FB15C
:1041100090E0880F892F881F990B7E99DDC0E0E021
:104120008E2BD601AC50BE4FEC919E2F9370891709
:1041300009F484C0EE0FEE0FE82BEC93EF70F0E083
:10414000EF5AFE4F86010E501E4F8081D8019C9180
:10415000890F8C9320E084308CF1F601EF50FE4FF4
:1041600080818F5F80830E940605BDAA7EAA8FAAE8
:104170008160782F99AF88AF4B2D5CEF61E089ADFE
:104180000E945219EFE3FFE13197F1F700C0000000
:104190000E940605BAAE7BAE1CAE8160782F9EAF42
:1041A0008DAF4B2D5CEF60E08EAD0E9452198FE316
:1041B0009FE10197F1F700C0000021E0D8018C9148
:1041C0008D3F8CF5F601EF50FE4F8081815080834A
:1041D0000E940605BBA69CA68DA68160782F9FA78E
:1041E0008EA74B2D5DEF61E08FA50E945219EFE382
:1041F000FFE13197F1F700C000000E940605B8AA60
:1042000099AA1AAA8160782F9CAB8BAB4B2D5DEFDE
:1042100060E08CA90E9452198FE39FE10197F1F7AA
:1042200000C0000021E0D8018C91082E000C990BF1
:10423000B7010E941825F8018083A22AB3948091C7
:10424000F301B81608F461CFA1100E94FA040E948D
:104250003E059091F501891721F08093F5010E94A8
:10426000FA0480914603843009F09DCD83E0809369
:10427000E9008091E80082FF96CD8091E80090E00F
:1042800085FF05C00E944703882341F191E080919A
:10429000E8008B778093E800992309F484CD00919E
:1042A000760210917702898101151105A1F18E3FE7
:1042B00009F0C6C08A81833020F08550833008F031
:1042C000BFC0EA81EE3008F0BBC0F0E0EE5EF94D11
:1042D000CE0101960C942C25E2E022CF00E210E002
:1042E0009E012F5F3F4F79018091E80085FD0AC054
:1042F0008091E8008B778093E8000E944703882331
:1043000099F3C4CF8091F100D7018D937D010150C5
:10431000110951F7BBCF8B3009F406C298F58530EF
:1043200009F4B2C0D0F4823009F479C030F481309D
:1043300009F471C08FEF898383C0833009F495C07D
:104340008430C1F74C816B818A810E94BF0A982713
:10435000892798279E838D8373C0873009F4A2C074
:1043600008F49DC0883009F4DDC0893019F76091E8
:104370001D0270911E0280911F02909120020E94E6
:10438000270C5EC0803109F421C1C8F58D3009F4D5
:10439000EDC008F4E8C08E3009F4ECC08F3051F65F
:1043A0008091720290917302892B09F449C08C812B
:1043B000E82EF12C2DE1E216F10408F041C0CA808C
:1043C000DB80DC24CD24DC248E010F5F1F4FE00E48
:1043D000F11EC60181539F4F0E151F0589F131E370
:1043E000C31633E0D30628F4D80114966C910E94CA
:1043F000BE250F5F1F4FBFEFCB1ADB0AEACF82311A
:1044000009F4E9C008F4E5C0833109F40EC18E3F18
:1044100009F090CF56CF1A8289E08B8311C08A8130
:10442000823009F4E9C2833081F0813009F082CF13
:104430000E94FA040E9432256B837C838D839E83C5
:10444000CE0101960E94A203AECC8091720290919F
:104450007302892BA9F38091FA018B838091FB0170
:104460008C838091FC018D83EBCF8A81823009F0AF
:1044700061CF6B817C818D819E810E94322586E295
:1044800090E00E94BE25DCCF2D813E81322723277C
:1044900032274C816B818A810E94CD09D1CF0E9445
:1044A0000C0ACECF8A818138B9F058F4803841F6B1
:1044B00020E04B8160911F0280911E020E943A0C05
:1044C000BFCF823859F1833809F0BACF20E040914C
:1044D00020026C818B81F2CF60E08B810E94EA0C1C
:1044E0009B8180911D02911111C08E7F80931D02CE
:1044F00010921C02BFEFE0E7F2E0B150E040F04064
:10450000E1F700C000000E9410099ACF81608093FB
:104510001D0260E086950E94EA0C92CF8B81809309
:1045200021028ECF8A81813899F030F4803809F0E9
:1045300087CF8091200271CF823891F0833809F0C3
:104540007FCF80911E028B8380911F028C8378CF56
:1045500080911D0280FF02C086955FCF80E05DCF15
:10456000809121025ACF80E18A836ACF83E08A83D7
:1045700081E353CF8C81E82EF12C2DE1E216F1047A
:1045800008F05ECFCA80DB80DC24CD24DC248E01E1
:104590000F5F1F4FE00EF11EC60181539F4F0E1596
:1045A0001F0509F44DCF31E3C31633E0D30658F4A9
:1045B0000E94AA25D80114968C93FFEFCF1ADF0A28
:1045C0000F5F1F4FE9CFF8011482F7CF0E949209C5
:1045D00037CF84E0C9CF8C81E82EF12CEDE1EE16C7
:1045E000F10408F02DCFCA80DB80DC24CD24DC244C
:1045F0008E010F5F1F4FE00EF11EC60187960E154C
:104600001F0509F41DCFF8E4CF16D10458F40E9419
:10461000AA25D80114968C93FFEFCF1ADF0A0F5FFB
:104620001F4FEBCFF8011482F7CFEC80F12C2DE176
:10463000E216F10408F004CF0A811B81102701273C
:1046400010270834110508F0FBCE88E490E0801BA9
:10465000910B8E159F0508F4F3CE480137E2830EC7
:10466000911C809172029091730238016E0C7F1C34
:10467000892BB9F5680181E0C822DD2400FF0DC057
:10468000C80186960E94AA259D8189279827892797
:1046900081159C4511F48FEF8D83570160FE17C083
:1046A000B1E0AB1AB10855E0452E512C4C0E5D1E01
:1046B0004A0C5B1CC4018E0D9F1D0E94AA25F201AD
:1046C000908181159C4519F48FEFD2018C93E1E024
:1046D000F0E0EC0FFD1FEC0DFD1D2FEFCA14DB0405
:1046E00020F0FE0131967F0119C0948185818115EA
:1046F0009C4511F42483258332E0C30ED11C3296ED
:10470000EDCF0834110528F4D70114966C910E945E
:10471000BE25BFEFEB1AFB0A0F5F1F4FC80187963C
:104720006016710671F78CCE8091720290917302BF
:10473000892B09F485CECE0101960E94A203FFEFDA
:1047400021EE34E0F15020403040E1F700C000009D
:10475000CBCA28E0EFE0F1E0DE01919601900D92E6
:104760002A95E1F720E2DC011D922A95E9F785E020
:10477000898388E0FE01B196DE01159601900D92C5
:104780008A95E1F75DCE8CED89831A821B821C82AB
:1047900057CE0C81602F70E0762F66270B81060FB5
:1047A000172F111D012E000C220B330B45E0000FBB
:1047B000111F221F331F4A95D1F7B901A801405E8E
:1047C0005F4F6F4F7F4F401751076207730708F421
:1047D00037CE0C3D11052105310508F031CE4D3D98
:1047E00051056105710520F04CED50E060E070E08E
:1047F000401B510BB801695B7E4F0E94702520CE93
:104800001B810C8140E0602F812F0E948C0A982729
:10481000892798279A83898341E0602F812F0E94FE
:104820008C0A9827892798279C838B8309CE2E8111
:104830003F813227232732272115BCE53B0741F46E
:104840008091720290917302892B11F430E020E084
:1048500041E08D81811101C040E06C818B810E941B
:10486000A209EECD4AE150E06FEF70E0CE0107966D
:104870000E9493258091720289830A8381E08B8351
:104880001C8282E08D838E83DBCD81E090E090936B
:1048900077028093760282E390E09093F90180930F
:1048A000F8010E9406059093F7018093F601C8CDA8
:1048B000012B61F11091FB010091FC018091F60147
:1048C0009091F7010E94EB048536910540F102FFBB
:1048D00026C010FF24C00E9406059093F701809324
:1048E000F6018091F8019091F90101979093F901F7
:1048F0008093F801892B51F410927702109276027E
:1049000081E090E090937302809372028091720232
:104910008983809176028A838091F8017ECD82E33B
:1049200090E09093F9018093F801F0CF1092730218
:104930001092720285CD40E250E06FEF70E00E946D
:1049400093257ECD2B81233059F0243039F121116C
:1049500077CD20E2FC0111922A95E9F788E004CE98
:104960006C812AE0CE018196DC01E22F1D92EA954E
:10497000E9F7683088F4629FB001112461587F4FD5
:104980004AE050E00E949A2580E089838AE0FE0197
:10499000B196DE011296F2CE8FEFF7CF6C818AE0EE
:1049A000FE013596DE01919601900D928A95E1F710
:1049B00089A59AA58115FCE59F0741F42091720213
:1049C00030917302232B11F490E080E09AA789A71D
:1049D0008FEF683068F42AE0629FB00111246158BB
:1049E0007F4F4AE050E0CE0181960E94E22580E0B0
:1049F00089830E94CE0B24CD86E290E00E94AA25F6
:104A00001B821C821D823FCFAA1BBB1B51E107C02A
:104A1000AA1FBB1FA617B70710F0A61BB70B881F4E
:104A2000991F5A95A9F780959095BC01CD010895DD
:104A300097FB072E16F4009407D077FD09D00E944B
:104A4000042507FC05D03EF4909581959F4F08956D
:104A5000709561957F4F0895EE0FFF1F0590F491BB
:104A6000E02D0994692796276927782787277827D3
:104A700008952F923F924F925F926F927F928F9202
:104A80009F92AF92BF92CF92DF92EF92FF920F93DD
:104A90001F93CF93DF93CDB7DEB7CA1BDB0B0FB6E7
:104AA000F894DEBF0FBECDBF09942A8839884888A4
:104AB0005F846E847D848C849B84AA84B984C8843A
:104AC000DF80EE80FD800C811B81AA81B981CE0F31
:104AD000D11D0FB6F894DEBF0FBECDBFED01089516
:104AE000FB01DC0102C005900D9241505040D8F707
:104AF0000895FC014150504030F001900616D1F766
:104B00003197CF010895882799270895FB01DC018B
:104B100004C08D910190801921F441505040C8F794
:104B2000881B990B0895DC0101C06D9341505040E2
:104B3000E0F70895DC01CB01FC01F999FECF06C036
:104B4000F2BDE1BDF89A319600B40D92415050404B
:104B5000B8F70895F999FECF92BD81BDF89A9927CB
:104B600080B50895A6E1B0E044E050E00C949C25A7
:104B7000A8E1B0E042E050E00C949C25262FF99982
:104B8000FECF92BD81BDF89A019700B4021639F0AC
:104B90001FBA20BD0FB6F894FA9AF99A0FBE08957D
:104BA0000396272F0E94BF250E94BE25252F0E9415
:104BB000BF25242F0C94BF250196272F0E94BF25C7
:104BC0000C94BE25DC01CB0103C02D910E94ED2584
:104BD00041505040D0F70895262FF999FECF1FBAC3
:104BE00092BD81BD20BD0FB6F894FA9AF99A0FBE16
:104BF00001960895F894FFCF150F3D0FEB103D0F70
:104C0000EB10700F910FEB109A10A7104314431480
:104C10008B148B14BB14771477147714D7144215A4
:104C200052155215A923C323C92300241724322463
:104C30004524582496249B24202220222022A2248A
:104C4000D704E308D604DE08D908D40401010174AE
:104C5000059C91D115B259818283E200E900EA00F6
:104C6000B500B600B700CD008301CC008A019201E7
:104C700094012102230224022502260227022A028D
:104C8000B300B4006F007000FFF5FF94973466C660
:104C90003500FF0100010000FFFF0000010001FFDF
:104CA000000001020202020606064022320001DE76
:0A4CB00000AC008D04A604C6040049
:00000001FF
