:100000000C9468020C94AF020C94AF020C94AF02F3
:100010000C94AF020C94AF020C94AF020C94AF029C
:100020000C94AF020C94AF020C94AF2F0C9483305D
:100030000C944E2A0C94AF020C94AF020C94AF02B5
:100040000C94AF020C94AF020C94AF020C94AF026C
:100050000C94AF020C94A52A0C94AF020C94AF023E
:100060000C94AF020C94AF020C94AF020C94AF024C
:100070000C94AF020C94AF020C94AF020C94AF023C
:100080000C94AF020C94AF020C94AF020C94AF022C
:100090000C94AF020C94AF020C94AF020C94AF021C
:1000A0000C94AF020C94AF020C94AF02AE000000AF
:1000B0000000000000000000AF0000000000000091
:1000C00000000000AC000000000000000000000084
:1000D000AB0000000000000000000000A8000100CC
:1000E000000000000000000000000100000000000F
:1000F00000000000000001000000000000000000FF
:1001000000000100000000000000000000000100ED
:1001100001000000000000000000000001000000DD
:1001200000000000000000000100000000000000CE
:1001300000000000010000000000000000000000BE
:1001400001000100000000000000000000000100AC
:10015000000000000000000000000100000000009E
:10016000000000000000010000000000000000008E
:100170000000010000000000000000002A2B280001
:100180000000000000000000000000000000002946
:10019000000000002C1E3420212224342627252E86
:1001A000362D3738271E1F202122232425263333BE
:1001B000362E37381F0405060708090A0B0C0D0EEA
:1001C0000F101112131415161718191A1B1C1D2FB6
:1001D0003130232D350405060708090A0B0C0D0ED6
:1001E0000F101112131415161718191A1B1C1D2F96
:1001F0003130354C0000000000000000000000001D
:1002000000000000000000000000000000000000EE
:1002100000000000000000007E0F00D4FFFFFFC7B9
:1002200000000078FD377A585A000004E6D6B4463C
:100230000200210116000000742FE5A3E001120066
:10024000B55D003D8889C65436C3174FE4E20F55AB
:1002500025C005C4642EC2C973EB3B55E6B91069CD
:100260007A8FDF9F3CB1850A3EC042A41E5230F017
:1002700066B4F3D02779B972C2E02A3FF28A24AA81
:10028000DB917033BE78FB78BA994C99FC465118D3
:1002900074E5441D82F18722DA4A85F7BBCE2068D7
:1002A0007865ED31E0365EC05C2CDAC4F7BFE3B9A7
:1002B000354148D5E7485C7C3904A569406136E49E
:1002C0005B49B4C69DD4DF28AD238292026D8E3F78
:1002D0000B23B6390242CE4D0039CDF10BCDD913E7
:1002E00094E0FC931E7CEEB8E66D000FBCF2FAC9F8
:1002F000AA46EA80810B9EAC0000000036088DCB38
:100300000322915B0001D10193020000C3A8268B58
:10031000B1C467FB020000000004595A010001004B
:1003200061040000020002005D04000003000100FF
:1003300062040000040002004704CA1D0500010019
:1003400063040000060002004904000007000200E8
:100350005F040000080001006404000012000200B5
:100360006504000013000200670400001C0376000F
:10037000690061006C003A006600360034006300DA
:100380003200620033006300000022036C00690049
:10039000740074006C0065006200690067007300FF
:1003A000630072006F006C006C00340000001A03E0
:1003B0005400770065006500740079004400610016
:1003C000420069007200640000000403090409028D
:1003D0005B00030100A0FA09040000010301010011
:1003E0000921110100012240000705810308000ACC
:1003F000090401000203000000092111010001228B
:1004000022000705820320000107050303200001E5
:10041000090402000103000000092111010001226A
:1004200032000705840320000A12010002000000C8
:1004300008EE5812120100010203010660FF096173
:10044000A1010962150026FF0095207508810209A7
:1004500063150026FF00952075089102C00501096B
:1004600080A101850319012AB700150126B700955F
:100470000175108100C0050C0901A1018504190155
:100480002AA002150126A002950175108100C00561
:10049000010906A101050719E029E71500250195C5
:1004A0000875018102950175088101050719002968
:1004B000FF150026FF009506750881000508190143
:1004C0002905950575019102950175039101C000FB
:1004D00011241FBECFEFDAE0DEBFCDBF04B603FEAE
:1004E00027C080917A0490917B04A0917C04B09104
:1004F0007D048730904BA740B04BD1F410927A0422
:1005000010927B0410927C0410927D0414BE84B778
:10051000877F84BF0FB6F894A895809160008861AA
:1005200080936000109260000FBEE0E0F8E3099550
:1005300011E0A0E0B1E0ECE3F6E602C005900D9218
:10054000AC3AB107D9F724E0ACEAB1E001C01D92A2
:10055000AA37B207E1F70E94C7140C94EA320C9450
:1005600000009C013A9521153F4150F5FC01EE2712
:10057000F170BC0166277270AC01442754709C0175
:100580002227387094FF0EC080E1EF2B09F480E041
:10059000672B09F08062452B09F08064232B89F0DA
:1005A0008068089581E0EF2B09F480E0672B09F063
:1005B0008260452B09F08460232B19F08860089530
:1005C00080E00895CF93DF93EC010E94B1029E0179
:1005D000205E31092830310510F0209739F40E944F
:1005E00026068C2FDF91CF910C9495050E9434063E
:1005F000F8CFCF93DF93EC010E94DB05CE010E9480
:10060000B1029E01205E31092830310510F0CD2B5A
:1006100021F4DF91CF910C942D06DF91CF910C94B2
:100620003B0681E0089581E008950C94130308953A
:100630000C9417031F93CF93DF9300D000D00F9239
:10064000CDB7DEB749835A836B833091AE01898180
:100650009A8131111DC06623B9F02223A9F00E94AE
:10066000370A182F682F89819A810E94D8096981D9
:100670007A81812F0F900F900F900F900F90DF9144
:10068000CF911F910C94B11C0E94090A182FEFCF33
:100690000E94370A69817A81EDCFFC01262F86817D
:1006A0009781009739F440815181628173818481FF
:1006B0000C941A030895CF93DF93EC0161E00E943C
:1006C0004D03BE01DF91CF910C94A624CF93DF930D
:1006D000EC0160E00E944D03BE01DF91CF910C94CC
:1006E0001803E1E0F0E0DF0102C0AA0FBB1F6A952A
:1006F000E2F7BD01DF0102C0AA0FBB1F4A95E2F776
:100700006A2B01C0EE0F2A95EAF7962F98239613CD
:1007100002C08E2B0895E0958E230895242F462F36
:10072000682F8091BD010E9471030C9495090E946D
:1007300062130E9411050C947D130E94FD280E94F3
:1007400062240E9468210C94801380E00C941205AE
:10075000089508950E9454060E94A9032FEF84E390
:100760009CE0215080409040E1F700C000000C94D4
:10077000C92A0F931F93CF93DF93EC018B010E9443
:100780005C28B801CE010E942B15882309F44FC0C4
:10079000B801CE010E945E1A882309F448C0B8014E
:1007A000CE010E941503882309F441C0B801CE018F
:1007B0000E94A2288823D9F1B801CE010E94A1216C
:1007C0008823A9F1B801CE010E94A727882379F1D7
:1007D000B801CE010E94141F882349F1B801CE014F
:1007E0000E94D826882319F1F8018281882361F0BC
:1007F000CA35FDE5DF0721F170F4C115ECE5DE0730
:10080000A1F0CE3DDC45C9F0C801DF91CF911F9129
:100810000F910C941103CB358DE5D807A1F0CC35A1
:10082000DD4591F70E94C90FEFCF0E94AA0380E037
:10083000DF91CF911F910F9108950E948210F7CF01
:100840000E94D20FE1CF0E94D50FDECFCF93DF936E
:10085000EC0161E00E944D03BE01DF91CF910C9449
:10086000B9030C94A8030E9458290E9412050C9405
:100870003104DF92EF92FF920F931F93CF93DF9398
:10088000E82FF0E0EC58FE4FD490282F26952695BF
:10089000269530E0F901EC5EFD4F0491877010E081
:1008A000082E02C0159507950A94E2F701701127EA
:1008B000F901EC5FFD4FE490F12C082E02C0F59495
:1008C000E7940A94E2F791E0E922FF24F901EC5061
:1008D000FE4FC491D0E002C0D595C7958A95E2F746
:1008E000C170DD270115110519F081EE0E949505F3
:1008F000E114F10419F086EE0E9495058D2D0E94F9
:100900001A06EF2819F086EE0E94DB05012B19F07C
:1009100081EE0E94DB05CD2B51F08CE2DF91CF916F
:100920001F910F91FF90EF90DF900C941A06DF91CA
:10093000CF911F910F91FF90EF90DF900895EF926C
:10094000FF920F931F93CF93DF93EC01162F0AE0D2
:100950008881882309F454C0813009F04EC0898110
:10096000813099F47E0122E0E20EF11C8A810E941E
:100970001A06E7012196812F815050F3EFE9FFE03D
:100980003197F1F700C00000F7CF823041F47E01CB
:1009900082E0E80EF11C8A810E949505EACF83303F
:1009A00041F47E01E2E0EE0EF11C8A810E94DB053B
:1009B000E0CF843011F02196DDCF2A81229690E09D
:1009C00080E0AE014F5F5F4F2053330B2A3031057B
:1009D00048F0019778F2EFE9FFE03197F1F700C0B6
:1009E0000000F7CF089FB001099F700D1124C901C5
:1009F000860F971F2981EA01E4CF0E943904BACFFC
:100A0000DF91CF911F910F91FF90EF90089560E0DB
:100A10000C949F0408950C940A0581E008950C94A9
:100A20000D050895CF93C82F0E940B058C2FCF91F1
:100A30000C940F05019708F40895EFE9FFE0319752
:100A4000F1F700C00000F6CFCF93DF93CDB7DEB74C
:100A50002D970FB6F894DEBF0FBECDBF49875A87DA
:100A60006B877C878D878C859D85892B29F0CA01B2
:100A700089238F3F09F04AC08B8581110E94E80EBF
:100A80001D821E821F82188685E0FE013996DE01D6
:100A9000119601900D928A95E1F78091EA0382FD0B
:100AA00012C08091490490914A04892B61F00E9400
:100AB000A40E882319F082E00E94980F0E94800EF5
:100AC00081110E94220F8C819D81892B99F42981AB
:100AD0003A814B815C816D817E818F8198850E94F6
:100AE000C90D2D960FB6F894DEBF0FBECDBFDF91B6
:100AF000CF91089589819A8189238F3F41F3CE0157
:100B000001960E945B038111E2CFEBCF8091AF0190
:100B10009091B00101969093B0018093AF01ACCF5A
:100B2000FC01808191810C94640ACF93C82F8823A3
:100B300009F43FC08CEF8C0F813AA0F46C2F8091A8
:100B40000001909101010E94AD29882329F08C2F8A
:100B50000E94700E0E94300F8C2F0E94690ECF9160
:100B60000C94300F80E28C0F883048F4C77081E01D
:100B700001C0880FCA95EAF70E94C80EF0CFEBE5D6
:100B8000EC0FE33040F4F0E0E15BFE4F808190E059
:100B9000CF910C946F29C85AC73158F4EC2FF0E06C
:100BA000EE0FFF1FEF5DFE4F80819181CF910C947E
:100BB0008529CF910895882329F19CEF980F913AC8
:100BC00020F40E94700E0C94300F90E2980F983031
:100BD00050F4877091E001C0990F8A95EAF7892F48
:100BE0000E94CE0EF0CF9BE5980F933020F490E05A
:100BF00080E00C946F29885A873120F490E080E0DF
:100C00000C94852908951F93CF93DF93182FEB0140
:100C10000E949505209731F4812FDF91CF911F918C
:100C20000C94DB058FE99FE00197F1F700C000000D
:100C30002197F0CF6091670470916804893321F0A7
:100C400060916504709166040C940306882321F07A
:100C50000E94C80E0C94300F0895882321F00E9442
:100C6000CE0E0C94300F0895882321F00E94DB0EE5
:100C70000C94300F0895882321F00E94E10E0C940B
:100C8000300F089590E080E00E946F2990E080E0AE
:100C90000E9485290E94E80E0E94EB0E0C94300FF2
:100CA0000E94770E0C9442060E94D50E0C945006BA
:100CB000E92FE295EF70E250EE3070F4F0E0E4518D
:100CC000FD4C0C944932803F19F020F4883E20F40A
:100CD00081E00895843FE1F380E00895883EC0F309
:100CE000813FD1F7F5CF93FB882780F90895FC0168
:100CF00086819781009721F00E9480110C945806FC
:100D0000808191810E94640AF9CFBF92CF92DF92D5
:100D1000EF92FF920F931F93CF93DF936C01EB0140
:100D2000FC010281158112951F700E94BE0EE82EF3
:100D30008823B9F0E02E0023A1F08D2F807F80342E
:100D400021F080E28C0F8830D0F08091EA0382FDA0
:100D500016C082E00E94980F0E94BE0E91E0E82E1D
:100D6000E926BD2EB2942FE0B222FBE0FB1508F479
:100D70007CC0EB2DF0E0E650FD4C0C944932E12CA8
:100D8000F0CF2D2F2F70F22E8D2F807F19F0F2943F
:100D900090EFF922002399F0FF2059F080E28C0FA8
:100DA000883010F0C11107C08F2D0E94C80E0E941C
:100DB000300F8C2F52C08F2D0E94DB0EF8CF8C2F5E
:100DC0000E94DB05FF2009F450C080E28C0F8830C0
:100DD00010F0C11104C08F2D0E94CE0E03C08F2DC4
:100DE0000E94E10E0E94300F40C03D2F3F70F32E55
:100DF0008D2F807F803219F0F29480EFF822CC237F
:100E0000F1F0C13009F49BC0002309F4A2C0112302
:100E100009F477C020E0F60140815181628173813D
:100E200084810E941A03B6010E94C91E8111C1CF9C
:100E3000F601858180FFBDCF8F70858362C0809170
:100E4000EA0382FF41C0002359F0FF2029F08F2DD3
:100E50000E94C80E0E94300F80E00E94950505C0D8
:100E600080E00E94DB05F110B6CFEB2DE850FF0BC0
:100E7000349720F40E9458290E941205CE010E9446
:100E8000580681119CC11092B0011092AF01EE2062
:100E900009F4B6C10E94A00E80FDB2C1F601128213
:100EA0000E949A0E0E94A609C6010E9428090E946B
:100EB0009A0EDF91CF911F910F91FF90EF90DF90ED
:100EC000CF90BF900C94B1090023E9F0111106C036
:100ED0000E94EE0E8F290E942606C7CF113031F4F2
:100EE0000E94EE0E8F290E940A0FBFCF80916304EB
:100EF000823070F38113ECCF0E94220F8F2D0E945D
:100F0000F40E8F2DE8CF111106C00E94220F8F2DF5
:100F10000E942D06AACF80916304113059F48230CB
:100F200008F4A3CF0E94C50E8F2109F49ECF0E9422
:100F3000FD0EEBCF823048F31813E7CF96CF002396
:100F400021F0163008F091CFDCCF153008F08DCFAE
:100F5000DECF1123E1F28091670490916804C933D8
:100F600021F080916504909166040E941A058C2FEF
:100F70000E94DB057ACF8D2F86958695837061F070
:100F8000813009F072CFCE019370011102C090E060
:100F900080E00E94852969CFCE019370011102C0C3
:100FA00090E080E00E946F2960CF8D2F837081F5E3
:100FB00001115BCF4C2F429546954770440F440F6B
:100FC0008C2F8F70042E01C0880F0A94EAF72C2F03
:100FD0002071C4FF07C02FE030E001C0220F4A9506
:100FE000EAF720959D2F969596959370822B9230D7
:100FF00049F058F4913019F00E94870936CF0E94C9
:10100000820933CF0E948C0930CF0E9480092DCFF6
:101010008695002311F08D2F8170882309F425CF48
:101020004C2F429546954770440F440F8C2F8F707C
:10103000042E01C0880F0A94EAF72C2F2071C4FFF8
:1010400007C02FE030E001C0220F4A95EAF7209553
:101050009D2F969596959370822B923049F058F477
:10106000913019F00E94CD0900CF0E94C809FDCE31
:101070000E94D209FACE0E949509F7CEFD2FFF708B
:10108000FF2E002329F08F2F0E94A6098C2F23CF3B
:101090008C2F0E942D068F2D0E94B109E6CEC23FF3
:1010A00041F160F4C03FB9F0C13F81F0002309F481
:1010B00081C011117ECE8D2F8F711FC0C33F01F1F2
:1010C000C43FA1F78091EA0382FF24C08D2F8F7166
:1010D000002311F312C0002341F0153008F0C5CEF3
:1010E0008D2F8F710E94BD09C0CE163008F0BDCE85
:1010F000F7CF8D2F8F710111CFCF0E94A609B5CEEA
:10110000002329F08D2F8F710E949E09AECE0E9480
:101110009B09ABCE809163048230A8F10023F9F0E3
:101120000E947D0E0E94CE0E0E94A00E843041F4DB
:101130000E948F0F8D2F8F710E94B109E12C95CEE7
:10114000809163041817D0F72D2F2F71F22E822F64
:101150000E94A60963E08F2D0E94730FEFCF0E94BB
:101160007D0E0E94C80E80916304181740F00E9403
:101170008F0F0E94FD0E64E08D2F8F71EDCF81E007
:101180000E94980FDBCF002359F03D2F3F71F32EC3
:10119000832F0E94A60963E08F2D0E94730F65CEF6
:1011A00081E00E94980F123008F45FCE82E00E9426
:1011B000980F5BCE1111CFCE8D2F8F716DCF002385
:1011C00019F0111160CE63CE11115DCE20E0F60151
:1011D000408151816281738184810E941A03B6012A
:1011E0000E94D41E882309F44ECE8091AF019091C5
:1011F000B001029709F047CE8C2F0E941A0643CE09
:10120000DF91CF911F910F91FF90EF90DF90CF90E2
:10121000BF9008950F931F93CF93DF93EC018E81BE
:101220009F81009779F00E9480118C010E94D7095C
:101230000E947F09B801CE01DF91CF911F910F91DC
:101240000C948506688179818A810E946E0AEDCFAF
:10125000CF93DF93EC018B819C81892B29F08881CE
:10126000998189238F3F59F4DF91CF910895CE0161
:101270000E940A09CE01DF91CF910C946603CE0142
:101280000E9426048111F3CF0E94BE0E882361F3D1
:101290008A81882349F38091EA0382FDE5CF82E0C9
:1012A000DF91CF910C94980FCF93DF9300D000D0B3
:1012B0000F92CDB7DEB70F900F900F900F900F9059
:1012C000DF91CF910895CF93DF93CDB7DEB7289705
:1012D0000FB6F894DEBF0FBECDBF28960FB6F894B8
:1012E000DEBF0FBECDBFDF91CF91089508950C945E
:1012F00076090E9477098093BE010C9442060895F6
:101300000C9479099091BE01892B0C9479099091E4
:10131000BE0189230C9479099091BE0189270C9410
:1013200079090C9476090C9491090E949309809391
:10133000BD010C94420680E00C94950991E001C037
:10134000990F8A95EAF7892F0C94950921E030E0EE
:1013500001C0220F8A95EAF78091BD01822B0C947F
:10136000950921E030E001C0220F8A95EAF7209527
:101370008091BD0182230C94950921E030E001C0E9
:10138000220F8A95EAF78091BD0182270C94950976
:101390009091BD01892B0C9495099091BD018923F1
:1013A0000C9495099091BD0189270C949509089595
:1013B0009E3F71F1292F220F220FE22FE90FE80F34
:1013C0008E2F877041E001C0440F8A95EAF7E695B9
:1013D000E695E69583E0E89FF0011124EF54FE4F77
:1013E00030E020E070E05191DF011197CB01022E37
:1013F00002C0969587950A94E2F7817081958527BA
:10140000842385278C932F5F3F4F2330310559F775
:1014100008959E3F51F1292F220F220FE22FE90F4D
:10142000E80F9E2F9770E695E695E69583E0E89F96
:10143000F0011124EF54FE4F50E040E080E0219194
:1014400030E0092E02C0369527950A94E2F7217004
:101450003327042E01C0220F0A94EAF7822B4F5F34
:101460005F4F4330510559F7089580E00895CF92BA
:10147000DF92FF920F931F93CF93DF936C01009144
:10148000BD018091BE01082BC7E0D0E010E0FC2E2A
:10149000C8010C2E02C0959587950A94E2F780FD4D
:1014A0000CC02197A0F7F12C8F2DDF91CF911F91C8
:1014B0000F91FF90DF90CF900895B6018C2F0E947E
:1014C0006A12019771F3F0CFCF93DF93EC010E9482
:1014D000370ABE01DF91CF910C946A121F93CF930C
:1014E000DF93EB019091AE01992331F0CB01DF91B5
:1014F000CF911F910C94640A882379F0CB010E944C
:10150000370A182F682FCE010E94D809BE01812FFB
:10151000DF91CF911F910C946A12CB010E94090AAE
:10152000182FF4CFCF93DF93C091BF018091C001FA
:101530008C1303C0DF91CF910895D0E0FE0183E0CA
:10154000EE0FFF1F8A95E1F7EF53FE4F20813181A7
:101550004281538164817581868197810E946309EC
:101560002196C770E3CF2091010230910202409191
:10157000030250910402609105027091060280916D
:101580000702909108020C9463092091BF01909189
:10159000C001291302C080E0089530E0F90153E052
:1015A000EE0FFF1F5A95E1F7EF53FE4F518156138F
:1015B00006C05081581303C05281541304C02F5FDA
:1015C0003F4F2770E6CF81E00895EF92FF920F938F
:1015D0001F93CF93DF9380910602807F31F4809137
:1015E0000302C091BF01811119C0DF91CF911F91FA
:1015F0000F91FF90EF900895209104023091050221
:10160000D0E02115310541F0809101029091020254
:10161000482F49234F3F39F42196C7708091C0016C
:101620008C13EACFE2CF8E0143E0000F111F4A95E1
:10163000E1F7F801EF53FE4F41814913EDCF90815F
:101640009813EACF82818111E7CFE380F480E21A18
:10165000F30A60E081E092E00E944D0361E072E0F5
:101660000E94C01EE816F906B8F6809106028F7037
:10167000806180930602F801EA53FE4F80818F70EB
:101680008061808381E092E00E942809DF91CF9100
:101690001F910F91FF90EF900C94920A4F925F92DE
:1016A0006F927F928F929F92AF92BF92CF92DF9272
:1016B000EF92FF920F931F93CF93DF93CDB7DEB7D7
:1016C00065970FB6F894DEBF0FBECDBF8C0185E0E5
:1016D000F801DE01519601900D928A95E1F7D8014B
:1016E0004C9011965C90119712967C9012971396DD
:1016F000ED90FC9060E081E092E00E944D036C016F
:1017000081E0882E82E0982E20910402309105021B
:101710002115310541F08091010290910202892347
:101720008F3F09F0E3C171100CC1C8010E94280964
:101730007EC0B801C6010E94C51E811109C2EF28F2
:1017400029F0852D84218F3F09F011C180E0B82F49
:10175000B170EB2E80FF29C0472D652D842D0E948E
:10176000C50AF82E811121C0498A5A8A89899A8925
:101770000E94640A292F22952F70223050F02430C5
:1017800078F49F7051F0F8019581907F31F46F2CBF
:101790001AC19F7011F08823D1F3805E8830B8F3AE
:1017A000C8010E942809FE2CF2CF772009F40BC152
:1017B00080910602816080930602612C04C1892B0E
:1017C00049F08091010290910202282F29232F3F96
:1017D00009F011C1C8010E947706882309F4A5CF3A
:1017E000772009F4A2CF809106028032A0F02091E8
:1017F0000102309102023A8729871B86FD86EC861A
:101800008E878091070290910802988B8F87CE0176
:1018100009960E94280988E0F801A1E0B2E0019051
:101820000D928A95E1F70E94E50A0E94B30A6624A8
:101830006394C9C0211112C07E2DFD8AEC8AA201D9
:10184000672D8D890E94540981E092E00E94280949
:1018500088E0F40111928A95E9F798C18091040219
:1018600090910502892B49F080910102909102022A
:10187000282F29232F3F09F0E6C0C8010E947706D0
:10188000882309F452CF772009F44FCF80910602C4
:10189000803208F220910102309102023A832983BA
:1018A0001B82FD82EC828E83809107029091080258
:1018B00098878F83CE010196ACCF60E081E092E003
:1018C0000E944D0361E072E00E94C01EA816B90696
:1018D00050F5672C772009F428CF8091040290916D
:1018E0000502892B49F08091010290910202282F74
:1018F00029232F3F09F0CDC0C8010E94770681112E
:101900008ACF80910602816080930602C8010E94FE
:10191000280959C088E0F801A1E0B2E001900D92D9
:101920008A95E1F750C07E2DFD8AEC8AA201672DD1
:101930008D890E94540988E0F40111928A95E9F793
:101940007FC0C8010E947706682E882309F4EDCE77
:1019500088E0F801A1E0B2E001900D928A95E1F7EC
:1019600081E092E00E9490050E94E50A69C081E052
:101970008725EDCE81E08725F4C0D80111962C9102
:101980002913DEC0F80190819813DAC02091070274
:1019900030910802868197812817390709F0D0C055
:1019A0007110CEC0809106028F7080618093060214
:1019B0000E94B30A81E092E00E9428098091060209
:1019C000D80115968C93862D65960FB6F894DEBFD8
:1019D0000FBECDBFDF91CF911F910F91FF90EF9080
:1019E000DF90CF90BF90AF909F908F907F906F903F
:1019F0005F904F900895F80121812913EBCED80113
:101A00009C919813E7CE2091070230910802169618
:101A10008D919C9117972817390709F0DBCE80919B
:101A200006027110D7CE15968C93C8010E94280922
:101A300088E0F801A1E0B2E001900D928A95E1F70B
:101A40000E94B30AC0CFD80111962C91291315CF4B
:101A5000D8019C91981311CF209107023091080270
:101A600016968D919C9117972817390709F005CF85
:101A7000711003CF8091060215968C93C8010E94C5
:101A80002809E1E0F2E088E0DF011D928A95E9F79C
:101A90009ACFF801218129132FCFF8019081981353
:101AA0002BCF209107023091080286819781281759
:101AB000390709F021CFB801C6010E94CE1E81115D
:101AC00029CF8091060280FD25CF982F907F09F4C1
:101AD00021CFD80115968C931597903F09F4A5CF87
:101AE000982F907F905F8F70892B9DCF609003021D
:101AF0005701A21AB30A662009F4DFCE60E081E044
:101B000092E00E944D0361E072E00E94C01E2091AD
:101B10000602207FA816B90608F08CCE8091040238
:101B20009091050221114BCE672C892B49F08091B1
:101B3000010290910202282F29232F3F09F01DCF87
:101B4000B801C6010E94C01E843F914008F4F1CD47
:101B5000E114F10429F0852D84218F3F09F00ACF8B
:101B600080E080FFECCD472D652D842D0E94C50AB5
:101B7000882309F4E4CD81E092E00E94280988E0FE
:101B8000E1E0F2E0DF011D928A95E9F70E94B30AD5
:101B900014CECF93DF93CDB7DEB760970FB6F8942E
:101BA000DEBF0FBECDBF29873A874B875C876D8725
:101BB0007E878F87988BCE0109960E944E0B8823D3
:101BC000D1F08C859D85892B39F029853A85822F26
:101BD00083238F3F09F074C08091BF019091C001B1
:101BE000891348C060960FB6F894DEBF0FBECDBF14
:101BF000DF91CF91089588E0FE013996DE011196BC
:101C000001900D928A95E1F78C859D85892B21F3B2
:101C100089859A8589238F3FF9F2A091C001B0E0B0
:101C2000CD010196877099272091BF0128171906C9
:101C300071F40E9454061092C0011092BF0188E016
:101C4000E1E0F2E0DF011D928A95E9F7C5CF93E06C
:101C5000AA0FBB1F9A95E1F7AF53BE4F98E0FE0164
:101C6000319601900D929A95E1F78093C0010E9400
:101C7000920AB2CFB8E08B9FC00111248F539E4FC0
:101C80000E944E0B882309F4ADCFE091BF0128E0FC
:101C9000E29FF0011124EF53FE4F208131814281F8
:101CA000538164817581868197810E946309809147
:101CB000BF0190E00196877099278093BF018CCF78
:101CC0004B855C856D857E858F8598890E9463092B
:101CD00083CF682F80910001909101010C94E3293A
:101CE000682F80910001909101010C94E529809169
:101CF0000001909101010C94E72980910E02089552
:101D00008091490490914A04892B89F00E947E2A8F
:101D100020910C0230910D02AC01421B530B81E06B
:101D20002091490430914A044217530708F480E097
:101D30008170089580910B0285958595859508950C
:101D400080910B02877008950E947E2A20910902DB
:101D500030910A02821B930B2091490430914A046E
:101D60008217930748F080910B0282FB882780F945
:101D700091E089278170089580E0FCCF90910B025B
:101D8000977081E009F480E0089580911A02089527
:101D900090911A02892B80931A0208958095909150
:101DA0001A02982390931A02089510921A02089525
:101DB00080911902089590911902892B809319023C
:101DC000089580959091190298239093190208958F
:101DD00010921902089510921802089580910F022E
:101DE000089508950C94F10E90910E02981721F029
:101DF00080930E020C94F20E089580910E028823B7
:101E000029F010920E0280E00C94F20E08950895CD
:101E10000C94070FCF93C82F8091EA0382FD10C066
:101E200080910F028C1761F00E947E2A90930D0220
:101E300080930C02C0930F028C2FCF910C94080F4B
:101E4000CF91089580910F02882349F010920F02DC
:101E500010920D0210920C0280E00C94080F08956D
:101E6000E0910001F091010180911A028083E091DC
:101E70000001F0910101808190911902892B8083EA
:101E8000E0910001F0910101808190911802892B6D
:101E9000808380910F028823E9F08091490490911A
:101EA0004A04892B29F00E94800E81110E94220F82
:101EB000E0910001F0910101808190910F02892B46
:101EC000808380910001909101010E949B298111E2
:101ED0000E94220F80910001909101010C946429CD
:101EE00008950C94700F9091EA0392FD16C098E04B
:101EF000899F90011124622B60930B020E94A60916
:101F00000E947E2A90930A028093090280910B021C
:101F10008595859585950C94710F0C94A609109262
:101F20000B0210920A021092090280E00C94710FC9
:101F300090910B028095892380930B02282F2770A4
:101F400091F4282F082E000C330B9217130659F02A
:101F50009091EA0392FD07C08595859585950E942D
:101F6000B1090C948F0F08959091EA0392FB2227F8
:101F700020F9281769F080FB92F99093EA03809189
:101F8000E9039091EA030E94FF0F82E00C94980FFE
:101F900008958091EA0382FB882780F991E08927E0
:101FA0000C94B40F81E00C94B40F80E00C94B40F47
:101FB0006FEF7FEF90E080E00C94CC3290E080E017
:101FC0000E94A8328A3E9E4F11F40C94D41480E0F3
:101FD000089582E090E00C94A03283E090E00C94AD
:101FE000A032CF9384E090E00E94A032C82F82E21A
:101FF00090E00E94A032982F8C2FCF910895CF931C
:10200000C92F682F84E090E00E94AE326C2F82E2EC
:1020100090E0CF910C94AE32AB01BC018FE090E028
:102020000C94C032AB01BC0183E190E00C94C0324F
:1020300060E070E0CB010C94121060E070E0CB0126
:102040000E940C100C9418106AEE7EEF90E080E075
:102050000E94CC3260E082E090E00E94AE3260E00C
:1020600083E090E00E94AE321092BE0160E084E016
:1020700090E00E94AE3260E082E290E00E94AE32D8
:1020800060E085E090E00E94AE3260E086E090E0A3
:102090000E94AE326FEF87E090E00E94AE3240E0E7
:1020A00050E0BA0188E090E00E94C03260E08DE02C
:1020B00090E00E94AE3240E050E0BA0188E190E04A
:1020C0000E94C03260E087E190E00E94AE3240E0C2
:1020D00050E0BA018CE190E00E94C03270E060E014
:1020E00080E290E00E94CC3240E050E0BA0188E10A
:1020F00090E00E94C03280E00E94ED140E9413150F
:102100000C941D100C942410682F8EE090E00C9419
:10211000AE320E948A2A6093290270932A02809329
:102120002B0290932C0260932502709326028093D9
:1021300027029093280208950E948A2A6093290218
:1021400070932A0280932B0290932C0260932102B9
:10215000709322028093230290932402089585B7FE
:10216000806885BF85B7806885BF08950895089504
:102170000C94B61008950C94BA100E94AF1088E425
:1021800093E10E944E290E9492180E94EC1D0E9429
:10219000B7100C94B81081E008950C94CB100895FA
:1021A00008950E94CF100C94D0100E94752A0E94AE
:1021B00022150E9428140E947B260C94BB10AF921B
:1021C000BF92CF92DF92EF92FF920F931F93CF9324
:1021D000DF93CDB7DEB72A970FB6F894DEBF0FBEF8
:1021E000CDBF0E943D1481110E9489108CE1A82E60
:1021F00082E0B82E10E000E0C02E802F0E948213F3
:10220000E82EF501F1905F01F81609F451C08091B4
:102210002D0281FD0E9488138F2D8E25D12CFF2445
:10222000F394982F9F2109F43EC00E94CD1088237B
:1022300099F0DE82CF82EF2081E009F480E0888788
:102240000E947E2A8160782F9A8789874E815F81DC
:1022500068858A850E942405F801E45EFD4F80812F
:10226000F826F0820E948E2681110E949C100E9406
:10227000582990911B02891791F10E945829809347
:102280001B022A960FB6F894DEBF0FBECDBFDF91BA
:10229000CF911F910F91FF90EF90DF90CF90BF9063
:1022A000AF900C941205D394FF0CF5E0DF12B9CF78
:1022B0000F5F1F4F0530110509F09ECF8FEF898307
:1022C0008A831B820E947E2A8160782F9D838C8363
:1022D00049815A816B818D810E942405C3CF2A9642
:1022E0000FB6F894DEBF0FBECDBFDF91CF911F9127
:1022F0000F91FF90EF90DF90CF90BF90AF90089537
:10230000CF93DF930E946E12EC01811522E59207B4
:10231000E8F5811531E5930708F0ACC0883E9105DA
:1023200010F5803E910570F5883A910570F4853A74
:10233000910508F078C08130910521F1009711F1E5
:10234000049700F5D0E0C0E01DC08F3B9105D0F7A9
:10235000C85AD0E0CC0FDD1FCE5ADE4F0990D8818D
:10236000C02DD4640FC0811540E5940708F066C005
:10237000C11580E4D80708F05EC0CE019A9581159A
:102380009F4100F7CE01DF91CF910895811536E589
:10239000930718F5811545E5940708F083C0C1152A
:1023A00084E5D80708F079C09C2F969596959E01F4
:1023B00023703327C115D34508F461C0C1E0D0E0D4
:1023C00002C0CC0FDD1F2A95E2F730E2939FC001D7
:1023D0001124C82BD92BDA68D5CFC1158AE5D807C7
:1023E00078F4C11599E5D90708F066C0C11528E54C
:1023F000D20708F4A7CFDC2FCC27C06FD06AC2CF9A
:10240000CE0190568115904208F09CCF8D2F8F7190
:102410000E94051390E0982F882788279F719C01C0
:102420002C2BE90147C0C55AD0E0C058DE4FC88107
:10243000D0E0D064A7CFDF70D06AA4CFE4E0969557
:102440008795EA95E1F783702C2F269526952370C2
:1024500040E2249F90011124382B8C2F8370C1E01F
:10246000D0E002C0CC0FDD1F8A95E2F7C22BD32B40
:10247000DC6888CFD82FCC27C16FD06A83CFC1E06A
:10248000D0E002C0CC0FDD1F2A95E2F720E2929F38
:10249000C0011124C82BD92BEBCFDC2FCC27C46F64
:1024A000D06A70CF0E940513C82FD0E0DC2FCC2754
:1024B000CC27DF71D06266CF8C2F8F700E940513FE
:1024C00034E0D695C7953A95E1F7CF709C2FEC0193
:1024D000D06958CF0E94B11C0C94801182389105AC
:1024E000B1F1B0F48133910509F475C048F4893233
:1024F000910509F469C08A32910509F473C0089501
:102500008533910509F459C08933910501F1089586
:10251000833E9105A9F138F4803E9105F9F0823EA1
:10252000910549F10895863E9105A9F1873E9105EF
:10253000C9F1843E910519F52091EA0321FF1FC0DE
:102540008091E90384FD14C087EE90E00895209106
:10255000E9032370A1F080EE90E008952091E90353
:1025600020FD47C03091EA0330FF09C024FF44C07A
:1025700090E080E004C02091E90322FDF7CF0895A8
:102580002091E90322FD3BC03091EA0330FDE3CF07
:1025900024FFF5CFEDCF2091E90323FFF0CF24FDF9
:1025A000E7CFD2CF2091E90323FD2CC03091EA037D
:1025B00031FFEECF84EE90E008952091E90325FFEE
:1025C000DECF89E290E008952091E90325FFD7CF7F
:1025D00085E390E008952091E90326FFD0CF8AE2B9
:1025E00090E008952091E90326FFC9CF81E390E0B0
:1025F000089589E390E0089583EE90E0089582EED7
:1026000090E0089586EE90E008959091E90392FF9E
:1026100006C0282F28712830F9F4877F846093FF43
:1026200006C0282F28712831F1F4877E846120911B
:10263000EA0320FF06C0382F38713830D9F4877F7D
:10264000816021FF06C0282F28712831D1F4877EB0
:10265000816194FD877E0895282F24712430F9F636
:102660008B7F8860DCCF282F2471243101F78B7E8B
:102670008861DDCF382F3171313019F78E7F886056
:10268000E0CF282F2171213121F78E7E8861E1CFA3
:1026900080E008950C94D80F0E943D148FE39CE9CC
:1026A0000197F1F700C000000E943D1480E00E94F5
:1026B000821380FF04C00E944A130C94C92A089513
:1026C0000C944C130E94DE0F811102C00E948210F4
:1026D0000E94E90F80932D020E94F10F9093EA036C
:1026E0008093E9030E9460130E94ED0F0E9480090D
:1026F0008091BD010C94930908950C947C13089566
:102700000C947F13E82FF0E0E051FC4F8081089596
:10271000089580EA8A95F1F7089500C008950C9411
:102720008913F894E82FE295EF70F0E031A1282F9B
:102730002F7081E090E001C0880F2A95EAF7982F6A
:102740009095932391A392A1892B82A378940895C5
:10275000CF93DF93C8E8D1E089918F3F11F00E94B9
:10276000911381E0CD38D807B9F7C3E8D1E089915A
:102770008F3F11F00E94911381E0C838D807B9F754
:10278000DF91CF910895CF92DF92EF92FF920F9356
:102790001F93CF93DF93EC01D62E062F10E0C801D4
:1027A00088579E4F7C01FC0180818F3F09F445C012
:1027B000F894E82FE295EF70F0E091A18F7021E09E
:1027C00030E001C0220F8A95EAF7892F822B81A37E
:1027D00082A12095282322A378940E948D13E3E8F8
:1027E000F1E048E851E031E0C12C21912F3F71F137
:1027F000A22FA295AF70B0E090968C9190E02F70D0
:1028000002C0959587952A95E2F780FD1FC0832F1A
:10281000C82A330F4E175F0741F7F70180818F3FBA
:1028200011F00E94911361E0C11001C060E08D2D94
:102830000E948F13C00FD11FC882DF91CF911F91CB
:102840000F91FF90EF90DF90CF90089580E0E0CF60
:102850000E94A81385E0E0EFF3E0DF01982F1D92BE
:102860009A95E9F7EBEEF3E0DF011D928A95E9F71F
:1028700085E00E9484140C949703FF920F931F939A
:10288000CF93DF9300D000D00F92CDB7DEB78E018B
:102890000F5F1F4F85E0F80111928A95E9F7F12C3F
:1028A0006F2DC8010E94C313F394F5E0FF12F8CF17
:1028B00045E050E0B8018BEE93E00E947332FF24B4
:1028C000F394009709F4F12C892B41F085E0F8018D
:1028D000ABEEB3E001900D928A95E1F72F2D45E024
:1028E00060EF73E08BEE93E00E9485140E949D03DD
:1028F0008F2D0F900F900F900F900F90DF91CF9131
:102900001F910F91FF9008950895FF920F931F93C9
:10291000CF93DF93F82E092F162FD72FC42F222302
:1029200049F081E0809330020E947E2A90932F022A
:1029300080932E02809130028823A1F080912E0294
:1029400090912F020E94962A059760F0EF2DF02FAC
:10295000A12FBD2FCE0FDF2FD11DEC17FD0741F4A6
:1029600010923002DF91CF911F910F91FF90089547
:1029700081918D93F2CF0E947E2C0E94D5100C94F1
:102980008A2C0E948E2C0E94DF100C94A82C0E948E
:10299000082A0E94652C0E94BD100E94BB140E9450
:1029A000C1140E94D110FBCF83E290E00E94A032BC
:1029B000883189F484E290E00E94A032843359F493
:1029C00085E290E00E94A03291E0863D09F090E01F
:1029D000892F8170089580E0FCCFCF93C82F6FEFCF
:1029E000811168E183E290E00E94AE326FEFC11185
:1029F00064E384E290E00E94AE326FEFC11166EDB5
:102A000085E290E0CF910C94AE32089586E290E09A
:102A10000E94A032682F70E090E080E0089586E286
:102A200090E00C94AE3280E00E94ED1460E070E023
:102A3000CB010E940F150E94C61B0E94241D81E03D
:102A40000C94ED140E9405150E94D414811102C04B
:102A50000C9413150895CF93FB01C281CC2309F187
:102A60009C0122513F452031310520F582510E94C1
:102A7000341DC0E08C2FCF91089581E00E94A609FB
:102A800043E062E081E00E948E03F3CF81E00E9488
:102A9000B10943E062E081E00E948E03EBCF82E067
:102AA000F6CF8031FFE59F0789F381319F45B9F368
:102AB000C1E0E0CF8031EFE59E07F9F281319F451B
:102AC000C9F682E0DBCF2FEFFC0120830895EF925F
:102AD000FF920F931F93CF93DF93EC01062F888112
:102AE00020912D0330912E03232B79F08E3F09F096
:102AF00057C08981833020F08550833008F050C062
:102B0000602FCE010E9496184BC08C3009F4A1C0F2
:102B1000D0F4843009F484C060F4823009F44AC0EF
:102B200008F071C08130C9F1602FCE010E94631599
:102B300037C0863009F48AC008F47DC08A30A0F717
:102B40008FEF88832DC0803109F4A0C0D8F48E3077
:102B500009F48BC008F481C08091020190910301B7
:102B6000892BF1F06B8170E06D317105C8F48981BA
:102B70009A81AE014C5F5F4F9827892798270E9462
:102B8000F91C0EC0823109F487C008F482C0833179
:102B900009F493C08E3F41F6B3CF198289E08A834E
:102BA000602FCE01DF91CF911F910F91FF90EF9099
:102BB0000C943E2B8981823071F0833079F0813022
:102BC00009F0B2CF0E948A2A0E944F326A837B8327
:102BD0008C839D83E5CF0E940615F6CF809102017C
:102BE00090910301892BE1F27E0182E0E80EF11C55
:102BF00010E0812F0E948213F70181937F011F5FF4
:102C00001530B9F7CDCF8981823009F08DCF6A8137
:102C10007B818C819D810E944F320E940F15C0CF15
:102C20004B816A8189810E94BF1A9827892798273A
:102C30009D838C83B5CF2C813D813227232732277A
:102C40004B816A8189810E94E11AAACF0E94C61B2A
:102C5000A7CF0E94CD1C8983A3CF0E94CF1C9827A9
:102C6000892798279A8389839BCF6B8170E06D3188
:102C7000710508F095CF89819A81AE014C5F5F4F55
:102C80009827892798270E94D21C8ACF0E94241D4A
:102C900087CF0E94AD1ADFCF6B8170E06D31710577
:102CA00008F07ECF89819A81AE014C5F5F4F9827F3
:102CB000892798270E94591C73CF6B8170E06D3172
:102CC000710508F06DCF89819A81AE014C5F5F4F2D
:102CD0009827892798270E947E1C62CF8F929F9207
:102CE000AF92BF92CF92DF92EF92FF920F931F931A
:102CF000CF93DF93CDB7DEB72A970FB6F894DEBF38
:102D00000FBECDBF09E612E0F12CE12C8CEEC82EEF
:102D100087E1D82E96E1A92E98E1B92E23EF822ED5
:102D200026E1922EF801D182C082B382A2829582DE
:102D30008482F58AE48ABE016F5F7F4F8E2D0E94E8
:102D4000761B892B29F489859A85F801938B828BD0
:102D5000FFEFEF1AFF0A0A5E1F4F88E0E816F10442
:102D600009F72A960FB6F894DEBF0FBECDBFDF91EC
:102D7000CF911F910F91FF90EF90DF90CF90BF9078
:102D8000AF909F908F900895CF93DF9300D000D0A5
:102D90000F92CDB7DEB7909346048093450481151A
:102DA00020E2920748F40F900F900F900F900F9031
:102DB000DF91CF910C94F9028EEF89838A831B8275
:102DC0000E947E2A8160782F9D838C8349815A815D
:102DD0006B818D810F900F900F900F900F90DF916E
:102DE000CF910C9424050F931F93CF93DF938C0105
:102DF000EB0169E173E08C2F0E94761B892BA1F413
:102E00008091650490916604019798F4DD27CD5D6B
:102E1000DC4F8881F80110821882833041F180F400
:102E2000813091F08230B9F0DF91CF911F910F91F5
:102E30000895EFE9FFE03197F1F700C00000E4CF1B
:102E40008430D1F0853081F78091190390911A0375
:102E5000009751F306C080911B0390911C030097CB
:102E600099F3DF91CF911F910F910C94C41680912B
:102E70001D0390911E03F3CF80911F0390912003B7
:102E8000009779F72091190330911A0380911B0361
:102E900090911C0321153105D9F2009711F7C90152
:102EA000E0CFCF93DF9300D000D00F92CDB7DEB745
:102EB0009093460480934504811520E2920748F4DC
:102EC0000F900F900F900F900F90DF91CF910C9477
:102ED000E2028EEF89838A8381E08B830E947E2ABF
:102EE0008160782F9D838C8349815A816B818D818C
:102EF0000F900F900F900F900F90DF91CF910C9447
:102F00002405CF92DF92EF92FF921F93CF93DF932E
:102F1000CDB7DEB72A970FB6F894DEBF0FBECDBF90
:102F2000E5EFF3E080E5DF011D928A95E9F7E1E343
:102F3000F2E088E3DF011D928A95E9F785EFC82E5C
:102F400083E0D82E7F0110E0F701D182C082BE015C
:102F50006F5F7F4F812F0E949E1B892B79F488E041
:102F6000FE013196D60101900D928A95E1F789858F
:102F70009A85D70113969C938E931297BAE0CB0E45
:102F8000D11CE7E0EE0EF11C1F5F1830E9F62A961F
:102F90000FB6F894DEBF0FBECDBFDF91CF911F916A
:102FA000FF90EF90DF90CF900895CF93DF93EC01E7
:102FB0000E9451178091650490916604019728F44E
:102FC000CE01DF91CF910C94C416EFE9FFE0319769
:102FD000F1F700C00000F2CF0F931F93CF93DF9360
:102FE0008C01862F69E173E00E94761B892BC9F45E
:102FF000C0911903D0911A03209799F0F8018081AC
:10300000833069F4CE010E94D517CE010E94D517F6
:10301000CE01DF91CF911F910F910C94D517843081
:10302000B8F7DF91CF911F910F9108950F931F93E0
:10303000CF93DF938C01EB0169E173E08C2F0E9449
:10304000761B892B09F064C0FE01FF27D8018C9103
:10305000ED5DFC4F8130D9F419969C911997992315
:1030600011F080830CC01A969C919923D1F382E0D1
:10307000808380911B0390911C030097D9F4809169
:10308000190390911A03009709F442C013C08230CB
:10309000E9F519968C91199781112DC01A968C918A
:1030A00081110EC083E0808380911D0390911E03E7
:1030B000009719F1DF91CF911F910F910C94511747
:1030C00084E0808380911F0390912003009791F703
:1030D0008091190390911A030097F9F00E94D51777
:1030E00080911B0390911C03009721F78091190395
:1030F00090911A03DFCF85E080838091190390912E
:103100001A03009729F00E94D517F0CF86E080833C
:10311000DF91CF911F910F91089580911B039091A2
:103120001C03B1CF0E946E160C948117CF92DF92D0
:10313000FF920F931F93CF93DF93CDB7DEB72A97FC
:103140000FB6F894DEBF0FBECDBF8C01603269F5BB
:10315000DC011196EC911197EE3038F5F0E0EA5F62
:10316000FC4C0C94493288E0E9E1F1E0DE01119673
:1031700001900D928A95E1F780E2F80111928A950B
:10318000E9F784E0D8018C9311961C92119712965E
:103190001C92129713961C92139788E0FE013196A9
:1031A000149601900D928A95E1F72A960FB6F8943D
:1031B000DEBF0FBECDBFDF91CF911F910F91FF906A
:1031C000DF90CF90089588EFF801808311821282FA
:1031D0001382EBCF13968C911397682F70E0762FA4
:1031E000662712968C91860F972F911D092E000C41
:1031F000AA0BBB0B45E0880F991FAA1FBB1F4A955E
:10320000D1F7AC01BD01405E5F4F6F4F7F4F481754
:1032100059076A077B0748F2883F9105A105B10568
:1032200020F6493F51056105710520F048EF50E057
:1032300060E070E0481B590BBC016C5D7D4FC8011C
:103240000E946A32B2CFFC01F280D38040E06D2D43
:103250008F2D0E94091B982789279827D8018D93C5
:103260009C9341E06D2D8F2D0E94091B9827892783
:103270009827F8019383828398CF15962D913C91DE
:10328000169732272327322714964C9114971396BA
:103290006C91139712968C910E94341B86CF40E25A
:1032A00050E06FEF70E00E94893280910201F801D6
:1032B000808380912D03818378CF81E090E090938B
:1032C0002E0380932D0382E390E090932C03809350
:1032D0002B030E947E2A69CF809102018C938091FA
:1032E0002D0311968C93119780912B0312968C933A
:1032F0005CCF40E250E0BC01FC01828193810E94DE
:10330000341E53CFBC016F5F7F4F4FE150E01296E8
:103310008D919C910E94661EF801808346CFBC016E
:103320006C5F7F4F4CE150E012968D919C910E9412
:103330008E1EF2CF0E94111E38CF12968C911297DA
:10334000823009F442C0E8F48823A9F1813009F001
:103350002CCFF80183812AE0F22E9E012F5F3F4F90
:103360006901D901EF2D1D92EA95E9F7B9010E9493
:10337000761BD8018D93F60101900D92FA94E1F736
:1033800014CF8330B9F1843009F00FCF13968C91AC
:103390009AE0F8013496DE01119601900D929A950B
:1033A000E1F7BE016F5F7F4F0E94B21BF80180837F
:1033B0000E948117FACE80E2F80111928A95E9F70E
:1033C00088E08C9311968C93F0CE13968C919AE0B2
:1033D000F8013496DE01119601900D929A95E1F76D
:1033E000BE016F5F7F4F0E948A1BF80180830E949D
:1033F0006E16DBCE13968C919AE0F92EFE01319673
:103400006F01DF01EF2D1D92EA95E9F7B6010E94E9
:103410009E1BAFCFAF92BF92CF92DF92EF92FF92FF
:103420000F931F93CF93DF93B82EA62EC090BD01AC
:103430008091BE01C82AC7E0D0E0D12CF12CE12C4C
:10344000D701C6010C2E04C0B695A7959795879510
:103450000A94D2F780FF20C04A2D6B2D8C2F0E943A
:10346000091B8C0181309105B9F00E9451178FE33F
:103470009CE90197F1F700C00000C8010E94C41642
:1034800081E0DF91CF911F910F91FF90EF90DF903E
:10349000CF90BF90AF900895219790F64A2D6B2D55
:1034A00080E00E94091BEC010E9451178FE39CE908
:1034B0000197F1F700C00000CE01E0CFCF93DF937A
:1034C000FB012281211130C0EC01D755CF3FD1053E
:1034D00009F050F569E173E08C2F0E94761B892B6F
:1034E00019F586E18C9FF0018D9FF00D1124E759AD
:1034F000FD4F86818130E1F48091190390911A0388
:10350000892B91F080911B0390911C03892B61F012
:1035100080911D0390911E0320911F033091200381
:10352000822B932B892B61F081E0DF91CF9108955D
:103530008230D1F780911D0390911E03892BA1F356
:1035400026E12C9FC0012D9F900D112487599D4F7E
:10355000FC01108A0E94F927E7CF84E0089550E02B
:10356000440F551F9AE0699F400D511D112492E3AD
:10357000899F400D511D1124CA01879608950F930C
:103580001F93CF93DF938430C8F46530B8F445308F
:10359000A8F40E94AF1A8C010E94A032C82FD0E07C
:1035A000DC2FCC27C80101960E94A0329E01282B57
:1035B000C901DF91CF911F910F91089590E080E0B4
:1035C000F8CF0F931F93CF93DF93E9018430E0F49A
:1035D0006530D0F44530C0F421153C4531F42091DC
:1035E000020130910301232B79F00E94AF1A8C0164
:1035F0006D2F0E94AE326C2FC8010196DF91CF91E2
:103600001F910F910C94AE32DF91CF911F910F91CA
:1036100008950F931F93CF93DF93843010F56111BA
:1036200020C04230F0F424E0829F8001112450E059
:10363000440F551F040F151F01511F4FC8010E9451
:10364000A032C82FD0E0DC2FCC27C80101960E9401
:10365000A0329E01282BC901DF91CF911F910F91BC
:10366000089590E080E0F8CF0F931F93CF93DF93FE
:103670008901843028F5611123C0423008F52115F5
:103680003C4531F42091020130910301232BC1F01C
:1036900094E0899FE001112450E0440F551FC40FAE
:1036A000D51FC151DF4F612FCE010E94AE32602F76
:1036B000CE010196DF91CF911F910F910C94AE3204
:1036C000DF91CF911F910F9108958232910520F4DF
:1036D00081509F4F0C94A03280E008958232910572
:1036E00020F481509F4F0C94AE3208959B01883096
:1036F00070F49AE0899FB00111246F5D7E4F4AE01B
:1037000050E0C9010E94903290E080E008958FEF70
:103710009FEF08959B01883070F49AE0899FB00173
:1037200011246F5D7E4F4AE050E0C9010E94D23201
:1037300090E080E008958FEF9FEF08959B0188301F
:1037400070F49AE0899FB00111246F587E4F4AE0CF
:1037500050E0C9010E94903290E080E008958FEF20
:103760009FEF08959B01883070F49AE0899FB00123
:1037700011246F587E4F4AE050E0C9010E94D232B6
:1037800090E080E008958FEF9FEF08957F928F92F1
:103790009F92AF92BF92CF92DF92EF92FF920F93E0
:1037A0001F93CF93DF93CDB7DEB764970FB6F8942E
:1037B000DEBF0FBECDBFA0900201B090030181E03B
:1037C00090E090930301809302018CEAC82E80E080
:1037D000D82E10E0760100E015C0F4012591349157
:1037E000472D602F812F0E94E11A82E0880E911CE4
:1037F000739495E07912F1CFEAE0EE0EF11C0F5FC1
:10380000053019F04701712CE8CF21E030E040E0AD
:1038100060E0812F0E94341B21E030E041E060E055
:10382000812F0E94341B1F5FF2E3CF0ED11C143096
:1038300089F60E94111E1C861B861E861D86188A0C
:103840001F861A8A198A88EC90E09C8B8B8B10E07B
:10385000BE01655F7F4F812F0E948A1B1F5F18305A
:10386000B9F7CE0101967C018AE0F70111928A95A1
:10387000E9F710E0B701812F0E94B21B1F5F1830DB
:10388000C9F7B0920301A092020164960FB6F894B2
:10389000DEBF0FBECDBFDF91CF911F910F91FF9083
:1038A000EF90DF90CF90BF90AF909F908F907F90E0
:1038B0000895EF92FF920F931F93CF93DF93EC0144
:1038C0008A017C01E60EF71ECE018796CE15DF0534
:1038D00039F4DF91CF911F910F91FF90EF900895F0
:1038E000C83CD10540F40E94A032F80180830F5FEC
:1038F0001F4F2196E9CFF8011082F9CFCF92DF92C6
:10390000EF92FF920F931F93CF93DF938C016A0185
:10391000883C910580F488EC90E0801B910B861721
:10392000970748F07801E60EF71EE801CE0187966A
:10393000CE15DF0549F4DF91CF911F910F91FF90D4
:10394000EF90DF90CF900895C83CD10540F4FE0180
:10395000E01BF10BEC0DFD1D60810E94AE32219643
:10396000E5CF462F20912D0330912E03232B91F488
:103970007E3F39F46E3F71F4809145049091460486
:103980000895843038F4753028F4653018F4672FC2
:103990000C94BF1A90E080E0089580E108958FE3D1
:1039A00092E00895EF92FF920F931F93CF93DF93CE
:1039B000EC018A017C01E60EF71ECE018F539E4F6B
:1039C000CE15DF0539F4DF91CF911F910F91FF9054
:1039D000EF900895CF3322E0D20740F40E94A03246
:1039E000F80180830F5F1F4F2196E7CFF801108207
:1039F000F9CFCF92DF92EF92FF920F931F93CF9365
:103A0000DF937C016A018C01060F171FEC01CE01C8
:103A10008F539E4FC017D10749F4DF91CF911F916B
:103A20000F91FF90EF90DF90CF900895CF3322E079
:103A3000D20740F4FE01EE19FF09EC0DFD1D608177
:103A40000E94AE322196E3CFCF93DF93C1ECD1E059
:103A500060E0CE010E94AE322196C11584E0D80705
:103A6000B9F7DF91CF910895BF92CF92DF92EF9295
:103A7000FF920F931F93CF93DF9300D000D0CDB769
:103A8000DEB7F82E2FE0281740F08FEF93E00E946A
:103A9000A03201EC11E08823D1F00F900F900F902D
:103AA0000F90DF91CF911F910F91FF90EF90DF90DA
:103AB000CF90BF900895011544E0140771F3C80139
:103AC0000E94A032811101C0FA940F5F1F4FF110C4
:103AD000F2CF19821A821B821C82BB24BA9478010D
:103AE0005FEFE51AF50AC8010E94A03289831A82A5
:103AF000882399F2813009F047C0680182E0C80E3E
:103B0000D11CC7010E94A032E82E8A83882329F2A3
:103B1000C6010E94A032F82E8FEF8E0D833068F41C
:103B20006801E3E0CE0ED11CFB82FF2021F0CE0124
:103B300001960E9407058601D2CFF4E0EF12FBCF79
:103B4000680124E0C20ED11CC80103960E94A03275
:103B5000FF2009F4A2CF882309F49FCF8150990B4D
:103B6000B89E9001B99E300D11244F2D4150550B38
:103B7000CA01820F931F0197F0F2EFE9FFE031973E
:103B8000F1F700C00000F7CFCE0101960E940705B3
:103B90006701D1CF80914704909148040C949C21F7
:103BA0000F931F93CF93DF9307E414E0D0E0C0E0BE
:103BB000CE010E94651BF80161918F01861719F0F3
:103BC000CE010E946E1B2196C232D10589F7DF918A
:103BD000CF911F910F9108950F931F93CF93DF9370
:103BE00007E414E0D0E0C0E0CE010E94651BF801BC
:103BF00081938F012196C232D105B1F7C2E2D3E0A1
:103C0000FE0185919491009711F0FC010995289689
:103C1000F3E0C237DF07A1F7DF91CF911F910F913A
:103C20000895E7E4F4E0128E138E8FEA90E091831A
:103C3000808385E0848F88E893E19383828382E3A5
:103C400090E0978B868B88EC90E0918F808F158E1B
:103C50008AE090E0978F868F80E590E091A380A323
:103C60000E94D01D0C94EC1DEF92FF920F931F93B6
:103C7000CF93DF937C01EB018A016FEF70E0CE01FF
:103C80000E9489322CE133E0ACE6B3E090E080E0C2
:103C9000AC014E5F5F4F0417150788F0F90165917D
:103CA0007491E616F70630F48C0F9D1FFC017183AA
:103CB0006083CA01285F3F4FA217B30749F7DF911E
:103CC000CF911F910F91FF90EF900895DC01CB01F0
:103CD0002CE133E0F90165917491A617B70749F01B
:103CE000285F3F4F63E02C363607A1F78FEF9FEF39
:103CF0000895B9016E5F7F4FFB01A591B4914A17FA
:103D00005B07A0F3FB0145915491F901349665914D
:103D100074910E94803290E080E00895CF93DF9309
:103D2000CCE1D3E0FE01259134918217930741F055
:103D3000289623E0CC36D207A9F78FEF9FEF1DC05E
:103D4000CE010296FC012591349142175307A8F346
:103D5000FC0145915491FE013496859194910E9405
:103D600080320E94D01DFE01369685919491009775
:103D700011F0FC01099590E080E0DF91CF9108956A
:103D800080915F0490916004089580916404817033
:103D900008958091640486958170089580916404EB
:103DA00082FB882780F908958091640483FB88272B
:103DB00080F9089580915D0490915E0408958832A1
:103DC000910538F48E319105E8F40497A0F480E071
:103DD00008958933910558F48D32910510F48B972D
:103DE000B1F78091620482FB882780F908C084368D
:103DF0009105B9F3ECCF809162048295817091E0D6
:103E0000892708958091620483FB882780F9F7CF82
:103E10008091620485FB882780F90895809162046F
:103E200086FB882780F90895CF93DF93EC01FB018F
:103E30008281882309F420C1C330FDE5DF07C8F57E
:103E4000CA3F9CE5D90730F49E0122503C452431FD
:103E5000310598F50E94F10F9093EA038093E903EE
:103E6000C031FCE5DF0709F4E0C008F061C0C830EC
:103E70009CE5D90709F4CBC088F5C430FCE5DF0721
:103E800009F4B3C0E8F4C2309CE5D90709F4A7C02F
:103E90008091E9038260C330DC4509F4A3C08091BE
:103EA000E9039091EA030E94FF0F0E94540680E00C
:103EB00004C0C136EDE5DE0769F2DF91CF910895C8
:103EC0008091E9038061C630FCE5DF0709F48AC010
:103ED00008F48FC08091E903806284C08091E90377
:103EE0008D7FCC309CE5D90709F47CC070F48091BB
:103EF000E9038C60CA30FCE5DF0709F473C008F4FD
:103F00008AC08091E9038E7F6DC08091E903877F2D
:103F1000CE309CE5D90709F465C08091E9038B7F19
:103F2000CF30DC4508F45EC08091E9038F7E5AC033
:103F3000CC3FFCE5DF0709F474C040F5C4319CE5D3
:103F4000D90709F48AC058F4C231FCE5DF0709F447
:103F500074C008F46EC08091E903837F43C0CA3FF8
:103F60009CE5D90709F449C008F04DC0C531DC45CE
:103F700009F095CF8091E90382FB992790F921E020
:103F8000922790FB82F990FB83F92CC0C1158DE537
:103F9000D80709F458C088F48091EA038360CE3FC3
:103FA000ECE5DE0769F18091EA038D7FCF3FDC45C8
:103FB00038F18091EA038C7F23C0C2308DE5D807A9
:103FC00009F458C008F452C0C136DD4509F067CF86
:103FD0009091E903892F8F7E94FF806103C08091C7
:103FE000E90381608093E9035ACF8091E9038460FB
:103FF000F9CF8091E9038860F5CF8091EA03816071
:104000008093EA034CCF8091EA038260F9CF8091DC
:10401000E9038064E7CF0E9454068091E903806839
:10402000E1CF8091EA038E7FEBCF8091E9038F7D12
:10403000D9CF8091E9038F7BD5CF0E945406809120
:10404000E9038F77CFCF8091EA03982F90959170F5
:104050008E7F892B90FB81F9D3CF0E9454069091DB
:10406000E903892F97FB87F98058BCCF81E00E9434
:10407000841015CF80E0FBCF81E01FCF8091040139
:10408000877F8093040182E00E94E10E8091040109
:1040900084FF06C08F7E8093040182E00E94C80ED8
:1040A0008091040185FF06C08F7D8093040180E22A
:1040B0000E94C80E0C94300FCF93DF93EC0166235F
:1040C00019F082E00E94DB0ECE019056811520E2AD
:1040D000920720F0905E8115904108F4DD27CE0113
:1040E000DF91CF910C94E2029C013056211540E201
:1040F000340720F0305E2115304108F499270C94E4
:10410000F902FC0123E0F695E7952A95E1F7EE71B7
:10411000FF27E15DFC4F20813181AC014F705527B5
:1041200081E090E002C0880F991F4A95E2F766236C
:1041300029F0822B932B918380830895809590950D
:1041400082239323F8CFFC0123E0F695E7952A9587
:10415000E1F7EE71FF27E15DFC4F8F70992721E0B9
:1041600030E002C0220F331F8A95E2F780819181EF
:104170002823392381E0232B09F480E00895DF927E
:10418000EF92FF920F931F93CF93DF93EC017B018C
:10419000D42E89018091040182FF86C020915703AB
:1041A000309158032C173D0719F0209709F07CC077
:1041B000909104019B7F9093040161E091FD10C0F8
:1041C0008091590390915A03A701481B590B61E054
:1041D00080910501909106014817590708F460E0A5
:1041E00061708091040160FB81F980930401C90131
:1041F0000E9481200E94C50E81FF08C080910401A9
:1042000080618093040182E00E94CE0E0E94C50E60
:1042100085FF08C08091040180628093040180E2E0
:104220000E94CE0E6091040166956170A801809194
:104230005703909158030E945C20D11014C08091C4
:10424000650490916604019740F5609104016695BC
:104250006170A80180915703909158030E947420C7
:104260000E943E2030C0B8018091570390915803BE
:104270000E94081F882319F3B80180915703909179
:1042800058030E940E1F8111DACFDF91CF911F9149
:104290000F91FF90EF90DF900895EFE9FFE03197E5
:1042A000F1F700C00000CFCFCE010E94A320A801EB
:1042B000682FCE010E94742080915703909158037B
:1042C0008C179D0769F2F0925A03E0925903DDCFF3
:1042D0008091620480FF1EC08091040182FF1AC099
:1042E0000E947E2A2091590330915A03AC01421B4F
:1042F000530B20910501309106014217530750F0EE
:104300002FE433E041E0BC018091570390915803C2
:104310000C94BF20089590910401892F8E7F90FF07
:104320008160809304010C943E20809104018E7F73
:10433000809304010C943E20909306018093050124
:104340000895CF92DF92EF92FF920F931F93CF9336
:10435000DF93EC017B018091620480FD0BC011E0D2
:10436000812FDF91CF911F910F91FF90EF90DF9000
:10437000CF9008950E947E2A6C01F70182818823E4
:1043800091F18091040182FF08C02FE433E040E006
:10439000B60190E080E00E94BF20CB31FCE5DF0752
:1043A000C9F0CC312CE5D207D9F0CA318CE5D80759
:1043B00011F40E948B21CE0190568115E0E29E07F8
:1043C00020F0905E81159041E0F410925803109215
:1043D0005703C5CF80910401816080930401EBCF26
:1043E0000E949521E8CF809104018F7EC13ED105C6
:1043F00031F0C53ED105B9F5809104018F7D8093E0
:1044000004018091040180FFAACFB701CE010E9470
:10441000DF1EF7011281882309F4C8C0112309F4B3
:10442000BEC00E94C50E182F0E94EE0E812B8D7FFC
:10443000B9F110925803109257038091620481FDE4
:104440002FC060E0CE010E948120A70160E0CE0174
:104450000E945C200E94EE0E8D7F0E940A0F82E077
:104460000E94980F72C0CE019056811520E29207EB
:1044700020F0905E8115904120F68091040182FF2A
:104480006ECFB701CE010E94C91E811168CF2FE403
:1044900033E040E0B60190E080E00E94BF205FCFB3
:1044A00088E0F701AFE4B3E001900D928A95E1F75F
:1044B00010925103109253031092520380915703AC
:1044C00090915803C817D90709F04AC0B701CE0127
:1044D0000E94081F882309F443C08091040181FDD4
:1044E00036C08091590390915A038601081B190B1D
:1044F000B70180915703909158030E94C01E08177E
:10450000190770F50E94C50E81FF08C08091040153
:1045100080618093040182E00E94CE0E0E94C50E4D
:1045200085FF08C08091040180628093040180E2CD
:104530000E94CE0E6091040166956170A701809182
:104540005703909158030E945C2010E009CFB701F7
:1045500080915703909158030E940E1F8111C1CF83
:104560000E94C50E182F0E94EE0E812B909104011F
:1045700081FB91F9909304010E94EE0E8D7F0E94C1
:104580000A0FD0935803C0935703D0925A03C09296
:1045900059038091040184608093040160CF9701E6
:1045A00040E0B601CE010E94BF20DACE11110DCF3E
:1045B000D6CE08950F931F93CF93DF938091C603B8
:1045C000E0915B031CE081111AC0DF91CF911F9134
:1045D0000F91089501E00E0F00935B03CE2FD0E002
:1045E000E19FF0011124EA59FC4F83819481892BCA
:1045F00029F08081918189238F3FE9F4E02F809118
:10460000C603E81738F31092C60310925B03DDCFA0
:1046100018968D919C918F3F9807D1F061E00E9490
:10462000D9221C9FF0011D9FF00D1124EA59FC4F67
:1046300014821382E3CF1C9FD0011D9FB00D112463
:10464000AA59BC4F16968D919C911797892B01F30F
:104650002081318142815381648175818681978176
:104660000E94C90DDECF1092C8031092C70320919B
:10467000080130910901E1E3F2E090E080E02817C1
:10468000390709F408954581411102C01482168248
:1046900001963796F4CFDC01609164038091650345
:1046A000962F891301C00895292F30E0F901EE0FEC
:1046B000FF1FE45AFC4F408151814A175B07A1F468
:1046C00087E08A9FA0018B9F500D11244F5C5D4FA6
:1046D00081E0FA0184839613E6CF2F5F3F4F23706A
:1046E00033272093640308952F5F3F4F922F9370D9
:1046F000D8CF6F927F929F92AF92BF92CF92DF926C
:10470000EF92FF920F931F93CF93DF93DB011496E9
:104710002C911497211169C0A090C603E6E6F3E03E
:1047200030E020E0B12C66246394712C2A1508F047
:1047300047C0C284D384ED90FC9011976FEF7FEF58
:10474000912C492D50E08A01000F111F0E0D1F1DE5
:10475000E801088119810115110531F0C016D10653
:1047600009F4BA019394EDCF6F3F7607D1F1E301DD
:1047700002C0CC0FDD1F6A95E2F7BC2AB30102C06C
:10478000660F771F9A94E2F7AB0141505109B416B6
:10479000150629F512964D915C9113976CE0629F76
:1047A000F001639FF00D1124EA59FC4F57834683B3
:1047B0002EEF208321839187808721E015962C930B
:1047C000DF91CF911F910F91FF90EF90DF90CF90ED
:1047D000BF90AF909F907F906F900C944B2314826A
:1047E00013822F5F3F4F3C96A1CFDF91CF911F9156
:1047F0000F91FF90EF90DF90CF90BF90AF909F9080
:104800007F906F9008951F93CF93DF93C0916403BF
:1048100017E0809165038C1307C00E94DA22DF91B4
:10482000CF911F910C943323D0E0FE01EE0FFF1FB8
:10483000E45AFC4F80819181189FB001199F700D3F
:1048400011246F5C7D4F0E9479232196C370E1CFC4
:104850000F931F93CF93DF93DC012D913C91119720
:1048600040E090E080E0E82FF0E0EE0FFF1FE20F65
:10487000F31FC081D1812097B9F0FB010081118124
:1048800090E005C0CE17DF0709F441E09F5FE92FF4
:10489000F0E0EE0FFF1FE00FF11F0190F081E02D1F
:1048A000309781F78F5FDFCF442349F0981708F4E2
:1048B000DB01CD01DF91CF911F910F910895B0E001
:1048C000A0E0F7CF80910701882341F18091C903CF
:1048D0009091CA03009711F10E94962A2091C70374
:1048E0003091C80328173907C8F490916403809168
:1048F0006503981759F00E9403241092C803109280
:10490000C7031092CA031092C90308950E94DA22C5
:104910001092CA031092C9030C9433230895109285
:10492000CA031092C9031092070180916503809316
:1049300064030E9433230C94DA22809107018111D1
:104940000C948F2481E08093070108952F923F9269
:104950004F925F926F927F928F929F92AF92BF928F
:10496000CF92DF92EF92FF920F931F93CF93DF933B
:10497000CDB7DEB72A970FB6F894DEBF0FBECDBF16
:104980006C012B01FB011281873FFCE59F07F9F4C5
:10499000112321F181E080930701812F2A960FB620
:1049A000F894DEBF0FBECDBFDF91CF911F910F9165
:1049B000FF90EF90DF90CF90BF90AF909F908F903F
:1049C0007F906F905F904F903F902F900895883F19
:1049D0002CE5920709F04DC0111148C001E312E027
:1049E000F12CE12C1986AA24A394B12C8091080102
:1049F00090910901E816F90608F445C0F201828198
:104A0000882309F466C1F985FF2309F462C10E9475
:104A10007E2A9093CA038093C9038091C60388308D
:104A200008F591E0980F9093C60398E0F201DE013B
:104A3000119601900D929A95E1F72CE0829FC001AA
:104A400011248A599C4F28E0FE013196DC01019027
:104A50000D922A95E1F72FEF3FEFFC013187208778
:104A6000D386C28611E0F9851F2797CF0E948F2435
:104A700094CF893F9C4509F0B1CF112309F4AECF03
:104A80000E949D248ACFF8012081318166246A9496
:104A9000762C212C822D90E0FC01EE0FFF1FE20FFF
:104AA000F31F408151814115510531F0C416D506DF
:104AB00009F43C012394EECF312CFFEF6F167F06F3
:104AC00009F448C0F801448130900701832D411159
:104AD00080E0F82FF1703F2EF2018281882309F4E3
:104AE00096C0332009F493C0B801C7010E94DA1EB2
:104AF0004C01F8018581811113C0950101C0220F7D
:104B00006A94EAF78681822B86838091C70390910D
:104B1000C8038815990520F49092C8038092C703B2
:104B2000C50102C0880F991F2A94E2F70197F80186
:104B300026812817190671F48091C9039091CA0340
:104B4000009789F00E94962A8816990660F421E061
:104B5000F8012483F985F329F9872FEFE21AF20A85
:104B6000095F1F4F43CF20906403309165033A875C
:104B700090E080E0EA852E1215C08017910751F36E
:104B8000822C912CF401EE0FFF1FE45AFC4FF182AE
:104B9000E082FFEF8F1A9F0A23E0822299248092FD
:104BA0006503D8CF822C912CF401EE0FFF1FE45A3D
:104BB000FC4F2081318147E0429FC001439F900D0F
:104BC0001124FC01EF5CFD4F3F01B801CF010E94B1
:104BD00028240097A9F021E0FC0124838017910785
:104BE00009F4B8CF2091640322120AC0681679062E
:104BF00039F494012F5F3F4F2370332720936403D0
:104C00003FEF831A930A482D4370242EB3CFF80147
:104C10009580868190E091101EC0950102C0220F00
:104C2000331F2A94E2F7215031092817390731F44C
:104C3000442309F44CC0C7010E944B23C50101C0A5
:104C4000880F6A94EAF7982F9095F8018681892356
:104C50008683392C7FCF9C01062C02C03595279581
:104C60000A94E2F7A90141705527BC01615071090E
:104C700086239723892B39F5452B29F1828193814E
:104C8000892BE1F01B821C821D821E82FEEFF983BC
:104C9000FA830E947E2A8160582F9D838C83F801BD
:104CA000828193818F83988729813A814B816D819D
:104CB0007E810E94C90DF8011582C0CF60E0C70156
:104CC0000E94D922F8CFF22FF1709F2EB7CF932CEC
:104CD000B5CF9091640380916503981719F00E94F5
:104CE0000324C0CE0E94DA221092CA031092C90394
:104CF0000E943323B7CE87988F9A2198299A8FB133
:104D000090E0880F892F881F990B199905C020E022
:104D1000822B8093CD03089522E0FACFE091CD035A
:104D2000EE0FEE0FE093CD038FB190E0880F892F47
:104D3000881F990B43B141FB222720F941FF02C094
:104D400022E030E0822BE82BE093CD03EF70F0E01F
:104D5000E357FE4F80819091CC03890F8093CC0361
:104D600020E0843054F08091CB038F5F8093CB039D
:104D700060E080E00E940A1A21E08091CC038D3F20
:104D800054F48091CB0381508093CB0361E080E0A9
:104D90000E940A1A21E08091CC03082E000C990B86
:104DA00064E070E00E9435328093CC03822F089536
:104DB000CF93DF93EB0186319C4509F03BC00E9405
:104DC000C50E982F9A7A2091610420FF04C0382FD5
:104DD000347409F090E021FF04C0382F317109F0DC
:104DE00090E022FF04C0382F387809F090E023FFCC
:104DF00003C0827209F090E08A81882389F081E003
:104E0000911101C080E08093CE0389E2911185E386
:104E10000E94690E0E94300F80E0DF91CF910895CB
:104E20008091CE03811104C089E20E94700EF2CFFE
:104E300085E3FBCF81E0F1CFAF92BF92CF92DF92BB
:104E4000EF92FF920F931F93CF93DF937C015B014F
:104E5000C42FD22FFC0182818823F9F04093D10323
:104E60000E947E2A9093D0038093CF0380E28C0F20
:104E7000883008F061C0C77081E001C0880FCA9512
:104E8000EAF7DF91CF911F910F91FF90EF90DF90A4
:104E9000CF90BF90AF900C9426061091D1031413BD
:104EA00040C08091CF039091D0030E94962A6C015C
:104EB000B701C5010E94C01EC816D90690F5C0E210
:104EC000CD0F1D17B9F080E2810F883040F41770C4
:104ED00081E001C0880F1A95EAF70E942D06C830BC
:104EE00048F481E09D2F977001C0880F9A95EAF7EA
:104EF0000E942606802F0E941A06C830E8F4D77058
:104F000081E001C0880FDA95EAF7DF91CF911F9118
:104F10000F91FF90EF90DF90CF90BF90AF900C94E7
:104F20002D0680E28C0F883038F4C77081E001C014
:104F3000880FCA95EAF7E9CFDF91CF911F910F91C2
:104F4000FF90EF90DF90CF90BF90AF9008950F93B8
:104F50009C01CB01233F4CE5340759F1A8F4283DCF
:104F6000FCE53F0701F1293D4CE53407D1F1273D30
:104F70003C4591F406E221EE41EE67ED7CE50E94AE
:104F80001C2780E00F910895253FFCE53F07E9F0DD
:104F9000B0F0263F3C45F9F0FC018281882339F1CD
:104FA0001092D103EFCF07E225EE45EE68ED7CE5E8
:104FB000E6CF06E221EE40EE63EF7CE5E0CF07E2CC
:104FC00025EE44EE64EF7CE5DACF06E221EE42EE18
:104FD00065EF7CE5D4CF07E225EE46EE66EF7CE593
:104FE000CECF08E221E045EE69ED7CE5C8CF81E057
:104FF000C9CFCF93DF93EC018989811115C081E07E
:10500000898B8F810E94C80E88850E94DB0E0E94CA
:10501000300FEA81FB81309739F06C897D89CE01B0
:105020000696DF91CF910994DF91CF910895EF9289
:10503000FF920F931F93CF93DF93EC018A85811129
:1050400034C0EB80FC8087E5F81A26E12E9DC00174
:105050002F9D900D1124DC01A759BD4F1496ED91A1
:10506000FC911597309731F054966D917C91815950
:105070009D4F099586E18E9D80018F9D100D112415
:1050800007591D4FF80187810E94CE0EF8018085D7
:105090000E94E10E0E94300F188219861B861E8224
:1050A0001D821092D3031092D203DF91CF911F91F2
:1050B0000F91FF90EF900895DF92EF92FF920F9380
:1050C0001F93CF93DF937C01FB018281882399F0AA
:1050D00080910A0190910B01019669F0C9E6D2E036
:1050E00010E000E0DD24D39480910A0190910B013F
:1050F0008017910744F4DF91CF911F910F91FF909A
:10510000EF90DF9008958E818823C1F089859A857C
:105110008E159F0539F48091D2039091D3038E159B
:105120009F0561F0DF86FC86EB86CE010E94F927A1
:10513000CE0106960E9417280E94E80E0F5F1F4FAF
:105140006696D2CFEF92FF920F931F93CF93DF9388
:105150007C0197558F3F910509F0E0F520910A01F8
:1051600030910B012817390724F490930B01809399
:105170000A01FB01228136E1389F8001399F100D21
:105180001124E801C759DD4F288B92818E81992324
:1051900049F1FA86E9868F5F8E830E947E2A9E8778
:1051A0008D870E94EE0E8F830E94C50E88870E9415
:1051B000D80E9885892B8887E881F981309731F05E
:1051C0006C897D89C80181599D4F0995F092D3035F
:1051D000E092D20381E0DF91CF911F910F91FF9078
:1051E000EF9008958823B1F38989882399F3C80142
:1051F00081599D4F0E941728EDCFEF92FF920F9398
:105200001F93CF93DF9380910A0190910B01C0E02F
:10521000D6E10196C9F5DF91CF911F910F91FF90D3
:10522000EF900895D09FF001D19FF00D1124E75920
:10523000FD4FE288F388E114F10439F470E060E096
:10524000818592850E94C01E7C01D09FF001D19F74
:10525000F00D1124E759FD4F86818823A1F0858543
:1052600096850E94962AE816F90668F4CD9F80017B
:105270001124C80187599D4F0E94F927C8018159FF
:105280009D4F0E941728CF5F0C2F10E080910A01DC
:1052900090910B01801791072CF6BDCF9093AD0133
:1052A0008093AC0108959093D9038093D803089517
:1052B000E091D803F091D903309721F00190F0816B
:1052C000E02D099480E00895E091D803F091D9038E
:1052D000309721F00280F381E02D09940895209108
:1052E000D6033091D7032817390771F09093D7036D
:1052F0008093D603E091D803F091D903309721F041
:105300000680F781E02D099408952091D40330910F
:10531000D5032817390771F09093D5038093D403F0
:10532000E091D803F091D903309721F00084F18502
:10533000E02D099408959C012E5F3F4FAC01485F1A
:105340005F4F80E02417350709F40895F901919122
:105350009F019923B9F38F5FF5CF662349F0FC01D4
:10536000329608962191261729F0E817F907D1F708
:1053700080E0089581E008959C01FC0132969FEF42
:1053800080E04191461751F09F3F19F4411101C04F
:10539000982F8F5F8630A9F79F3F09F40895290F52
:1053A000311D97FD3A95F90162830895FC0132960B
:1053B00008962191261303C0DF0111971C92E8176C
:1053C000F907B9F708950C94BC290C94D6290296D4
:1053D00026E0FC0111922A95E9F7089508950C94AE
:1053E000EE29811105C081E08093DA030C94EF2946
:1053F00082E0FACF83E08093DA030C94EF290C94D7
:10540000F12981E08093DA030C94EF290C94012AAE
:10541000089580917104843031F10E94A5031092A7
:10542000DB0388E190E020E40FB6F894A895809320
:1054300060000FBE2093600083B7817F846083BFCC
:1054400083B7816083BF7894889583B78E7F83BF4D
:105450000FB6F894A89580916000886180936000F1
:10546000109260000FBE089508950895CF930E9492
:10547000342A0E943D140E94352AC0E08C2F0E94DD
:105480008213811105C0CF5FC530C1F7CF91089558
:1054900081E0FCCF0E9454060C9433041F921FB687
:1054A0001F9211248F939F93AF93BF938091DB033F
:1054B000811113C08091690490916A04A0916B04DA
:1054C000B0916C044196A11DB11D80936904909325
:1054D0006A04A0936B04B0936C04BF91AF919F9149
:1054E0008F911F901FBE1F90189582E084BD93E09E
:1054F00095BD9AEF97BD80936E0008952FB7F894ED
:105500008091690490916A04A0916B04B0916C043D
:105510002FBF08952FB7F8946091690470916A04C1
:1055200080916B0490916C042FBF08959C014FB73C
:10553000F8948091690490916A04A0916B04B091F1
:105540006C044FBF821B930B089578941F921FB673
:105550001F9211248F939F93AF93BF9380916904FF
:1055600090916A04A0916B04B0916C040196A11D06
:10557000B11D8093690490936A04A0936B04B09367
:105580006C04BF91AF919F918F911F901FBE1F9090
:10559000189587E797E7909301088093000888E1C2
:1055A0009AE00FB6F894A895809360000FBE909390
:1055B0006000FFCF8091E70308950895CF93DF93B4
:1055C000EC0181E08093E9008FEF9091E800815039
:1055D00095FD06C095ED9A95F1F700008111F5CF84
:1055E0008091E80085FF14C050E040E068E070E082
:1055F000CE010E94552D8091E8008E778093E800BF
:1056000088E0FE01AFEDB3E001900D928A95E1F7DD
:10561000DF91CF9108958093DC037093DE03609354
:10562000DD03809171048430F9F48093E9008FEFF9
:105630009091E800815095FD06C095ED9A95F1F79F
:1056400000008111F5CF8091E80085FF0DC050E08A
:1056500040E063E070E08CED93E00E94552D809176
:10566000E8008E778093E8000895BC0184E00C94F4
:105670000B2BBC0183E00C940B2B0895CF93FC0102
:10568000603221F580917104843001F5C091E90008
:10569000CF702091EC00922F917020FD90E8C92BE3
:1056A00082E08093E9008091E80080FF0CC050E028
:1056B00040E060E270E0CF010E94552D8091E8004B
:1056C0008E778093E800CF70C093E900CF91089562
:1056D00080917004811109C00E94342F0E94912F83
:1056E0008091E20084608093E2000895109270043B
:1056F00008950C94012A60916D0481E0611101C04C
:1057000080E00C94FA299091710481E0943009F0C2
:1057100080E060916D040C94FF2942E061EC81E02F
:105720000E94B02E42E261EC84E00E94B02E42E280
:1057300061EC82E00E94B02E42E260EC83E00E94C5
:10574000B02E9091710481E0943009F080E0609176
:105750006D040C94F12980917304833009F462C0C4
:1057600030F48130D9F1823009F49EC008958A3036
:1057700009F48AC08B3009F470C0893009F051C037
:1057800080917204813209F04CC08091760490912E
:105790007704009719F0029709F043C08091E80060
:1057A000877F8093E8008091E80082FF36C0909167
:1057B000F3008091F200029731F48091F100813082
:1057C00011F0863021F48091F1008093E7038091FD
:1057D000E8008B778093E8000C94E42E80917204AB
:1057E000813AF9F48091E800877F8093E800809106
:1057F000760490917704892B61F468E08FED93E053
:1058000070E00E94F32D8091E8008B778093E80090
:10581000089560E090E080E0F3CF80917104811101
:10582000C2CF089580917204813AD9F780917604AD
:1058300090917704892BA9F78091E800877F809366
:10584000E8008091E80080FFFCCF809118018093F0
:10585000F1008091E8008E77BDCF80917204813293
:1058600001F78091760490917704892BD1F680918D
:10587000E800877F8093E8000E94E42E8091740402
:10588000809318010C94540680917204813249F679
:105890008091E800877F8093E8000E94E42E809149
:1058A00075048093E803089580917204813A09F0A9
:1058B000B8CF8091E800877F8093E8008091E8006E
:1058C00080FFFCCF8091E803C2CF84B7877F84BF7D
:1058D0000FB6F894A895809160008861809360006D
:1058E000109260000FBE80E890E00FB6F8948093AD
:1058F0006100909361000FBE0C94062A0E94342F21
:105900000E94912FE2EEF0E08081846080837894A1
:105910000C941A328CE091E00C945329809171041C
:105920008530A9F480917104853011F00C944A2AD5
:105930000E94092A80916F048823A1F30E94362ACD
:10594000882381F30E943F2D0E945406EBCF0895D7
:10595000CF93DF93CDB7DEB7A0970FB6F894DEBF35
:105960000FBECDBF80917104843009F583E0809330
:10597000E9008091E80082FF1AC08091E80090E081
:1059800085FF09C050E040E060E270E0CE01019682
:105990000E94A42D91E08091E8008B778093E8002D
:1059A000992329F060E2CE0101960E946715A09626
:1059B0000FB6F894DEBF0FBECDBFDF91CF91089533
:1059C0000C94E22C292F33272330310521F168F480
:1059D0002130310509F449C02230310509F44AC0AB
:1059E00090E080E030E020E029C02132310581F1F3
:1059F00022323105A9F76330710590F7FB01EE0FF4
:105A0000FF1FE056FE4F2081318163567E4FFB0120
:105A1000808190E013C099278130910599F000971B
:105A200041F08230910589F00397D1F6ECE6F3E07E
:105A300002C0EAECF3E0849190E09F01FA01318327
:105A400020830895EEEAF3E0F6CFEAE8F3E0F3CF3F
:105A50006330710528F6660F771FFB01EA55FE4F8C
:105A60002081318189E090E0E9CF82E190E029E274
:105A700034E0E4CF8BE590E02EEC33E0DFCF80E143
:105A800089BD82E189BD09B400FEFDCF8091D800B7
:105A90008F7D8093D8008091E00082608093E00049
:105AA0008091E00081FDFCCF0895AF92BF92CF922C
:105AB000DF92FF920F931F93CF93DF936C01EB0163
:105AC0008A010E94032FF82E811123C001151105B0
:105AD00039F0F80180819181C81BD90BC80ED91EFD
