:100000000C942F030C9476030C9476030C947603D3
:100010000C9476030C9476030C9476030C9476037C
:100020000C9476030C9476030C9469230C9425238A
:100030000C9466240C9476030C9476030C9476034B
:100040000C9476030C9476030C9476030C9476034C
:100050000C9476030C9442240C9476030C9476034F
:100060000C9476030C9476030C9476030C9476032C
:100070000C9476030C9476030C9476030C9476031C
:100080000C9476030C9476030C9476030C9476030C
:100090000C9476030C9476030C9476030C947603FC
:1000A0000C9476030C9476030C9476030501098076
:1000B000A101850319012AB700150126B700950192
:1000C00075108100C0050C0901A101850419012AE0
:1000D000A002150126A002950175108100C00660DE
:1000E000FF0961A1010962150026FF00952075082E
:1000F00081020963150026FF00952075089102C052
:1001000005010906A101050719E029E715002501E8
:10011000950875018102950175088101050719008F
:1001200029FF150026FF00950675088100050819AE
:10013000012905950575019102950175039101C08D
:1001400000000000000000000000000000000000AF
:10015000000000000000000000000000000000009F
:10016000000000007E0F00D4FFFFFFC700000078F2
:1001700000000000000000002A2B28000000000002
:100180000000000000000000000000290000000046
:100190002C1E3420212224342627252E362D3738B4
:1001A000271E1F202122232425263333362E3738BD
:1001B0001F0405060708090A0B0C0D0E0F1011127B
:1001C000131415161718191A1B1C1D2F3130232D47
:1001D000350405060708090A0B0C0D0E0F10111245
:1001E000131415161718191A1B1C1D2F3130354CF6
:1001F00000047F3F1F643214643214783C1E1E14C6
:100200000A05FD377A585A000004E6D6B4460200C3
:10021000210116000000742FE5A3E0017100D05DFC
:10022000003D8889C65436C3174FE4E20F5525C0F8
:1002300005C4642EC2C973EB3B55E6B910697A8FC9
:10024000DF9F3CB1850A3EC042A41E5230F066B426
:10025000F3D02779B972C2E02A3FF28A24FB3C111D
:100260003A4D5E9EEE156D6D12F1B7088479832FBD
:1002700071D5226B975027F6D85E97363A82E9C53A
:10028000E100F21E4BC3365405EA38DFC1696A6AE1
:10029000192DBD1EEDFFAC84F5B3624F3F794DCEF5
:1002A0004AEE07C1A58AD3527283D70AD07B39247C
:1002B000310CAE221A8A39F23E04EBCE1DD9B2FEC1
:1002C000E2E12CF662710C9B74E824345D3B23ED73
:1002D0006B2B4EF9D2EC808489951735991E2AB084
:1002E000BDB68CE0D67D28820DBE32A52BDDEEE4B6
:1002F00000009F5CBE8978D430120001EC01F2024C
:100300000000D62C58B0B1C467FB02000000000406
:10031000595A000101010101010101010202020219
:10032000020202020203030303030303030404049F
:100330000404040405050505050606060606070768
:1003400007070708080808090909090A0A0A0B0B20
:100350000B0C0C0C0D0D0D0E0E0E0F0F0F101011BF
:100360001111121213131414151516161717181845
:1003700019191A1A1B1B1C1D1D1E1E1F20202122AD
:1003800022232424252626272829292A2B2C2D2DF3
:100390002E2F30313232333435363738393A3B3C10
:1003A0003D3E3F404142434445464748494A4C4D03
:1003B0004E4F50515354555658595A5B5D5E5F61CC
:1003C0006264656668696B6C6D6F7072737577785F
:1003D0007A7B7D7E8082838587888A8C8E8F9193BD
:1003E0009596989A9C9EA0A2A3A5A7A9ABADAFB1E4
:1003F000B3B5B7BABCBEC0C2C4C6C9CBCDCFD1D4C9
:10040000D6D8DBDDDFE2E4E7E9EBEEF0F3F5F8FA6E
:10041000FDFFFFAA7F55402223252628292A2C2DBF
:100420002F3032333536383A3B3D3E404243454724
:10043000494A4C4E5051535557595A5C5E6062645C
:100440006668696B6D6F71737577797B7D7F81836A
:100450008587898A8C8E90929496989A9C9E9FA16B
:10046000A3A5A7A8AAACAEAFB1B3B4B6B8B9BBBC8C
:10047000BEBFC1C2C3C5C6C7C9CACBCCCDCED0D101
:10048000D2D2D3D4D5D6D7D7D8D9D9DADADBDBDBF9
:10049000DCDCDCDCDCDDDDDDDDDCDCDCDCDCDBDB9A
:1004A000DBDADAD9D9D8D7D7D6D5D4D3D2D2D1D0EE
:1004B000CECDCCCBCAC9C7C6C5C3C2C1BFBEBCBBEB
:1004C000B9B8B6B4B3B1AFAEACAAA8A7A5A3A19F63
:1004D0009E9C9A98969492908E8C8A898785838127
:1004E0007F7D7B79777573716F6D6B696866646208
:1004F000605E5C5A5957555351504E4C4A494745D6
:100500004342403E3D3B3A3836353332302F2D2C76
:100510002A2928262523221E001F00200021002230
:1005200000010001000100010001000100010001C3
:1005300000010001000100010001000100010001B3
:100540000001006F020000020002006B02000003C5
:10055000000100700200000400020055027705054A
:1005600000010071020000060002005702000007AF
:100570000002006D0200000800010072020000127B
:10058000000200730200001300020075020000095F
:10059000025B00030100A0FA09040000010301014D
:1005A0000009211101000122400007058103080014
:1005B0000A090401000203000000092111010001E1
:1005C0002222000705820320000107050303200003
:1005D00001090402000103000000092111010001CA
:1005E0002232000705840320000A120100020000E5
:1005F0000008EE5812120100010203011C037600EC
:10060000690061006C003A00660036003400630047
:100610003200620033006300000022036C006900B6
:10062000740074006C00650062006900670073006C
:10063000630072006F006C006C00340000001A034D
:100640005400770065006500740079004400610083
:1006500042006900720064000000040309041124D0
:100660001FBECFEFDAE0DEBFCDBF04B603FE27C06A
:100670008091A2029091A302A091A402B091A50240
:100680008730904BA740B04BD1F41092A202109249
:10069000A3021092A4021092A50214BE84B7877F11
:1006A00084BF0FB6F894A89580916000886180930C
:1006B0006000109260000FBEE0E0F8E3099511E0E1
:1006C000A0E0B1E0E8E1F8E502C005900D92A23AA1
:1006D000B107D9F722E0A2EAB1E001C01D92A23A27
:1006E000B207E1F70E948D240C94D82B0C940000E3
:1006F000E8EDF0E080818E7F80831092E20010921E
:10070000DA001092E100A0EEB0E08C9181608C9351
:1007100080818F77808319BCA7EDB0E08C918E7FAC
:100720008C9380818F7E808310928802089520911F
:10073000E4003091E50095E6A9012091EC00822FBC
:10074000817020FF06C08091E80080FF06C080E035
:1007500008952091E80022FD1AC080919502882317
:1007600089F0853089F08091EB0085FD0FC02091E4
:10077000E4003091E50042175307F9F29150E1F699
:1007800084E0089582E0089583E0089581E008956B
:10079000EF92FF920F931F93CF937C018B010E94E6
:1007A0009703C82F811117C08091E80085FD0BC009
:1007B0008091E8008E778093E8000E949703882359
:1007C00099F3C82F08C0F70181917F018093F10050
:1007D0000150110949F78C2FCF911F910F91FF9074
:1007E000EF9008958091970287FF13C08091E800F1
:1007F00082FF06C08091E8008B778093E80004C0F8
:10080000809195028111F2CF0895809195028823FD
:10081000D9F38091E80080FFF8CF8091E8008E77CF
:10082000ECCF982F9093E900242F762F50E0891772
:1008300031F07091EC002091ED005091F00021FD1D
:1008400007C09F5F973071F78093E90081E00895BA
:100850003091EB003E7F3093EB003091ED003D7F17
:100860003093ED003091EB0031603093EB007093EA
:10087000EC002093ED005093F0002091EE0027FD56
:10088000E0CF80E00895CF92DF92EF92FF920F9336
:100890001F93CF93DF93C8EDD0E088818F7E88834C
:1008A000E7EDF0E080818160808384E082BF81E0B9
:1008B0008093880288818E7F888302EE10E0F801A1
:1008C00010821092DA0081EEC82ED12CF60110822F
:1008D00088818F77888388818068888388818F7DED
:1008E000888319BC1092950210929602109294027D
:1008F0001092930290EEE92EF12CF70180818B7F0C
:10090000808388818160888342E060E080E00E948B
:100910001104F60180818E7F8083F80180818160DF
:100920008083808188608083F70180818E7F8083CF
:10093000888180618883DF91CF911F910F91FF9013
:10094000EF90DF90CF900895FC0180919D029091EF
:100950009E0286179707A0F06115710529F4909102
:10096000E8009E779093E80090E06115710551F4DE
:10097000911108C08091E80082FF34C080E00895A2
:10098000BC01F2CF809195028823C1F18530C1F17D
:100990008091E80083FD30C08091E80082FDEACFBD
:1009A0008091E80080FFE1CF8091F3002091F20078
:1009B000382F6115710519F02830310558F091E094
:1009C0002830310509F090E02091E8002E7720933F
:1009D000E800CBCF81918093F100615071092F5FC6
:1009E0003F4FE7CF80919502882341F0853041F059
:1009F0008091E80083FFBECF81E0089582E00895F2
:100A000083E0089508950895089580918A020895D5
:100A100087E797E7909301088093000888E19AE0C0
:100A20000FB6F894A895809360000FBE9093600075
:100A3000FFCF2FB7F8948091810290918202A0910C
:100A40008302B09184022FBF08959C01FC0132966D
:100A50009FEF80E04191461751F09F3F19F44111FB
:100A600001C0982F8F5F8630A9F79F3F09F4089542
:100A7000290F311D97FD3A95F90162830895209160
:100A80007E0230917F022817390771F090937F0220
:100A900080937E02E0917C02F0917D02309721F0FC
:100AA0000084F185E02D0994089520917A02309117
:100AB0007B022817390771F090937B0280937A02AA
:100AC000E0917C02F0917D02309721F00680F78161
:100AD000E02D09940895E0917C02F0917D02309719
:100AE00021F00190F081E02D099480E0089580913B
:100AF00055029091560290931D0180931C01089518
:100B0000FA01811101C0FB01099480912702982FFD
:100B10009E7F61F4817082608093270280912A0217
:100B2000803B18F08FEA80932A0208958A34B0F34C
:100B300081708864F1CFAF92BF92DF92EF92FF9203
:100B40000F931F93CF93DF93082F162FE901E42F04
:100B5000F0E0EE5EFC4F611110C0E4915E2F4E2F6D
:100B60004983E8835A83DF91CF911F910F91FF90C2
:100B7000EF90DF90BF90AF900895E62EF12C449156
:100B8000D42EE42FF0E026E0829FC00111242FEF45
:100B900030E0B9010E94D62A802F90E0880F991F7B
:100BA00055E5569FD001579FB00D11248A1B9B0B12
:100BB000982F990F890F5901AE18BF08AE9ED0012A
:100BC000AF9EB00DBE9EB00D11245B2F189F80010B
:100BD0001124012F11275901A01AB10AAE9E8001DC
:100BE000AF9E100DBE9E100D11245901A81AB10818
:100BF000AE9CC001AF9C900DBE9C900D1124892F1E
:100C00009927281B390B2E9FC0012F9F900D3E9FC7
:100C1000900D1124E92F62307105A1F050F4611597
:100C2000710509F49DCF6130710581F0EB2F512FD3
:100C300097CF6430710569F080F06630710509F472
:100C40008FCFF4CFE42F4B2F592F8ACFE42F412F92
:100C500087CFEB2F542F492F83CF4B2F5D2DE12FC3
:100C60007FCF80E008959091FB0192FF06C0282F6E
:100C700028712830F9F4877F846093FF06C0282FFD
:100C800028712831F1F4877E84612091FC0120FFD6
:100C900006C0382F38713830D9F4877F816021FF42
:100CA00006C0282F28712831D1F4877E816194FDF8
:100CB000877E0895282F24712430F9F68B7F886071
:100CC000DCCF282F2471243101F78B7E8861DDCFA2
:100CD000382F3171313019F78E7F8860E0CF282F9F
:100CE0002171213121F78E7E8861E1CFCF93DF938F
:100CF000EC0182389105A9F1D8F58133910509F409
:100D000096C048F58932910509F48AC08A9709F49A
:100D100095C0C11522E5D20708F0B6C0C11531E56E
:100D2000D30708F026C1C83ED10508F09CC0C03EDC
:100D3000D10560F5C83AD10508F087C0C53AD1059C
:100D400008F0EFC0C130D10509F12097F9F0C430A7
:100D5000D105E0F440C08533910509F45AC0C99724
:100D6000C1F68091FB01837089F0C0EED0E00EC027
:100D7000833E910599F170F4803E910501F1823E28
:100D8000910539F68091FB0182FD21C0CE01DF91F2
:100D9000CF910895863E910561F1873E910571F1ED
:100DA000843E910509F0B5CF8091FC0181FFEECF23
:100DB0008091FB01C7EED0E084FD0DC0E7CF8091AC
:100DC000FB0180FD07C19091FC0190FFDFCFC3EED6
:100DD000D0E084FFDBCFD0E0C0E0D8CF8091FB0132
:100DE00082FDFBC09091FC0190FDBFCF84FFCECF70
:100DF000F2CF8091FB0183FDDDCFC8CF8091FB0155
:100E000083FDEEC09091FC0191FFF0CFC4EED0E0E5
:100E1000BDCF8091FB0185FFB9CFC9E2D0E0B6CF4D
:100E20008091FB0185FFB2CFC5E3D0E0AFCF8091C9
:100E3000FB0186FFABCFCAE2D0E0A8CF8091FB01D7
:100E400086FFA4CFC1E3D0E0A1CFCF3BD10518F6F8
:100E5000C85AD0E0CC0FDD1FC55DDE4F0990D881A8
:100E6000C02DD46493CFC11540E5D40708F064C009
:100E7000C11580E4D80708F05CC0CE019A958115B1
:100E80009F4108F483CFA7CFC11536E5D30718F5E6
:100E9000C11545E5D40708F084C0C11584E5D8071D
:100EA00008F07AC09C2F969596959E012370332763
:100EB000C115D34508F462C0C1E0D0E002C0CC0F38
:100EC000DD1F2A95E2F730E2939FC0011124C82B61
:100ED000D92BDA685BCFC1158AE5D80778F4C1153C
:100EE00099E5D90708F068C0C11528E5D20708F4CC
:100EF00072CFDC2FCC27C06FD06A48CFCE0190567E
:100F00008115904208F067CF8D2F8F710E943306B4
:100F100090E0982F882788279F719C012C2BE9014E
:100F200049C0C55AD0E0C85DDE4FC881D0E0D0646A
:100F30002DCFDF70D06A2ACFCE01E4E09695879559
:100F4000EA95E1F783702C2F26952695237040E2D1
:100F5000249F90011124382B8C2F8370C1E0D0E0A6
:100F600002C0CC0FDD1F8A95E2F7C22BD32BDC68C1
:100F70000DCFDC2FCC27C16FD06A08CFC1E0D0E005
:100F800002C0CC0FDD1F2A95E2F720E2929FC0013C
:100F90001124C82BD92BEBCFDC2FCC27C46FD06A00
:100FA000F5CE8C2F0E943306C82FD0E0DC2FCC2743
:100FB000CC27DF71D062EACE8C2F8F700E9433066F
:100FC00034E0D695C7953A95E1F7CF709C2FEC01A8
:100FD000D069DCCEC9E3D0E0D9CEC2EED0E0D6CE27
:100FE000C6EED0E0D3CE8091F101882331F010928B
:100FF000F1011092F0011092EF010895CF93C82FE4
:101000008091FC0182FD0CC08091F1018C1741F0B0
:101010000E9419059093F0018093EF01C093F101B4
:10102000CF9108958095909130029823909330024B
:10103000089590913002892B809330020895109288
:10104000ED011092EC011092EB010895809157028E
:1010500090915802892B89F00E9419052091EF0187
:101060003091F001AC01421B530B81E020915702FB
:10107000309158024217530708F480E081700895B8
:10108000809130029091A002892B9091EE01892BE2
:101090008093A4018091F101882309F18091570286
:1010A00090915802892B29F00E94260881110E94F4
:1010B000F3078091A4019091F101892B8093A40101
:1010C00020E086EA91E0FC013191CF0131112F5FE0
:1010D000F1E08C3A9F07B9F721110E94F307E091E4
:1010E0007C02F0917D02309731F00280F381E02D97
:1010F00084EA91E00994089580911E01877F80938E
:101100001E019091A0029D7F9093A00284FF06C0D3
:101110008F7E80931E0182E00E94190880911E013B
:1011200085FF06C08F7D80931E0180E20E94190812
:101130000C9440088091EA0181111092EA0108950F
:101140002091E9019091B80156E0291302C080E096
:10115000089530E0529FF001539FF00D1124E754A1
:10116000FE4F7181761306C07081781303C07281BF
:10117000741304C02F5F3F4F2770E7CF81E00895BD
:10118000452B39F0682381E06F3F09F080E08170E2
:10119000089581E0FCCF8091E9019091B801981306
:1011A00001C008958F5F8770FACF9E3F51F1292FBC
:1011B000220F220FE22FE90FE80F9E2F9770E6957E
:1011C000E695E69583E0E89FF0011124E155FE4F96
:1011D00050E040E080E0219130E0092E02C03695D9
:1011E00027950A94E2F721703327042E01C0220FBD
:1011F0000A94EAF7822B4F5F5F4F4330510559F74E
:10120000089580E008959E3F71F1292F220F220F4B
:10121000E22FE90FE80F8E2F877041E001C0440FE5
:101220008A95EAF7E695E695E69583E0E89FF00172
:101230001124E155FE4F30E020E070E05191DF01D4
:101240001197CB01022E02C0969587950A94E2F77A
:10125000817081958527842385278C932F5F3F4F4D
:101260002330310559F70895E92FE295EF70E250E8
:10127000EE3070F4F0E0E652F44D0C94202B803FF9
:1012800019F020F4883E20F481E00895843FE1F3D2
:1012900080E00895883EC0F3813FD1F7F5CF93FBFE
:1012A000882780F9089590E080E00E94550590E03D
:1012B00080E00E943F051092A0021092EE010C9473
:1012C00040088093A1020C9453098091A102982FA9
:1012D0009670963019F488600C946109877FFCCF72
:1012E00021E030E001C0220F8A95EAF72095809135
:1012F000A10282230C9461099091ED0180958923CC
:101300008093ED01282F277091F4282F082E000CD0
:10131000330B9217130659F09091FC0192FD07C010
:101320008595859585950E9470090C941F080895F0
:1013300021E030E001C0220F8A95EAF78091A102F6
:10134000822B0C9461099091FC0192FD10C098E0F1
:10135000899F90011124622B6093ED010E949809EE
:101360000E9419059093EC018093EB0108950C9471
:10137000980980939F020C945309882341F080952B
:101380009091A00289238093A0020C9440080895B4
:10139000882339F09091A002982B9093A0020C948E
:1013A00040080895882321F00E9412080C944008F8
:1013B0000895882321F00E9419080C94400808958C
:1013C000882381F19CEF980F913A78F4E6EAF1E0F6
:1013D0002CEA31E09191891303C0DF0111971C922F
:1013E0002E173F07B9F70C94400890E2980F9830F9
:1013F00050F4877091E001C0990F8A95EAF7892F20
:101400000E941208F0CF9BE5980F933020F490E0F3
:1014100080E00C945505885A873120F490E080E0F4
:101420000C943F050895CF93C82F882309F44AC030
:101430008CEF8C0F813AF8F4E6EAF1E08CEA91E067
:10144000DF012D91C21759F08A179B07D1F76C2F36
:1014500084EA91E00E942505CF910C9440082191E7
:10146000C21303C0DF0111971C928E179F07B9F7B3
:101470000E944008ECCF80E28C0F883048F4C7709F
:1014800081E001C0880FCA95EAF70E941908E4CFED
:10149000EBE5EC0FE33040F4F0E0E85DFE4F8081D7
:1014A00090E0CF910C945505C85AC73158F4EC2FF1
:1014B000F0E0EE0FFF1FE55DFE4F80819181CF913F
:1014C0000C943F05CF9108959C013A9521153F4119
:1014D00050F5FC01EE27F170BC0166277270AC017B
:1014E000442754709C012227387094FF0EC080E17D
:1014F000EF2B09F480E0672B09F08062452B09F09F
:101500008064232B89F08068089581E0EF2B09F433
:1015100080E0672B09F08260452B09F08460232B63
:1015200019F08860089580E00895CF93DF93EC016F
:101530000E94E009CE010E94640A9E01205E3109EA
:101540002830310510F0CD2B21F4DF91CF910C9490
:10155000D209DF91CF910C94BD09CF93DF93EC01B9
:101560000E94640A9E01205E31092830310510F086
:10157000209739F40E94D9098C2FDF91CF910C94D8
:10158000130A0E94C809F8CF662329F02091A0020F
:1015900022602093A0029C013056211540E23407BE
:1015A00020F0305E2115304108F499270C94AD0AE3
:1015B00080938502709387026093860280919502E2
:1015C0008430F9F48093E9008FEF9091E800815026
:1015D00095FD06C095ED9A95F1F700008111F5CFC4
:1015E0008091E80085FF0DC050E040E063E070E0CE
:1015F00085E892E00E94C8038091E8008E7780938E
:10160000E8000895BC0184E00C94D80ABC0183E092
:101610000C94D80ACF93DF93EC0181E08093E9002A
:101620008FEF9091E800815095FD06C095ED9A9559
:10163000F1F700008111F5CF8091E80085FF14C01B
:1016400050E040E068E070E0CE010E94C803809165
:10165000E8008E778093E80088E0FE01ABE8B2E016
:1016600001900D928A95E1F7DF91CF91089501974E
:1016700008F40895EFE9FFE03197F1F700C00000AA
:10168000F6CFDF92EF92FF920F931F93CF93DF93EA
:101690007C018B01D42E80911E0182FF8CC0C091F1
:1016A0005302D0915402CE15DF0521F0E114F1046C
:1016B00009F081C080911E018B7F80931E0181FD06
:1016C00073C08091510290915202A801481B590B9E
:1016D00081E020911C0130911D014217530708F44D
:1016E00080E08170F82E80911E01F0FA81F98093DC
:1016F0001E01FE0183E0F695E7958A95E1F7EE710C
:10170000FF27EF5CFD4F20813181AE014F705527DF
:1017100081E090E002C0880F991F4A95E2F7FF2010
:1017200009F444C0822B932B9183808380913002F3
:1017300081FF08C080911E01806180931E0182E0BC
:101740000E9412088091300285FF08C080911E011E
:10175000806280931E0180E20E9412086F2DCE01EC
:101760000E94C40ADD2031F08091700285FF02C022
:1017700086FF3BC080917302909174020E94370BE8
:1017800080915302909154029C013056211540E201
:10179000340720F0305E2115304108F499270E946B
:1017A000950A0E947C081DC081E09BCF8095909592
:1017B00082239323B9CFC70199279701305621156A
:1017C00040E2340728F0305E2115304108F0C701AF
:1017D0000E94950A80915302909154028E159F05A4
:1017E00001F31093520200935102DF91CF911F91A8
:1017F0000F91FF90EF90DF900895CF93E9E5F1E02E
:101800006EE571E080E041E091919F3F89F0A92F62
:10181000A295AF70B0E090962C9130E09F7002C01E
:10182000359527959A95E2F7942F20FD90E0892B26
:10183000440F6E177F0741F79091FD01C1E09813A7
:1018400001C0C0E0981729F18093FD0181E08093E9
:10185000F4010E9419059093F3018093F201209105
:10186000F2013091F3014FB7F89480918102909189
:101870008202A0918302B09184024FBF821B930B1E
:10188000059758F08091FD01809309021092F401B0
:1018900004C08091F4018111E2CF8091700280FF39
:1018A0001EC080911E0182FF1AC00E94190520915E
:1018B000510230915202AC01421B530B20911C018A
:1018C00030911D014217530750F025EF31E041E000
:1018D000BC0180915302909154020E94410B8C2FC5
:1018E000CF9108958091270280FD0AC0E5E1F2E0E2
:1018F000118210821282339652E0E732F507C1F767
:10190000529A3BB13B7F2BB124604FB7F89485E1ED
:1019100092E0FC015191CF0168E02BB9000000C0BA
:1019200057FF3BB9550F000000C000C000C03BB9D5
:1019300000C06A9591F7F2E087329F0751F74FBFD9
:101940008FE594E00197F1F700C000000895EF9251
:10195000FF920F931F93CF93DF938C01C5E1D2E0E9
:10196000F12CE12CF80194816091290280912802E8
:10197000F3E0EF16F10414F5992311F140912A02D6
:10198000403B08F04FEA9E010E949B052FEFE21AB0
:10199000F20A239686E0E816F10421F70E94720C01
:1019A000F801848190E00196817099278483DF910A
:1019B000CF911F910F91FF90EF9008959923F1F22D
:1019C0009E0140E0E1CF8F929F92AF92BF92CF9263
:1019D000DF92EF92FF920F931F93CF93DF93EC016F
:1019E0004C81042F10E09801D8010E94352B9B01F7
:1019F000AC010E944B2B4B015C01E0E2F0E0E01BEC
:101A0000F10BA5E5B0E0AC019B010E944B2B6B01F3
:101A10007C019F01DF010E942D2B9B01AC010E94E4
:101A2000562B9B01AC01280D391D4A1D5B1DC701BA
:101A3000B6010E94FE2AF22E822F90E039E23F1575
:101A400008F43EC043E0249F90011124359527956A
:101A5000122F109595E1C92E92E0D92E00E085E570
:101A6000E82EEF188E2D01FD8F2D412F103B08F031
:101A70004FEA9601609129020E949B050F5F53E097
:101A8000C50ED11C063071F70E94720C9C8181E05A
:101A9000992319F0903219F48FEF809319018091F6
:101AA0001901890F8C83DF91CF911F910F91FF90C6
:101AB000EF90DF90CF90BF90AF909F908F90089560
:101AC00025E530E0A901481B590BCA019A01220FF4
:101AD000331F280F391F37FFB9CF2F5F3F4FB6CFC6
:101AE0000F931F93CF93DF93C5E1D2E0FE011182E4
:101AF00010821282339682E0E732F807C1F710E0D5
:101B000000E080911302082E000C990B08171907AA
:101B1000A4F180911801082E000C990B80179107F1
:101B200064F140912A02403B08F04FEA9E01609127
:101B30002902809128020E949B050F5F1F4F239668
:101B400006301105F1F60E94720C809117019091F8
:101B50001302980F9093130220911801280F2093DD
:101B60001801121614F495301CF08195809317011A
:101B7000DF91CF911F910F910895198218821A82D7
:101B8000DCCFBF92CF92DF92EF92FF920F931F9321
:101B9000CF93DF93FC018281DD24DA9480FD02C0C3
:101BA000DD24D39405E112E0D0E0C0E026E0B22EBF
:101BB000F80111821082128294E0E92EF12CC12CDE
:101BC000809112028C0D87300CF440C06B2D0E9466
:101BD000C82A892F082E000C990B8C179D07A9F491
:101BE00080912A028E9DA0018F9D500D1124559544
:101BF000479555954795403B08F04FEA980160910D
:101C00002902809128020E949B05CD0CF1E0EF1A79
:101C1000F108B1F621960D5F1F4FC630D10541F690
:101C20000E94720C8091120291E0D91215C08111AC
:101C300011C085E080931202DF91CF911F910F9127
:101C4000FF90EF90DF90CF90BF90089587FFC2CFB5
:101C50008A5FC0CF8150EECF90E00196BE010E9416
:101C6000EA2AE8CFEF92FF921F93CF93DF93EC0124
:101C700085E1E82E82E0F82E10E040912A02403BF8
:101C800008F04FEA8C81970160912902810F0E9430
:101C90009B05165D83E0E80EF11C1C3F71F70E9466
:101CA000720C9A818C8190FF08C08F5F8C83DF91CA
:101CB000CF911F91FF90EF9008958150F7CF9091B1
:101CC000270290FF0CC0E5E1F2E08183608342834C
:101CD000339692E0E732F907C1F70C94720C08953D
:101CE0000F931F93CF93DF9300D00F92CDB7DEB742
:101CF0008C018091140281110AC09E012F5F3F4F19
:101D00004FEA6FEF0E949B058A8180931402F801CD
:101D10006481613069F08091140240E0662361F0D3
:101D200040E0623011F44091140280E060E004C0B1
:101D30006091140240E080E00E945F0EF80184810F
:101D400090E0019663E070E00E94EA2A84830F909D
:101D50000F900F90DF91CF911F910F910895CF9326
:101D6000DF9300D00F92CDB7DEB79091270290FF9E
:101D70000DC0403B08F04FEA9E012F5F3F4F0E948D
:101D80009B054B8169818A810E945F0E0F900F90A5
:101D90000F90DF91CF910895CF93DF93EC01E7E2AD
:101DA000F2E0438162818C810E94AF0E8C818F5F53
:101DB0008C83DF91CF910895CF93DF93EC01EC8179
:101DC000F0E0E95EFB4F4491E7E2F2E0628181815D
:101DD0000E94AF0E8C818F5F8C83DF91CF9108952D
:101DE0001F93CF93DF93182FC0917502D091760285
:101DF000893321F0C0917302D0917402812F0E9427
:101E0000130A209731F4812FDF91CF911F910C9409
:101E1000E0098FE99FE00197F1F700C000002197EA
:101E2000F0CF0F93CF93DF93C42FD22FFC01828189
:101E3000882399F0409379020E94190590937802C3
:101E400080937702C77081E001C0880FCA95EAF7D6
:101E5000DF91CF910F910C94D9098091790284136D
:101E600044C020917702309178029FB7F894409156
:101E700081025091820260918302709184029FBF1F
:101E8000421B530B20916D0230916E024217530793
:101E900060F5C0E2CD0F8D17C1F090E2980F983039
:101EA00048F4877091E001C0990F8A95EAF7892F6D
:101EB0000E94D209C83048F481E09D2F977001C07C
:101EC000880F9A95EAF70E94D909802F0E94F00E98
:101ED000C83090F4D77081E001C0880FDA95EAF736
:101EE000DF91CF910F910C94D209C77081E001C0AE
:101EF000880FCA95EAF7F4CFDF91CF910F9108953B
:101F0000AF92BF92CF92DF92EF92FF920F931F9307
:101F1000CF93DF93EC018AE0A82E2881222309F4D5
:101F20008CC02130C9F599818A81913021F42296A3
:101F30000E94F00E05C0923029F422960E94130AE6
:101F40002196EBCF933021F422960E94E009F8CF3E
:101F5000943011F02196F4CF229630E020E0AE01CB
:101F60004F5F5F4F8053990B8A30910550F021509D
:101F7000310930F38FE99FE00197F1F700C00000CD
:101F8000F6CFA29EB001A39E700D11249C01260FD6
:101F9000371F8981EA01E3CFE22FF0E0E059FE4FDD
:101FA000B490822F86958695869590E0FC01E05A44
:101FB000FE4FE4902770F12C022E02C0F594E794B6
:101FC0000A94E2F731E0E322FF24FC01E05BFE4FDC
:101FD000C490D12C022E02C0D594C7940A94E2F783
:101FE00031E0C322DD24FC01E05CFE4F049110E0EF
:101FF00002C0159507952A95E2F701701127E114A3
:10200000F10419F081EE0E94130AC114D10419F0F1
:1020100086EE0E94130A8B2D0E94F00ECD2819F037
:1020200086EE0E94E009EF2819F081EE0E94E00997
:10203000012B09F485CF8CE27BCFDF91CF911F91EB
:102040000F91FF90EF90DF90CF90BF90AF900895E9
:102050000F931F93CF93DF9305E512E0C3E4D0E025
:10206000CE010E94902BF80181938F012196C536F5
:10207000D105B1F7C5E4D5E0FE01859194910097B3
:1020800011F0FC0109952896F5E0C539DF07A1F7A5
:10209000DF91CF911F910F9108950F931F93CF93CD
:1020A000DF938230F8F461111DC024E0829F80012B
:1020B000112450E0440F551F040F151FC801CB9683
:1020C0000E94902BC82FD0E0DC2FCC27C801CC96E3
:1020D0000E94902B9E01282BC901DF91CF911F9167
:1020E0000F91089590E080E0F8CF0F931F93CF9366
:1020F000DF93823008F561111FC04530E8F4042FEA
:1021000010E0000F111F2AE0829F000D111D112405
:10211000C80187960E94902BC82FD0E0DC2FCC27D7
:10212000C80188960E94902B9E01282BC901DF913F
:10213000CF911F910F91089590E080E0F8CF462F46
:1021400020912E0230912F02232B91F47E3F39F4FF
:102150006E3F71F480912C0290912D02089582308F
:1021600038F4711105C0653018F460E00C947510F6
:1021700090E080E00895CF92DF92FF920F931F933B
:10218000CF93DF936C010091A10280919F02082BF5
:10219000C7E0D0E010E0FC2EC8010C2E02C09595DF
:1021A00087950A94E2F780FD0CC02197A0F7F12CE7
:1021B0008F2DDF91CF911F910F91FF90DF90CF90E6
:1021C0000895B6018C2F0E949F100E9476060197F9
:1021D00061F3EECFCF93DF93EC010E94BB10BE0101
:1021E0000E949F10DF91CF910C947606FC018081B4
:1021F00091810E94EA100C9434091F93CF93DF93CE
:1022000000D000D00F92CDB7DEB749835A838981C1
:102210009A816623B9F02223A9F00E94BB10182FDF
:10222000682F89819A810E94030969817A81812FAF
:102230000F900F900F900F900F90DF91CF911F9103
:102240000C949F100E94D508182FEFCFFC01262F69
:10225000408151816281738184810C94FD1083E2FD
:1022600090E00E94902B8F3C89F484E290E00E94E1
:10227000902B8A3859F485E290E00E94902B91E0EF
:10228000893709F090E0892F8170089580E0FCCFB4
:10229000CF9384E090E00E94902BC82F82E290E0E0
:1022A0000E94902B982F8C2FCF9108950F931F93FE
:1022B000CF93DF9305E512E0C3E4D0E0CE010E94A6
:1022C000902BF80161918F01681719F0CE010E94DF
:1022D000A42B2196C536D10589F7DF91CF911F91A7
:1022E0000F910895E5E5F2E0128E138E8FEA90E0EB
:1022F0009183808385E0848F88E893E19383828350
:1023000082E390E0978B868B88EC90E0918F808FB2
:10231000158E8AE090E0978F868F80E590E091A3FC
:1023200080A30E9456110C942810CF93DF93C5E62A
:10233000D0E060E0CE010E94A42B2196C11584E07C
:10234000D807B9F7DF91CF9108950F931F93CF93DB
:10235000DF938901823020F5611122C0423000F5FF
:1023600021153C4531F420911A0130911B01232B9A
:10237000B9F094E0899FE001112450E0440F551F0B
:10238000C40FD51F612FCE01CB960E94A42B602FC6
:10239000CE01CC96DF91CF911F910F910C94A42B7D
:1023A000DF91CF911F910F9108950F931F93CF93BA
:1023B000DF938901823020F5611122C0453000F59C
:1023C00021153C4531F420911A0130911B01232B3A
:1023D000B9F0C42FD0E0CC0FDD1F9AE0899FC00D6B
:1023E000D11D1124612FCE0187960E94A42B602F4E
:1023F000CE018896DF91CF911F910F910C94A42B61
:10240000DF91CF911F910F910895CF92DF92EF92BC
:10241000FF920F931F93CF93DF93C0901A01D09038
:102420001B0181E090E090931B0180931A0187E1EA
:10243000E82E85E0F82EC0E08701D0E0F801259174
:1024400034914D2F60E08C2F0E94D5110E5F1F4FED
:10245000DF5FD53099F721E030E040E060E08C2F7D
:102460000E94A51121E030E041E060E08C2F0E9445
:10247000A5118AE0E80EF11CC13011F0C1E0DCCFFB
:102480000E947211D0921B01C0921A01DF91CF916C
:102490001F910F91FF90EF90DF90CF900895CF9311
:1024A000C82F6FEF81116FEC83E290E00E94A42BA4
:1024B0006FEFC1116AE884E290E00E94A42B6FEFF5
:1024C000C11169E785E290E0CF910C94A42B80E0E4
:1024D0000E944F1260E086E290E00E94A42B0E94CE
:1024E00005120E94951181E00C944F12CF93C09178
:1024F000FC01C2FB992790F9981799F080FBC2F96B
:10250000C093FC016091FB0184E090E00E94A42B49
:102510006C2F82E290E00E94A42B82E0CF910C9479
:102520007C09CF91089560912702669570E04BE099
:1025300050E08CE091E00E94732B892B19F481E02C
:10254000809311020E94190590930B0280930A0256
:102550000895CF92DF92EF92FF926B017C010E946F
:102560008505B701A60188E090E0FF90EF90DF902D
:10257000CF900C94B62B5F926F927F928F929F9226
:10258000AF92BF92CF92DF92EF92FF920F931F9381
:10259000CF93DF9300D00F92CDB7DEB7082F762E02
:1025A000142F622E9091270290FF2DC0E92FE695FF
:1025B000AE2FB0E0A259BE4F8C91809310029E7F47
:1025C0009230A1F5403B08F04FEA9E012F5F3F4F4C
:1025D000672D802F0E949B054B8169818A810E9413
:1025E0005F0E009328027092290210932A0266203F
:1025F00051F06091270270912802809129029091F8
:102600002A020E94A9120F900F900F90DF91CF9194
:102610001F910F91FF90EF90DF90CF90BF90AF9000
:102620009F908F907F906F905F900895823019F403
:1026300010912A02D6CF863019F400912802D1CF0A
:102640008930D9F3893169F6E9518E2F8170582E7E
:10265000E695F0E0EE5EFB4FA590B490BB2485E1DB
:10266000E82E82E0F82ED12CC12C96E0892E912CF8
:10267000C601B4010E94D62A802F511016C0860FC1
:10268000412F103B08F04FEA9701672D0E949B05F0
:10269000CA0CDB1C83E0E80EF11C87E2E81682E03E
:1026A000F80631F70E94720C9CCF861BE9CFE7E257
:1026B000F2E0438128E0421B08F440E021E062811F
:1026C00081810C94BB12E7E2F2E0438128E0420FE3
:1026D00008F44FEF21E0628181810C94BB12E7E2A4
:1026E000F2E0628128E0621B08F460E021E04381AF
:1026F00081810C94BB12E7E2F2E0628128E0620F74
:1027000008F46FEF21E0438181810C94BB12E7E272
:10271000F2E0818121E04381628188500C94BB12F8
:10272000E7E2F2E0818121E043816281885F0C94DD
:10273000BB1280912B02882319F0815080932B02C9
:1027400060912702709128028091290290912A02BB
:102750000C94A91280912B02833018F48F5F809320
:102760002B0260912702709128028091290290919A
:102770002A020C94A9129091270290FF36C0917002
:10278000811129C0926090932702662351F06091D5
:102790002702709128028091290290912A020E94BA
:1027A000A91260912702669570E04BE050E08CE042
:1027B00091E00E94732B892BA9F01092110281E005
:1027C00080930D0220E040912A02609129028091BD
:1027D00028020C94BB12853210F09864D4CF880F75
:1027E000982BD1CF0E949312EACF089580912702AF
:1027F0008695815009F484E261E00C94BB138091CA
:10280000270286958F5F853208F081E061E00C94A5
:10281000BB139091270290FF07C09695981720F060
:10282000961710F40C94FF1361E00C94BB13E7E2CD
:10283000F2E08DE0808311828FEF82838FEA8383C1
:10284000148260817181828193810C94A91210920B
:102850003002E6EAF1E086E0DF011D928A95E9F7B1
:102860000C9453091F93CF93DF93CDB7DEB7AA978C
:102870000FB6F894DEBF0FBECDBF87E992E020917E
:10288000F100DC012D93CD01B2E08F399B07B9F740
:1028900080919802833009F472C0B8F4813009F451
:1028A00049C0823009F4B3C08091E80083FF96C22A
:1028B00080919702909198029A3008F08FC2E92F88
:1028C000F0E0E851F44D0C94202B8A3009F48EC0CE
:1028D0008B3009F471C0893039F7809197028132C9
:1028E00019F780919B0290919C02009711F002973A
:1028F000D9F68091E800877F8093E8008091E80016
:1029000082FF38C09091F3008091F200029731F479
:102910008091F100813011F0863021F48091F10036
:1029200080938A028091E8008B778093E8000E9470
:10293000F203BACF80919702813A09F0B5CF809126
:10294000E800877F8093E80080919B0290919C0231
:10295000892B61F468E08BE892E070E00E94A404A7
:102960008091E8008B778093E8009ECF60E090E054
:1029700080E0F3CF809195028111C0CF95CF8091F7
:102980009702813A09F090CF80919B0290919C022E
:10299000892B09F089CF8091E800877F8093E80038
:1029A0008091E80080FFFCCF80911F018093F100AF
:1029B0008091E8008E77B9CF80919702813209F03B
:1029C00073CF80919B0290919C02892B09F06CCF70
:1029D0008091E800877F8093E8000E94F203809155
:1029E000990280931F010E9427145ECF8091970265
:1029F000813209F059CF8091E800877F8093E80009
:102A00000E94F20380919A02809389024DCF8091B7
:102A10009702813A09F048CF8091E800877F809340
:102A2000E8008091E80080FFFCCF80918902BECF52
:102A3000803899F0823809F0D1C180919B028F7063
:102A4000873008F0CBC18093E9008091EB0085FBD3
:102A5000882780F91092E90006C080919302909136
:102A60009402911182609091E800977F9093E80022
:102A70008093F1001092F1008091E8008E77AAC156
:102A8000882309F498C1823009F0A8C18091990285
:102A900081119BC180919B028F702FEF280F2630F0
:102AA00008F09CC18093E9002091EB0020FF8DC1CC
:102AB000933031F48091EB0080628093EB0085C10C
:102AC0009091EB0090619093EB0021E030E001C029
:102AD000220F8A95EAF72093EA001092EA0080918B
:102AE000EB008860EACF811179C1109199021F77BC
:102AF0008091E3008078812B8093E3008091E8004F
:102B0000877F8093E8000E94F2038091E80080FFB5
:102B1000FCCF8091E30080688093E30082E0111194
:102B200083E0809395025AC18058823008F056C1E4
:102B30002091990230919A022C3DE3E03E07A1F5E5
:102B400083E08A838AE289834FB7F894DE01139683
:102B500020E03EE051E2E32FF0E050935700E49193
:102B600020FF03C0E295EF703F5FEF708E2F90E083
:102B7000EA30C0F0C7968D939D932F5F243159F7AB
:102B80004FBF8091E800877F8093E8006AE270E0A1
:102B9000CE0101960E94A4048091E8008B77809377
:102BA000E8001CC1C096E7CF80919B0290919C02E7
:102BB000432F55274330510509F44AC078F5413079
:102BC000510509F485C08BE590E0EFE8F5E042306F
:102BD000510509F003C12091E800277F2093E80008
:102BE00020919D0230919E028217930708F49C0168
:102BF00040E02115310509F070C041116EC080918F
:102C0000E80082FDC9CF80919502882329F28530A2
:102C100019F28091E80083FFF2CFBECF4132510517
:102C200009F447C04232510509F0D8C083309105FC
:102C300008F0D4C0FC01EE0FFF1FEA56FE4F0190D2
:102C4000F081E02D8D569E4FDC018C9190E01DC0EF
:102C5000332721303105E9F02115310579F0223093
:102C60003105F9F02330310509F0B8C0ECEFF5E09B
:102C7000E4918E2F90E0ECEFF5E007C0EAE5F6E096
:102C8000E4918E2F90E0EAE5F6E0009709F4A6C003
:102C9000A2CFEEE3F6E0E4918E2F90E0EEE3F6E0D3
:102CA000F4CFEAE1F6E0E4918E2F90E0EAE1F6E07D
:102CB000ECCF8330910508F091C0880F991FFC017B
:102CC000E456FE4F0190F081E02D89E090E083CF43
:102CD00082E190E0EAEEF5E07ECF809195028823D4
:102CE00009F45ACF853009F457CF8091E80083FD6D
:102CF00053CF8091E80082FD82CF8091E80080FF71
:102D000078CF9091F3008091F2002115310519F0F0
:102D10008830910550F041E0089709F040E080913B
:102D2000E8008E778093E80064CF44914093F100EF
:102D30003196215031090196E8CF803809F04EC014
:102D40008091E800877F8093E800809196028093CD
:102D5000F10092CE811142C0109199021230F0F52B
:102D60008091E800877F8093E800109396020E948C
:102D7000F203112311F084E005C08091E30087FD88
:102D8000FACF81E08093950242E061EC81E00E94FD
:102D9000110442E261EC84E00E94110442E261EC21
:102DA00082E00E94110442E260EC83E00E94110480
:102DB0008091950213C080919902813079F481E06D
:102DC000933009F080E0809394021092E9008091A2
:102DD000E800877F8093E8000E94F2038091E8007A
:102DE00083FF0AC08091E800877F8093E80080918C
:102DF000EB0080628093EB00AA960FB6F894DEBFDA
:102E00000FBECDBFDF91CF911F9108956AEE7EEF87
:102E100090E080E00E94C22B60E082E090E00E949F
:102E2000A42B60E083E090E00E94A42B10929F020C
:102E300060E084E090E00E94A42B60E082E290E0F9
:102E40000E94A42B60E085E090E00E94A42B60E04B
:102E500086E090E00E94A42B6FEF87E090E00E9454
:102E6000A42B40E050E0BA0188E090E00E94B62B2D
:102E700060E08DE090E00E94A42B40E050E0BA01B9
:102E800088E190E00E94B62B60E087E190E00E942C
:102E9000A42B40E050E0BA018CE190E00E94B62BF8
:102EA00070E060E080E290E00E94C22B40E050E0E1
:102EB000BA0188E190E00E94B62B80E00E944F1298
:102EC0000E94671240E050E0BA018FE090E00E945B
:102ED000B62B40E050E0BA0183E190E00C94B62BB1
:102EE0008F929F92AF92BF92CF92DF92EF92FF921A
:102EF0000F931F93CF93DF9300D000D0CDB7DEB7F1
:102F00007C01FC0143815481618180810E94C00861
:102F100081112AC061E0C7010E9426118C01F701CE
:102F20008281882309F465C7C80182519F45409773
:102F300008F0FAC68FEF93E00E94902B5EEED52E3C
:102F4000D00E05E610E0882361F18091ED018770D5
:102F500059F0F7018281882339F08091FC0182FDCC
:102F600003C082E00E947C090F900F900F900F9099
:102F7000DF91CF911F910F91FF90EF90DF90CF9055
:102F8000BF90AF909F908F9008950115F4E01F07B8
:102F9000E1F2C8010E94902B811101C0DA940F5F09
:102FA0001F4FD110F2CF19821A821B821C82CC24AF
:102FB000CA9448012FEF821A920AC8010E94902BEE
:102FC00089831A82882309F4C0CF813009F048C070
:102FD000580132E0A30EB11CC4010E94902B982E20
:102FE0008A83882309F4B1CFC5010E94902BD82E83
:102FF0008FEF890D833068F4580143E0A40EB11CB3
:10300000DB82DD2021F0CE0101960E94800F850138
:10301000D0CF54E09512FBCF580184E0A80EB11C2C
:10302000C80103960E94902BDD2009F48ECF8823DF
:1030300009F48BCF8150990BC89E9001C99E300D29
:103040001124ED2DE150FF0BCF01820F931F01974B
:10305000F0F2EFE9FFE03197F1F700C00000F7CFA1
:10306000CE0101960E94800F5401D1CF81E00E94D1
:1030700098090E94650969CF81E00E947009F9CF23
:1030800082E0F5CF80911E01816080931E0183C68E
:1030900080911E018E7F80931E010E947C087BC65A
:1030A00080911E018F7E013E110531F0053E110514
:1030B000C1F480911E018F7D80931E0180911E01BD
:1030C00080FF78C6F70182810832110528F50E319C
:1030D000110508F074C00430110580F5811166C631
:1030E00069C6C80190568115E0E29E0720F0905E07
:1030F0008115904118F780911E0182FF5BC6809177
:10310000720281FD57C625EF31E040E0B60190E044
:1031100080E00E94410B4EC60933110558F40D3270
:10312000110518F40B321105C9F69091700292FD49
:10313000D5CF08C004361105C1F3D0CF90917002ED
:1031400094FDCCCF882309F4A1C0909130028091E6
:10315000F101282F292B322F3D7FB1F1109254021B
:10316000109253023091700231FD2EC0F80143E0FD
:10317000F695E7954A95E1F7EE71FF27EF5CFD4F75
:1031800098012F70332781E090E002C0880F991FCB
:103190002A95E2F7809590952081318182239323AF
:1031A0009183808360E0C8010E94C40A8091F1018C
:1031B0008D7F0E94FE0782E00E947C09C6CE90911E
:1031C000700293FD8BCFBECF36E0F701A5EFB1E0E3
:1031D00001900D923A95E1F71092F7011092F901E2
:1031E0001092F801A0905302B09054020A151B05EA
:1031F000B1F53091700235FF32C040911E0141FBA4
:10320000992490F841FF02C036FF29C04091510235
:1032100050915202B601641B750B40916D025091A2
:103220006E0264177507D8F491FF08C080911E01E3
:10323000806180931E0182E00E941208809130021A
:1032400085FF08C080911E01806280931E0180E28C
:103250000E941208692DC5010E94C40A76CE909181
:103260001E0121FB91F990931E018D7F0E94FE07A4
:103270001093540200935302D0925202C092510212
:1032800080911E01846080931E0195CF970140E0DC
:10329000B601C8010E94410B58CE053F8CE51807C6
:1032A00009F466C008F45EC0063FECE51E0709F4A9
:1032B00065C0F7013281332309F4A7C51092790262
:1032C0000330FDE51F0708F065C00A3F2CE5120733
:1032D00030F4C80182509C45449708F060C00E94B9
:1032E00048119093FC018093FB0100315CE51507C8
:1032F00009F489C108F005C108309CE5190709F4F3
:1033000074C108F0D4C00430FCE51F0709F45BC1A8
:1033100008F0BFC002303CE5130709F44EC18091AC
:10332000FB01826003301C4509F44AC16091FB0136
:103330001091FC0184E090E00E94A42B612F82E2B6
:1033400090E00E94A42B0E942714FFCD07E225EEF7
:1033500045EE68ED7CE549C506E221EE40EE63EFFF
:103360007CE543C507E225EE44EE64EF7CE53DC510
:1033700006E221EE42EE65EF7CE537C507E225EE79
:1033800046EE66EF7CE531C508E221E045EE69EDE9
:103390007CE52BC501364DE5140709F4A0CF0631B5
:1033A0008CE5180709F435C58091300282720C3C17
:1033B0005CE5150709F413C208F093C1063CECE57F
:1033C0001E0709F4F8C108F069C1033C2CE5120797
:1033D00009F4E7C108F051C1023C4CE5140709F4B7
:1033E000BBC10A355DE5150709F435C208F011C205
:1033F00001159CE5190709F41EC20E3D1C4509F490
:1034000027C2F701828100811181882309F427C234
:10341000C8010E94BB10D82E682FC8010E94030962
:10342000B8018D2D0E949F100E9476068C01882E77
:10343000F701C280D580D2943FE0D3228091ED0184
:103440008770C1F0AC2CCC20B1F0812F807F80340C
:1034500021F080E2800F883068F08091FC0182FDCD
:1034600009C082E00E947C098091ED018770AA2446
:10347000A3948111A12C912E92942FE09222FBE033
:10348000F91508F464C2E92DF0E0EE50F44D0C9407
:10349000202B8091FB01806106305CE5150709F463
:1034A0008FC008F494C08091FB01806289C0809134
:1034B000FB018D7F0C309CE5190709F481C070F485
:1034C0008091FB018C600A30FCE51F0709F478C08D
:1034D00008F48FC08091FB018E7F72C08091FB0148
:1034E000877F0E303CE5130709F46AC08091FB0129
:1034F0008B7F0F301C4508F463C08091FB018F7EE9
:103500005FC00C3F5CE5150709F479C068F504312C
:103510009CE5190709F48BC080F40231FCE51F0714
:1035200009F475C08091FB018F7B03311C4508F4C1
:1035300047C08091FB01837F43C00A3F3CE51307EE
:1035400009F449C008F04DC005311C4509F0EECE24
:103550008091FB0182FB992790F921E0922790FB53
:1035600082F990FB83F92CC001158DE5180709F449
:1035700054C088F48091FC0183600E3FECE51E0787
:1035800069F18091FC018D7F0F3F1C4538F18091DE
:10359000FC018C7F23C002302DE5120709F456C0D0
:1035A00008F44EC001361D4509F0C0CE9091FB01D4
:1035B000892F8F7E94FF806103C08091FB01816021
:1035C0008093FB01B3CE8091FB018460F9CF8091A1
:1035D000FB018860F5CF8091FC0181608093FC0144
:1035E000A5CE8091FC018260F9CF8091FB018064BF
:1035F000E7CF0E9427148091FB018068E1CF809182
:10360000FC018E7FEBCF8091FB018F7DD9CF0E9493
:1036100027148091FB018F77D3CF8091FC01982FE5
:10362000909591708E7F892B90FB81F9D7CF0E9466
:1036300027149091FB01892F97FB87F98058C0CF01
:1036400061E08EE090E00E94A42B70CE60E0F9CFA4
:103650008091AC0181110FC089E2E6EAF1E02CEA29
:1036600031E09191891303C0DF0111971C922E174D
:103670003F07B9F7FBC385E3F0CF043C5CE51507D2
:1036800009F494C047E853E160E973E1053C9CE527
:10369000190709F0A6CE0E94800557CC093CECE53D
:1036A0001E0709F492C070F4073C2CE5120709F4D8
:1036B00087C04BE753E16FE673E1083C3CE5130735
:1036C00051F38FCE0A3C4CE5140709F483C00B3C40
:1036D0005CE5150709F085CE49E953E16AEA73E133
:1036E000DACF013D8CE5180709F487C0B0F40E3C31
:1036F000ECE51E0709F47BC008F476C00F3C2CE50E
:10370000120709F477C06EE089E0003D3CE513073D
:1037100009F067CE0E94091418CC043D4CE514074B
:1037200009F471C078F4023D8CE5180709F468C00B
:1037300061E088E1033D9CE5190709F052CE0E9443
:10374000BB1303CC053DECE51E0709F45FC00D3546
:10375000100709F4FACB45CE8091270280FF1BC0E9
:103760008E7F8093270260912702709128028091BA
:10377000290290912A020E94A912109211022FEFA1
:1037800030E742E0215030404040E1F700C0000007
:103790000E94720CDACB81608093270261E08695EB
:1037A000CECF46EF53E16FEF73E175CF4FEF53E1AB
:1037B00066EF73E170CF40E953E167E873E16BCFE7
:1037C0004FE653E16BE773E166CF47E553E163E60C
:1037D00073E161CF43E653E167E573E15CCF4AEA09
:1037E00053E169E973E157CF61E081E0A8CF65E07B
:1037F00082E090CF68E086E08DCF64E18FE08ACFF1
:1038000067E185E187CF62E289E184CF61E083E20D
:1038100096CF0B35FDE51F0701F10C351D4509F06D
:10382000F0CD8091FC0182FB882780F991E0892707
:103830000E947612E6CD0E9427143FEF44E35CE03D
:10384000315040405040E1F700C000000E940805A0
:103850000E9406177ACB81E0EBCF80E0E9CFC80168
:103860000E94D508D82EDCCD212F2F70B22E812FAB
:10387000807F19F0B29490EFB922CC20A9F0BB2040
:1038800059F080E2800F883010F0811007C08B2D36
:103890000E9419080E944008802F57C08091A00202
:1038A000B82AB092A002F6CF802F0E94E009BB2078
:1038B00009F44DC080E2800F883010F0811004C000
:1038C0008B2D0E94120806C0B0948091A002B822ED
:1038D000B092A0020E9440083AC0312F3F70B32E30
:1038E000812F807F803219F0B29480EFB822882037
:1038F000F1F041E0841609F49BC0CC2009F4A4C087
:10390000DD2009F474C020E0F7014081518162811B
:10391000738184810E94FD108091720281FDBCCF71
:10392000F701858180FFB8CF8F70858360C080915B
:10393000FC0182FF3EC0CC20B1F1BB2029F08B2DD1
:103940000E9419080E94400880E00E94130AE92D95
:10395000E850FF0B349710F40E946B05C8010E94D9
:1039600034098111C2C11092AE011092AD01AA209A
:10397000A9F08091ED0180FD11C0F70112828595BB
:10398000859585950E949809C7010E9470178091BE
:10399000ED018595859585950E94700960E0C701C8
:1039A0000E942611E1CA80E00E94E009BB2079F262
:1039B00087CFCC2001F1D11004C08091F1018B2977
:1039C00017C051E0D51206C08091F1018B290E94E9
:1039D000FE07BDCF80917102823078F3D812EDCF0F
:1039E0000E94F3078091EA01B812B092EA018B2D90
:1039F0000E94D909ACCFD11006C00E94F3078B2DCD
:103A00000E94D209A4CF8091710291E0D9120BC01B
:103A1000823008F49CCF809130028B2109F497CF3B
:103A20000E949A08EACF823040F38D11E6CF8FCF03
:103A3000CC2029F0E5E0ED1508F489CFD8CFF4E0EB
:103A4000FD1508F484CFDBCFDD20C9F2F9E38F1236
:103A500044C180917502909176020E94370B802FAD
:103A60000E94E00974CF812F86958695837061F05E
:103A7000813009F06CCFC8019370C11002C090E092
:103A800080E00E943F0563CFC8019370C11002C05F
:103A900090E080E00E9455055ACF812F837091F508
:103AA000C11055CF402F429546954770440F440FA3
:103AB000802F8F70042E01C0880F0A94EAF7202F00
:103AC000207104FF07C02FE030E001C0220F4A95AB
:103AD000EAF72095312F369536953370323069F0FC
:103AE00050F440919F02313029F0822B84230E94B0
:103AF000B9092DCF842B822BFACF282B80919F02DE
:103B00008227F5CF8695CC2011F0812F81708823F4
:103B100009F41DCF402F429546954770440F440F3E
:103B2000802F8F70042E01C0880F0A94EAF7202F8F
:103B3000207104FF07C02FE030E001C0220F4A953A
:103B4000EAF72095312F369536953370323069F08B
:103B500050F44091A102313029F0822B84230E943D
:103B60006109F5CE842B822BFACF282B8091A102FC
:103B70008227F5CF212F2F70B22ECC2029F0822F53
:103B80000E949809802F34CF802F0E94D2098B2D5C
:103B90000E947009DCCE802F32EF8316B1F1381508
:103BA00070F040EF8416D1F051EF851691F0CC20E3
:103BB00009F48EC0D11070CE812F8F712AC093EF7F
:103BC000891651F1E4EF8E12F2CF8091FC0182FF51
:103BD0002FC0812F8F71CC20D9F21BC0CC2081F057
:103BE000F4E0FD1508F4B3CE212F2F7181E090E0B1
:103BF00001C0880F2A95EAF79091A1028927AFCFDB
:103C000025E02D1508F4A3CEEFCF812F8F71C110C1
:103C1000BFCF0E9498099BCE80E0CC2009F49FCFB3
:103C200081E0912F9F7101C0880F9A95EAF797CF95
:103C3000809171028230A0F18091EA01CC20F1F0F4
:103C40000E9412088091ED018770843041F40E9437
:103C50001F08812F8F710E947009A12C78CE80914E
:103C60007102D816D0F7312F3F71B32E832F0E94E7
:103C7000980963E08B2D0E94A309EFCF0E941908D9
:103C800080917102D81640F00E941F080E949A0885
:103C900064E0812F8F71EFCF81E00E947C09DDCF3E
:103CA000CC2059F0412F4F71B42E842F0E949809D7
:103CB00063E08B2D0E94A3094ACE81E00E947C091B
:103CC00051E05D1508F043CE82E00E947C093FCEB2
:103CD000DD2041F0893309F4BCCE809173029091CC
:103CE0007402BBCE812F8F7153CFCC2019F0D1102D
:103CF0003ACE3DCED11037CE20E0F7014081518140
:103D00006281738184810E94FD108091720283FF21
:103D10002ACE8091AD019091AE01029709F023CE99
:103D2000802F0E94F00E1FCE0031FFE51F0709F41F
:103D30009DC901312FE5120709F4A2C980917002D3
:103D400080FF38C00E9419056C01F7018281882329
:103D500009F4A6C980911E0182FF08C025EF31E059
:103D600040E0B60190E080E00E94410B0B31FCE5A1
:103D70001F0709F487C90C312CE5120709F488C91B
:103D800090911E01892F8E7F90FF81600A313CE562
:103D9000130709F480C9C8019056811540E29407C1
:103DA00028F0905E8115904108F088C91092540265
:103DB00010925302033FFCE51F0709F4CDCA08F037
:103DC0006CCA083D3CE5130709F4C0CA093D4CE53F
:103DD000140709F4D9CA073D5CE5150709F069CA5B
:103DE00006E221EE41EE67ED7CE5C7010E94110F6E
:103DF000ACC800313FE5130709F43EC901314FE576
:103E0000140709F09BCF82E038C906311C4509F040
:103E1000F8CA80913002982F9A7A20916F0220FF81
:103E200004C0482F447409F090E021FF04C0482FDB
:103E3000417109F090E022FF04C0482F487809F052
:103E400090E023FF03C0827209F090E0332309F46D
:103E5000FFCB81E0911101C080E08093AC0169E269
:103E6000911165E384EA91E00E9425050E944008D3
:103E70006CC8BF92CF92DF92EF92FF920F931F9385
:103E8000CF93DF938091B701807F61F48091B4017B
:103E9000882341F0C091E90186E0B82E8091B801F5
:103EA0008C130AC0DF91CF911F910F91FF90EF907B
:103EB000DF90CF90BF900895F090B201E090B301F1
:103EC000C090B501D090B601A6016E2D8F2D0E9435
:103ED000C008D0E081113DC0BC9E8001BD9E100D88
:103EE0001124F801E754FE4F81818E1132C0808188
:103EF0008F112FC0828181112CC0E380F480EC18D7
:103F0000FD0860E082EB91E00E94261180916D0235
:103F100090916E02E816F906E0F48091B7018F7077
:103F200080618093B701F801E254FE4F80818F7069
:103F30008061808382EB91E00E947017DF91CF91C6
:103F40001F910F91FF90EF90DF90CF90BF900C9456
:103F5000CB082196C770A2CF3F924F925F926F928B
:103F60007F928F929F92AF92BF92CF92DF92EF9209
:103F7000FF920F931F93CF93DF93CDB7DEB7619777
:103F80000FB6F894DEBF0FBECDBF8C0185E0F801FF
:103F9000DE011D9601900D928A95E1F7D8014C90B3
:103FA00011965C9011971296EC9012971396CD9003
:103FB000DC9060E082EB91E00E94261182EBA82E5B
:103FC00081E0B82E8090B5019090B601A401609177
:103FD000B3018091B2010E94C008811197C1F09095
:103FE000B401F601E819F9094F0160E0FF2009F476
:103FF00043C1C5010E94261160906D0270906E024F
:104000003090B7018614970408F0F8C04091B501CC
:104010005091B601B090B201A090B301832D807F82
:104020006A2D09F0A3C08B2D0E94C008FE2C8111BF
:1040300031C0D80111968C9111978A112BC08C91A7
:104040008B1128C0E11026C0832D8F708061809372
:10405000B70182EB91E00E9470178091B701F801DF
:1040600085838F2D61960FB6F894DEBF0FBECDBF4E
:10407000DF91CF911F910F91FF90EF90DF90CF9044
:10408000BF90AF909F908F907F906F905F904F9078
:104090003F900895F4EF6F16F1E07F0620F48091D1
:1040A000720280FF21C0A601652D842D0E94C008E8
:1040B000811118C081E08E2580FF16C04E2D652D20
:1040C000842D0E94A008882379F082EB91E00E9461
:1040D000701786E0E2EBF1E0DF011D928A95E9F7C7
:1040E000F12CBFCF80E0E8CFA601652D842D0E9482
:1040F000C008811124C081E08E25B82FB170CB2E6D
:1041000080FF2BC04E2D652D842D0E94A008D82E37
:10411000811123C04D865E868D859E850E94EA10A2
:10412000292F22952F70223060F0243088F49F7060
:1041300061F0F8019581907F41F4FD2C92CF80E0F1
:10414000DCCF9F7011F08823C1F3805E8830A8F324
:10415000C8010E947017DC2CF0CFEE2009F481CF4B
:104160008091B70181608093B701BACF8B2D0E94F7
:10417000C008811119C0D80111968C9111978A112C
:1041800013C08C918B1110C0E1100EC015963C929B
:10419000C8010E94701786E0F801A2EBB1E001901F
:1041A0000D928A95E1F75DCFC8010E94F610882331
:1041B00009F1EE20F9F08091B701803270F0209182
:1041C000B2013091B30138872F831986DB86CA8606
:1041D0008C87CE0107960E94701786E0F801A2EB4B
:1041E000B1E001900D928A95E1F70E94391FFF24FA
:1041F000F39437CFC8010E947017F9CF832D807FC9
:1042000009F463CF9090B2018090B3014091B50161
:104210005091B601682D892D0E94C008811113C0EC
:10422000F801818188110FC0808189110CC0E110D3
:104230000AC03582C8010E94701786E0D5011D9220
:104240008A95E9F70ECFC8010E94F610882391F2F3
:10425000EE2081F28091B701803208F4BECF209128
:10426000B2013091B3013A8329831B82DD82CC8273
:104270008E83CE010196AFCF82EB91E00E94261192
:1042800080916D0290916E0288169906B0F6FE2C10
:10429000EE2009F4AFCFE090B201D090B30140918D
:1042A000B5015091B6016D2D8E2D0E94C00881116F
:1042B0001FC0F80181818D111BC080818E1118C033
:1042C0008091720282FD67CF9091B70190FD63CF1C
:1042D000907F09F460CF8091B7018583903F09F406
:1042E00057CF982F907F905F8F70892B858350CF09
:1042F000C8010E94F610811170CF8091B7018160D2
:104300008093B701C8010E947017ABCEEE2009F46C
:1043100071CFC8010E94F610F82E882309F46ACFE5
:1043200086E0F801A2EBB1E001900D928A95E1F7E9
:104330008091B2019091B3010E94EA100E94391F4E
:1043400090CE1F93CF93DF93CDB7DEB767970FB6AD
:10435000F894DEBF0FBECDBF942F4B8B252F5C8B07
:104360006D8B7E8B8F8B4E895F89622F892F0E9488
:10437000C008811109C08091AD019091AE010196F4
:104380009093AE018093AD018D8981111092A002AE
:104390001A8A198A85E0FE017396DE011D96019046
:1043A0000D928A95E1F78091FC0182FD1EC08091FB
:1043B000570290915802892BC1F00E941905209153
:1043C000EB013091EC01821B930B2091570230914D
:1043D00058028217930720F08091ED0182FF76C08A
:1043E0000E94260881110E94F30786E0FE013D9697
:1043F000DE01179601900D928A95E1F7CE0107969E
:104400000E94AC1F811111C086E0FE013796DE01CB
:10441000119601900D928A95E1F74A855B85688532
:104420008F810E94C008882389F016E08091E901FD
:104430009091B801891337C067960FB6F894DEBF24
:104440000FBECDBFDF91CF911F9108952091B8018C
:1044500030E0C9010196877099274091E90148171A
:10446000190699F096E0929FD001939FB00D112408
:10447000A754BE4FFE01319601900D929A95E1F737
:104480008093B8010E94CB08D0CF0E9427141092CD
:10449000B8011092E90186E0E2EBF1E0DF011D9244
:1044A0008A95E9F7C2CF819FC001112487549E4F9E
:1044B0000E94AC1F882309F4BFCF8091E90190E0EE
:1044C0000196877099278093E901B0CF82E00E941E
:1044D0007C0986CFCF93DF9300D000D00F92CDB769
:1044E000DEB790932D0280932C02811520E2920773
:1044F00048F40F900F900F900F900F90DF91CF9195
:104500000C94950A8EEF89838A831B820E94190579
:104510008160782F9D838C8349815A816B818D8145
:104520000F900F900F900F900F90DF91CF910C9400
:10453000A121CF93DF9300D000D00F92CDB7DEB78B
:1045400090932D0280932C02811520E2920748F46B
:104550000F900F900F900F900F90DF91CF910C94D0
:10456000AD0A8EEF89838A8381E08B830E941905CF
:104570008160782F9D838C8349815A816B818D81E5
:104580000F900F900F900F900F90DF91CF910C94A0
:10459000A121BF92CF92DF92EF92FF920F931F93D0
:1045A000CF93DF93B82EC090A10280919F02C82ABA
:1045B000C7E0D0E0D12CF12CE12CD701C6010C2EA4
:1045C00004C0B695A795979587950A94D2F780FF72
:1045D0001FC04B2D60E08C2F0E944D108C0181304C
:1045E0009105B1F00E9499228FE39CE90197F1F7C0
:1045F00000C00000C8010E946A2281E0DF91CF91D3
:104600001F910F91FF90EF90DF90CF90BF90089592
:10461000219798F64B2D60E080E00E944D10EC0150
:104620000E9499228FE39CE90197F1F700C00000F6
:10463000CE01E1CF90E080E00E949E2B8A3E9E4F0B
:1046400011F40C942F1180E008951F920F920FB671
:104650000F9211242F933F934F935F936F937F9308
:104660008F939F93AF93BF93CF93DF93EF93FF937A
:10467000D091E900DF708091EC00C82FC17080FDFF
:10468000C0E81092E9008091F000877F8093F000ED
:1046900078940E9432141092E9008091F0008860B2
:1046A0008093F000CD2BCF70C093E900FF91EF9184
:1046B000DF91CF91BF91AF919F918F917F916F913A
:1046C0005F914F913F912F910F900FBE0F901F90D0
:1046D00018951F920F920FB60F9211242F933F93AC
:1046E0004F935F936F937F938F939F93AF93BF93FA
:1046F000EF93FF938091E10082FF09C08091E20077
:1047000082FF05C08091E1008B7F8093E100809162
:10471000DA0080FF24C08091D80080FF20C0809103
:10472000DA008E7F8093DA008091D90080FF9DC0EF
:1047300080E189BD82E189BD09B400FEFDCF81E041
:104740008093950280918802811109C00E947803AC
:104750000E9443048091E20084608093E200809193
:10476000E10080FF17C08091E20080FF13C08091BC
:10477000E2008E7F8093E2008091E200806180936E
:10478000E2008091D80080628093D80019BC85E057
:10479000809395028091E10084FF2BC08091E2001C
:1047A00084FF27C080E189BD82E189BD89B5982F4A
:1047B000917080FFFBCF8091D8008F7D8093D800CF
:1047C0008091E1008F7E8093E1008091E2008F7EF6
:1047D0008093E2008091E20081608093E20080910A
:1047E0009602882309F447C084E080939502809163
:1047F00095028091E10083FF27C08091E20083FF52
:1048000023C08091E100877F8093E10082E0809364
:104810009502109296028091E1008E7F8093E100D4
:104820008091E2008E7F8093E2008091E2008061BF
:104830008093E20042E060E080E00E9411048091F9
:10484000F00088608093F000FF91EF91BF91AF91ED
:104850009F918F917F916F915F914F913F912F9198
:104860000F900FBE0F901F90189519BC10929502D3
:104870001092880274CF8091E30087FD93E09093BB
:104880009502B5CF78941F921FB61F9211248F9373
:104890009F93AF93BF938091810290918202A091E8
:1048A0008302B09184020196A11DB11D8093810203
:1048B00090938202A0938302B0938402BF91AF9140
:1048C0009F918F911F901FBE1F9018951F921FB62A
:1048D0001F9211248F939F93AF93BF938091800277
:1048E000811113C08091810290918202A091830274
:1048F000B09184024196A11DB11D809381029093D5
:104900008202A0938302B0938402BF91AF919F91E2
:104910008F911F901FBE1F901895CDB7DEB7E297FD
:104920000FB6F894DEBF0FBECDBF84B7877F84BFBC
:104930000FB6F894A895809160008861809360001C
:10494000109260000FBE80E890E00FB6F89480935C
:104950006100909361000FBE85B7806885BF85B701
:10496000806885BF81E396E09093A3018093A201C4
:104970000E9428100E9478030E9443048091E20064
:1049800084608093E2007894809195028823A1F05E
:104990001091E9001F709091EC00892F817090FDBB
:1049A00080E8182B1092E9008091E80083FD0E94B6
:1049B00032141F701093E90082E084BD93E095BD2E
:1049C0009AEF97BD80936E000E942F11811102C053
:1049D0000E946712A9E5B1E04EE551E021E030E028
:1049E0008D918F3F91F0E82FE295EF70F0E011A1EB
:1049F0008F70B90101C0660F8A95EAF7962F9095DE
:104A0000912391A382A1862B82A34A175B0741F7CA
:104A1000109209021092FD010E941A23811102C016
:104A20000E94061782E090E00E94902B809305027E
:104A30000E9448119093FC018093FB010E94FD0BA2
:104A40008FE39CE90197F1F700C000000E94FD0B85
:104A50008091090280FF08C06FEF7FEF90E080E057
:104A60000E94C22B0E94080583E090E00E94902BD8
:104A70000E94B9098091FE01811133C00E941A235E
:104A8000811104C00E9406170E94171488E090E06C
:104A90000E94982B6093270270932802809329022A
:104AA00090932A026E7F71F40E94171488E090E0C0
:104AB0000E94982B6093270270932802809329020A
:104AC00090932A020E94850510921102809127027C
:104AD00080FF04C060E086950E94BB1381E0809354
:104AE000FE012198299A87988F9A83B186958170C3
:104AF0002FB130E0220F232F221F330B92E0232B04
:104B000009F490E0892B8093030280E091E0909378
:104B10007D0280937C0228E1A22EB12C30E4532E3A
:104B200088248394992493948091950200E112E162
:104B3000853009F457C10E94FD0B882359F08FB7C7
:104B4000F8944091810250918202609183027091A9
:104B500084028FBF8091090290910602981709F490
:104B600061C1982720E011E0392F312309F455C1A4
:104B700029A71AA6812391E009F490E09BA70E943F
:104B800019058160782F9DA78CA749A55AA56BA50B
:104B90008DA50E94A121809106021827109306027C
:104BA000809111028823D1F180911002E0912702B7
:104BB000E695E81BE0930C02823009F044C1F0E076
:104BC000E250FE4FE4910E2F10E09CEDE92E9EE0A6
:104BD000F92E80910D02882361F010920D020E943F
:104BE000190590930B0280930A0210920F02109203
:104BF0000E020E941905E0910A02F0910B028E1B31
:104C00009F0B8F3F9F4750F4E00FF11FF0930B0273
:104C1000E0930A028AE092E0F7010995E09103022D
:104C2000EE0FEE0FE093030283B181FBCC24C0F8BA
:104C30008FB190E0880F892F881F990B009711F092
:104C400082E090E08C29E82BE0930302EF70F0E023
:104C5000E25AFE4F808190910202890F80930202F6
:104C600020E082304CF0809101028F5F809301023E
:104C700080E00E94C92221E0809102028F3F4CF423
:104C80008091010281508093010281E00E94C9223B
:104C900021E080910202082E000C990B62E070E086
:104CA0000E94EA2A80930202222359F08FB7F894D7
:104CB000409181025091820260918302709184023E
:104CC0008FBF0E946B0590910402891721F00E940A
:104CD0006B058093040280919502843009F024CF03
:104CE00083E08093E9008091E80082FF1DCF8091EE
:104CF000E80090E085FF06C00E949703882309F42E
:104D0000FCC091E08091E8008B778093E8009923C4
:104D100009F40ACF00912E0210912F02898101150A
:104D2000110509F406C18E3F09F093C18A818330D1
:104D300020F08550833008F08CC1EA81EE3008F015
:104D400088C1F0E0E250F44D0C94202B8091950244
:104D5000843009F43DC0109211028091000281114B
:104D600016C09092000280912702982F9170909324
:104D7000FF018E7F809327029FEFA0E7B2E0915062
:104D8000A040B040E1F700C000000E94720C1092F9
:104D900080020FB6F894A895A09260000FBE5092C2
:104DA000600083B7817F846083BF83B7816083BFE6
:104DB0007894889583B78E7F83BF0FB6F894A895B3
:104DC00080916000886180936000109260000FBE47
:104DD00080919402882331F00E94FD0B809109029A
:104DE00081117FC380919502853009F4AFCF0E9475
:104DF00027140E946B05109200028091FF01882306
:104E000049F08091270281608093270260E08695B7
:104E10000E94BB130E9493128ECE2F5F110F25307C
:104E200009F0A2CE8FEF8EA78FA718AA0E941905AE
:104E30008160782F9AAB89AB4EA55FA568A98AA936
:104E40000E94A121ADCE863059F4F0E0E550FE4F2E
:104E5000E4910E2F10E08CECE82E8EE0F82EB9CE07
:104E6000893061F4E695F0E0E850FE4FE4910E2FB2
:104E700010E0B2E3EB2EBEE0FB2EABCE8F3061F440
:104E8000E695F0E0EB50FE4FE4910E2F10E0A1EC20
:104E9000EA2EADE0FA2E9DCE853159F4F0E0EE50C9
:104EA000FE4FE4910E2F10E0F0E7EF2EFDE0FF2E15
:104EB00090CE08E210E063EEE62E6CE0F62E88312C
:104EC00009F487CE833249F4E0EFF1E005911491C3
:104ED000E0E7EE2EEEE0FE2E7CCE04EF11E077EA66
:104EE000E72E7CE0F72E843209F473CE00ED17E054
:104EF00053E0E52E55E0F52E6CCE00E210E0CE0139
:104F000001967C018091E80085FD0AC08091E8004F
:104F10008B778093E8000E949703882399F3F1CE62
:104F20008091F100D7018D937D010150110951F756
:104F3000E8CE893009F43DC120F5843009F4C8C0B9
:104F400050F4823009F46BC008F0B3C0813009F42A
:104F500062C08FEFF2C2863009F4D0C008F4C3C03B
:104F6000873009F4CEC08830A1F78A81813809F4EE
:104F700015C108F007C1803809F06BC080912A0282
:104F80004CC0803109F44FC1D0F58D3009F41CC1FB
:104F900028F48C30F1F680E18A835BC08E3009F40E
:104FA00017C18F30B1F680911A0190911B01892BA6
:104FB00009F44FC0EC80F12C2DE1E216F10408F069
:104FC00048C00A811B81102701271027CE010196B6
:104FD0003C01E00EF11EC8018B599F4F0E151F05B5
:104FE000C1F10B39A3E01A0720F4F30164810E9498
:104FF000A42BFFEF6F1A7F0A0F5F1F4FECCF823198
:1050000009F416C108F412C1833109F43AC18E3F84
:1050100009F09FCF92CE1A8289E08B831AC08A81D1
:10502000823009F4ACC28330D9F1813009F091CFDC
:105030002FB7F8946091810270918202809183026F
:10504000909184022FBF0E94262B6B837C838D83DB
:105050009E8380919502843009F066CD1091E9001D
:105060001F709091EC00892F817090FD80E8182BC3
:1050700082E08093E9008091E80080FF0DC050E05D
:1050800040E060E270E0CE0101960E94C80380918A
:10509000E8008E778093E8001F701093E90044CDFC
:1050A00080911A0190911B01892B99F2809109023C
:1050B000B4CF8A81823009F04CCF6B817C818D81A5
:1050C0009E810E94262B86E290E00E94A42BC1CFF5
:1050D0004C816B818A810E947510982789279827B7
:1050E0009E838D83B6CF2D813E81322723273227A1
:1050F0004C816B818A810E94D511ABCF0E94051231
:10510000A8CF8A818138C1F060F4803809F0A1CF3E
:1051100020E04B8160912902809128020E94BB12FD
:1051200098CF823859F1833809F093CF20E040912D
:105130002A026C818B81F2CF60E08B810E94BB13CD
:105140009B8180912702911111C08E7F809327024D
:1051500010921102BFEFE0E7F2E0B150E040F04002
:10516000E1F700C000000E94720C73CF8160809351
:10517000270260E086950E94BB136BCF8B818093E2
:105180002B0267CF823891F0833809F062CF80918B
:1051900028028B83809129028C835BCF8091270228
:1051A00080FF02C0869539CF80E037CF80912B02F7
:1051B00034CF60912702709128028091290290914A
:1051C0002A020E94A91245CF83E08A838BE925CF6A
:1051D000EC80F12C2DE1E216F10408F03ACF6A8060
:1051E0007B807624672476248E010F5F1F4FE00EAC
:1051F000F11EC3018B599F4FE016F10609F429CF28
:105200004BE9641643E0740658F40E94902BD801D1
:1052100014968C93FFEF6F1A7F0A0F5F1F4FE9CF31
:10522000F8011482F7CF0E94951113CF82E0B4CE1B
:10523000EC80F12C2DE1E216F10408F00ACF6A802F
:105240007B807624672476248E010F5F1F4FE00E4B
:10525000F11EC3018796E016F10609F4FACE44E187
:105260006416710458F40E94902BD80114968C9304
:10527000FFEF6F1A7F0A0F5F1F4FEBCFF801148209
:10528000F7CFEC80F12C2DE1E216F10408F0E1CE2D
:105290000A811B811027012710270431110508F00E
:1052A000D8CE84E190E0801B910B8E159F0508F409
:1052B000D0CECE0101963C01E00EF11EC8018796CA
:1052C0000E151F0509F4C5CE0431110528F4D301CC
:1052D00014966C910E94A42BBFEF6B1A7B0A0F5F90
:1052E0001F4FECCF88E0E0E2F1E0DE019196019003
:1052F0000D928A95E1F780E2FE013196DF011D9261
:105300008A95E9F784E0898388E0B096DE011596F6
:1053100001900D928A95E1F79CCE80E189838A8283
:105320001B821C8296CE8C81682F70E0762F6627B8
:105330008B81860F972F911D092E000CAA0BBB0B9A
:1053400045E0880F991FAA1FBB1F4A95D1F7AC01F2
:10535000BD01405E5F4F6F4F7F4F481759076A0787
:105360007B0708F476CE8031E1E09E07A105B10508
:1053700008F06FCE4131F1E05F076105710520F063
:1053800040E151E060E070E0481B590BBC016E5FEA
:105390007D4FCE0101960E946A2B5BCE1B810C8152
:1053A00040E0602F812F0E944D1098278927982771
:1053B0009A83898341E0602F812F0E944D109827A6
:1053C000892798279C838B8344CE2E813F81322767
:1053D000232732274D816C818B810E94A51139CE04
:1053E0004EE150E06FEF70E0CE0103960E94892BF2
:1053F00080911A0189830A832CCE81E090E09093FA
:105400002F0280932E0282E390E090930802809313
:1054100007020E9419051DCE80911A0189830A8313
:1054200080910702FACD0B811C8140E250E06FEFC2
:1054300070E0CE0101960E94892B2FE335E090E0C9
:1054400080E0AC014E5F5F4F4132510508F001CE64
:10545000F901659174910617170750F4A1E0B0E0C7
:10546000AC0FBD1F8A0F9B1FFC0171836083CA01B3
:10547000285F3F4FF5E02F383F0719F7EACD2B8122
:105480003C818FE395E0FC01459154912417350749
:1054900009F43DC0089645E08F389407A1F759CD2F
:1054A0002B813C810FE315E08FE895E0F8014591F1
:1054B00054912417350709F442C0085F1F4F801725
:1054C0009107A1F746CD0E947211C3CD8B81811146
:1054D000C0CD80E2FE013196DF011D928A95E9F789
:1054E000B8CD09BD19BD09B400FEFDCF8091D8002B
:1054F0008F7D8093D8008091E00082608093E000EF
:105500008091E00081FDFCCF0E9427146BCC9C01B0
:105510002E5F3F4FF901459154914032510508F0FB
:1055200018CDF90145915491FC013496659174911F
:10553000CE0102960E94802B80E089838ACDC8012B
:105540000296FC01259134912D31310508F001CDF1
:10555000FC0145915491F801349685919491BE01D6
:105560006B5F7F4F0E94802B0E945611F801369688
:1055700085919491009701F3FC010995DDCF86E2B6
:1055800090E00E94902B1B821C821D828E8361CD35
:1055900087FB082E062687FD819567FD61950E9491
:1055A0005E2B0EF4919507FC81950895AA1BBB1BF9
:1055B00051E107C0AA1FBB1FA617B70710F0A61B13
:1055C000B70B881F991F5A95A9F780959095BC0134
:1055D000CD01089597FB072E16F4009407D077FDB0
:1055E00009D00E94D62A07FC05D03EF490958195FB
:1055F0009F4F0895709561957F4F0895A1E21A2EEF
:10560000AA1BBB1BFD010DC0AA1FBB1FEE1FFF1F66
:10561000A217B307E407F50720F0A21BB30BE40BB6
:10562000F50B661F771F881F991F1A9469F76095FD
:105630007095809590959B01AC01BD01CF010895B7
:10564000EE0FFF1F0590F491E02D0994692796272E
:10565000692778278727782708950E94352B3323D9
:1056600012F48A1B9B0B0C94462BA29FB001B39F94
:10567000C001A39F700D811D1124911DB29F700D5B
:10568000811D1124911D08950E94352BB7FF0895A7
:10569000821B930B08950E94352BA59F900DB49FFC
:1056A000900DA49F800D911D11240895B7FF0C94B7
:1056B0004B2B0E944B2B821B930B0895991B79E077
:1056C00004C0991F961708F0961B881F7A95C9F792
:1056D00080950895FB01DC0102C005900D924150B8
:1056E0005040D8F70895FC014150504030F00190EF
:1056F0000616D1F73197CF01089588279927089585
:10570000FB01DC0102C001900D9241505040D8F7DE
:105710000895DC0101C06D9341505040E0F70895B9
:10572000F999FECF92BD81BDF89A992780B5089569
:10573000A6E1B0E044E050E00C94CA2BA8E1B0E050
:1057400042E050E00C94CA2B262FF999FECF92BD6F
:1057500081BDF89A019700B4021639F01FBA20BD36
:105760000FB6F894FA9AF99A0FBE08950396272F68
:105770000E94A52B0E94A42B252F0E94A52B242F2D
:105780000C94A52B0196272F0E94A52B0C94A42BDB
:10579000DC01CB01FC01F999FECF06C0F2BDE1BDF1
:1057A000F89A319600B40D9241505040B8F70895E0
:1057B000F894FFCF3F093F09480948094A094809B9
:1057C000480948093F093F094F09480948094F0955
:1057D00018154015EE164015EE1673159415EE16B5
:1057E0009D16AA16341C341C6D1C6D1C331DA71C81
:1057F000A71CA71C4D1DBA1DCB1DCB1D72298D29C1
:105800009329CE29E529F029FD290C2A2928132AD4
:085810003F2A502A632A662A90
:1058180005050A0B0405060B020B020501191A1BE4
:105828001C1D1E1F2021220102010100AF000101E1
:105838003450C22EF646581C818283E200E900EA01
:1058480000B500B600B700CD008301CC008A0192F4
:105858000194012102230224022502260227022A9A
:1058680002B300B4006F007000C6973534F400FF2F
:105878000100010000FFFF0000010001FF0000011E
:10588800020202020606060909090909090F0F0F93
:105898000F0F0F151515181919191919191919199B
:1058A8001923244022320001DE00AC00A105BA050C
:0258B800DA050F
:00000001FF
