:100000000C94FD020C941A030C941A030C941A031A
:100010000C941A030C941A030C941A030C941A03EC
:100020000C941A030C941A030C949A1C0C94561CEE
:100030000C94971D0C941A030C941A030C941A0335
:100040000C941A030C941A030C941A030C941A03BC
:100050000C941A030C94731D0C941A030C941A0339
:100060000C941A030C941A030C941A030C941A039C
:100070000C941A030C941A030C941A030C941A038C
:100080000C941A030C941A030C941A030C941A037C
:100090000C941A030C941A030C941A030C941A036C
:1000A0000C941A030C941A030C941A03050109808A
:1000B000A101850319012AB700150126B700950192
:1000C00075108100C0050C0901A101850419012AE0
:1000D000A002150126A002950175108100C00660DE
:1000E000FF0961A1010962150026FF00952075082E
:1000F00081020963150026FF00952075089102C052
:1001000005010906A101050719E029E715002501E8
:10011000950875018102950175088101050719008F
:1001200029FF150026FF00950675088100050819AE
:10013000012905950575019102950175039101C08D
:10014000783C1E1E140A05FD377A585A000004E652
:10015000D6B4460200210116000000742FE5A3E08A
:1001600000F4009D5D003D8889C65436C3174FE4F6
:10017000E20F5525C005AEC83220396380EDF8E3A3
:10018000B98EEE0D9735C6B7D474ABCEE3D75A030C
:100190001A667732D2C4468C0FC5F1E20704E05BE1
:1001A000AF9C2BB0FD748211D4E1EDE15D07D2F379
:1001B000FD7B513690B71B5F4FE4D5FF6F42EEEFEA
:1001C000EBA709D2529B83DC6D3FDA122F58513EC8
:1001D0007BA13C733C0EB26BB3154F79F741616D57
:1001E000D8FE00F4CFA7A89F6E70A823F02C8755E7
:1001F00004C01833F04FD435C022E2997AA689732F
:10020000DF930000000000E471B59513640CFE005C
:1002100001B901F501000072338A73B1C467FB02B2
:100220000000000004595A0001010101010101010F
:100230000102020202020202020203030303030399
:100240000303040404040404040505050505060667
:100250000606060707070707080808080909090925
:100260000A0A0A0B0B0B0C0C0C0D0D0D0E0E0E0FCB
:100270000F0F10101111111212131314141515165B
:10028000161717181819191A1A1B1B1C1D1D1E1ECC
:100290001F2020212222232424252626272829291D
:1002A0002A2B2C2D2D2E2F30313232333435363748
:1002B00038393A3B3C3D3E3F404142434445464746
:1002C00048494A4C4D4E4F50515354555658595A1F
:1002D0005B5D5E5F616264656668696B6C6D6F70C3
:1002E00072737577787A7B7D7E8082838587888A32
:1002F0008C8E8F91939596989A9C9EA0A2A3A5A769
:10030000A9ABADAFB1B3B5B7BABCBEC0C2C4C6C964
:10031000CBCDCFD1D4D6D8DBDDDFE2E4E7E9EBEE1D
:10032000F0F3F5F8FAFDFF2223252628292A2C2DA3
:100330002F3032333536383A3B3D3E404243454715
:10034000494A4C4E5051535557595A5C5E6062644D
:100350006668696B6D6F71737577797B7D7F81835B
:100360008587898A8C8E90929496989A9C9E9FA15C
:10037000A3A5A7A8AAACAEAFB1B3B4B6B8B9BBBC7D
:10038000BEBFC1C2C3C5C6C7C9CACBCCCDCED0D1F2
:10039000D2D2D3D4D5D6D7D7D8D9D9DADADBDBDBEA
:1003A000DCDCDCDCDCDDDDDDDDDCDCDCDCDCDBDB8B
:1003B000DBDADAD9D9D8D7D7D6D5D4D3D2D2D1D0DF
:1003C000CECDCCCBCAC9C7C6C5C3C2C1BFBEBCBBDC
:1003D000B9B8B6B4B3B1AFAEACAAA8A7A5A3A19F54
:1003E0009E9C9A98969492908E8C8A898785838118
:1003F0007F7D7B79777573716F6D6B6968666462F9
:10040000605E5C5A5957555351504E4C4A494745C6
:100410004342403E3D3B3A3836353332302F2D2C67
:100420002A292826252322A900AA00A900AA00A972
:1004300000AA00A900AA00C25CA8000000AC00ABA2
:1004400000AE0001000100000001000100010001F8
:100450000001000000010001000100010001000096
:100460000001000100010009025B00030100A0FA85
:10047000090400000103010100092111010001220A
:100480004000070581030800010904010002030080
:10049000000009211101000122220007058203202A
:1004A0000001070503032000010904020001030005
:1004B00000000921110100012232000705840320F8
:1004C00000011201000200000008EDFEB02311013E
:1004D000010203011C037600690061006C003A0010
:1004E00066003600340063003200620033006300AF
:1004F000000024034C006900740074006C00650067
:100500004200690067005300630072006F006C00D6
:100510006C002000340000002C03540077006500BC
:1005200065007400790073002000570069006C00BA
:10053000640020005400680069006E006B006900D0
:100540006E006700000004030904000000000000C2
:10055000000000000000000000000000000000009B
:1005600000000000000000000000000000007E0FFE
:1005700000D4FFFFFFC7000000780000000000006B
:1005800000002A2B280000000000000000000000EE
:10059000000000000029000000002C1E3420212251
:1005A00024342627252E362D3738271E1F202122BA
:1005B000232425263333362E37381F040506070833
:1005C000090A0B0C0D0E0F10111213141516171823
:1005D000191A1B1C1D2F3130232D35040506070861
:1005E000090A0B0C0D0E0F10111213141516171803
:1005F000191A1B1C1D2F3130354C11241FBECFEF93
:10060000DAE0DEBFCDBF11E0A0E0B1E0E6E3FCE45C
:1006100002C005900D92A637B107D9F723E0A6E7EF
:10062000B1E001C01D92A833B207E1F70E94BE1DE0
:100630000C94F5250C940000E8EDF0E080818E7FAD
:1006400080831092E2001092DA001092E100A0EE96
:10065000B0E08C9181608C9380818F77808319BC0E
:10066000A7EDB0E08C918E7F8C9380818F7E80830C
:1006700010921F0308952091E4003091E50095E663
:10068000A9012091EC00822F817020FF06C080918B
:10069000E80080FF06C080E008952091E80022FD78
:1006A0001AC080913603882389F0853089F08091C3
:1006B000EB0085FD0FC02091E4003091E50042176A
:1006C0005307F9F29150E1F684E0089582E008952D
:1006D00083E0089581E00895EF92FF920F931F93B6
:1006E000CF937C018B010E943B03C82F811117C05F
:1006F0008091E80085FD0BC08091E8008E778093A3
:10070000E8000E943B03882399F3C82F08C0F70133
:1007100081917F018093F1000150110949F78C2FDD
:10072000CF911F910F91FF90EF900895CF93FC010F
:1007300080913603843001F5C091E900CF7020919B
:10074000EC00922F917020FD90E8C92B82E08093FD
:10075000E9008091E80080FF0CC050E040E060E2DA
:1007600070E0CF010E946C038091E8008E77809347
:10077000E800CF70C093E900CF91089580912E03D7
:1007800087FF13C08091E80082FF06C08091E800D7
:100790008B778093E80004C0809136038111F2CFFB
:1007A0000895809136038823D9F38091E80080FF73
:1007B000F8CF8091E8008E77ECCF982F9093E900E6
:1007C000242F762F50E0891731F07091EC002091A2
:1007D000ED005091F00021FD07C09F5F973071F749
:1007E0008093E90081E008953091EB003E7F3093E3
:1007F000EB003091ED003D7F3093ED003091EB0048
:1008000031603093EB007093EC002093ED00509337
:10081000F0002091EE0027FDE0CF80E00895B0E0E9
:10082000A0E0E5E1F4E00C943E25C8EDD0E088813D
:100830008F7E8883E7EDF0E080818160808384E0B3
:1008400082BF81E080931F0388818E7F888302EEC0
:1008500010E0F80110821092DA0081EEC82ED12C3F
:10086000F601108288818F778883888180688883E9
:1008700088818F7D888319BC1092360310922D03D6
:1008800010922C0310922B0390EEE92EF12CF7011D
:1008900080818B7F808388818160888342E060E0F3
:1008A00080E00E94DD03F60180818E7F8083F80165
:1008B000808181608083808188608083F70180816E
:1008C0008E7F8083888180618883CDB7DEB7E8E042
:1008D0000C945A25FC0180913403909135038617BE
:1008E0009707A0F06115710529F49091E8009E77B3
:1008F0009093E80090E06115710551F4911108C0E2
:100900008091E80082FF34C080E00895BC01F2CFFE
:10091000809136038823C1F18530C1F18091E800D0
:1009200083FD30C08091E80082FDEACF8091E8002D
:1009300080FFE1CF8091F3002091F200382F611504
:10094000710519F02830310558F091E02830310553
:1009500009F090E02091E8002E772093E800CBCFBB
:1009600081918093F100615071092F5F3F4FE7CF74
:1009700080913603882341F0853041F08091E80072
:1009800083FFBECF81E0089582E0089583E008955B
:1009900008950895089580912203089587E797E7C1
:1009A000909301088093000888E19AE00FB6F894CC
:1009B000A895809360000FBE90936000FFCF9C01CC
:1009C0004FB7F8948091180390911903A0911A03DE
:1009D000B0911B034FBF821B930B08952FB7F89460
:1009E000609118037091190380911A0390911B0371
:1009F0002FBF08952FB7F894809118039091190391
:100A0000A0911A03B0911B032FBF089520911503E5
:100A1000309116032817390771F0909316038093CD
:100A20001503E0911303F0911403309721F0008433
:100A3000F185E02D0995089520911103309112035D
:100A40002817390771F09093120380931103E091F6
:100A50001303F0911403309721F00680F781E02D05
:100A600009950895E0911303F0911403309729F04C
:100A70000190F081E02D0995089580E00895DC0152
:100A800060910D0380910E03962F891301C0089584
:100A9000292F30E0F901EE0FFF1FEB5FFC4F408183
:100AA00051814A175B07A1F487E08A9FA0018B9FC1
:100AB000500D112443535D4F81E0FA018483961356
:100AC000E6CF2F5F3F4F2370332720930D03089508
:100AD0002F5F3F4F922F9370D8CF109269021092E0
:100AE0006802EDECF2E08581811102C01482168269
:100AF000379683E0E530F807B1F70895FA018111E0
:100B000001C0FB010995089580910D02982F9E7FE9
:100B100029F48170826080930D0208958231E8F398
:100B200081708061F8CFAF92BF92DF92EF92FF9217
:100B30000F931F93CF93DF93082F162FE901E42F14
:100B4000F0E0E95DFD4F611110C0E4915E2F4E2F82
:100B50004983E8835A83DF91CF911F910F91FF90D2
:100B6000EF90DF90BF90AF900895E62EF12C449166
:100B7000D42EE42FF0E026E0829FC00111242FEF55
:100B800030E0B9010E94FF24802F90E0880F991F68
:100B900055E5569FD001579FB00D11248A1B9B0B22
:100BA000982F990F890F5901AE18BF08AE9ED0013A
:100BB000AF9EB00DBE9EB00D11245B2F189F80011B
:100BC0001124012F11275901A01AB10AAE9E8001EC
:100BD000AF9E100DBE9E100D11245901A81AB10828
:100BE000AE9CC001AF9C900DBE9C900D1124892F2E
:100BF0009927281B390B2E9FC0012F9F900D3E9FD8
:100C0000900D1124E92F62307105A1F050F46115A7
:100C1000710509F49DCF6130710581F0EB2F512FE3
:100C200097CF6430710569F080F06630710509F482
:100C30008FCFF4CFE42F4B2F592F8ACFE42F412FA2
:100C400087CFEB2F542F492F83CF4B2F5D2DE12FD3
:100C50007FCF80E008959091DE0192FF06C0282F9B
:100C600028712830F9F4877F846093FF06C0282F0D
:100C700028712831F1F4877E84612091DF0120FF03
:100C800006C0382F38713830D9F4877F816021FF52
:100C900006C0282F28712831D1F4877E816194FD08
:100CA000877E0895282F24712430F9F68B7F886081
:100CB000DCCF282F2471243101F78B7E8861DDCFB2
:100CC000382F3171313019F78E7F8860E0CF282FAF
:100CD0002171213121F78E7E8861E1CFCF93DF939F
:100CE000EC018238910581F1D8F58133910509F441
:100CF00098C020F58932910509F488C08A9709F4D3
:100D000097C0C11521E5D20708F0B1C0C11530E583
:100D1000D30708F0F9C0CF3BD10508F090C0C83A1E
:100D2000D10508F0E6C0C53AD10508F0DAC0C430F4
:100D3000D10520F5C130D10509F145C085339105B4
:100D400009F45FC0C997E9F68091DE01837009F06C
:100D500029C18091DF0183FF11C0C9E2D0E00EC03C
:100D6000833E910599F170F4803E910501F1823E38
:100D7000910539F68091DE0182FD21C0CE01DF911F
:100D8000CF910895863E910561F1873E910571F1FD
:100D9000843E910509F0B5CF8091DF0181FFEECF50
:100DA0008091DE01C7EED0E084FD0DC0E7CF8091D9
:100DB000DE0180FD33C09091DF0190FFDFCFC3EEF5
:100DC000D0E084FFDBCFD0E0C0E0D8CF8091DE015F
:100DD00082FDE5C09091DF0190FDE4C084FFCECF9D
:100DE000F2CF8091DE0183FDDDCFC8CF8091DE019F
:100DF00083FDDBC09091DF0191FFF0CFC4EED0E026
:100E0000BDCF8091DE0185FFB9CFA7CF8091DE01F4
:100E100085FDCEC08091DF0183FFB0CFC9E3D0E074
:100E2000ADCF8091DE0186FFA9CFCAE2D0E0A6CF88
:100E30008091DE0186FFA2CFC1E3D0E09FCFC11534
:100E400040E2D40760F4C11581E0D80708F096CFDE
:100E5000CE01805E9109089708F490CFB4CFC115F8
:100E600020E4D20708F4AFCFDF70D06A87CFC11576
:100E700034E5D30778F4C11543E5D40708F06DC015
:100E8000C11582E5D80708F054C0DC2FCC27C16F0C
:100E9000D06A74CFC1152AE5D20778F4C11539E5B7
:100EA000D30708F06EC0C11548E5D40708F48BCF0E
:100EB000DC2FCC27C06FD06A61CFCE019056811550
:100EC000904208F080CF8D2F8F710E942B0690E00A
:100ED000982F882788279F719C012C2BE901D062CD
:100EE0004DCFC55AD0E0C95EDE4FC881D0E0D06496
:100EF00045CFC85AD0E0CC0FDD1FC65EDE4F09904B
:100F0000D881C02DD4643ACF2C2F269526952370F6
:100F100040E2249F900111248C2F8370C1E0D0E027
:100F200002C0CC0FDD1F8A95E2F7C22BD32BDD6800
:100F300025CFCE018370992721E030E002C0220F37
:100F4000331F8A95E2F7C695C69580E2C89FE001F7
:100F50001124C22BD32BDC6811CFCE0183709927CB
:100F600021E030E002C0220F331F8A95E2F7C695D8
:100F7000C69540E2C49FE0011124C22BD32BDA684E
:100F8000FDCE8C2F8F700E942B0634E0D695C7952E
:100F90003A95E1F7CF709C2FEC01D069EFCEC2EE0D
:100FA000D0E0ECCEC0EED0E0E9CEC6EED0E0E6CEAA
:100FB000C5E3D0E0E3CE8091CF0190918E019813EC
:100FC00001C008958F5F8770FACFA82FA77023E024
:100FD000969587952A95E1F7FC01EE0FFF1FE80F24
:100FE000F91FE60FF71F50E040E080E0219130E06C
:100FF0000A2E02C0369527950A94E2F7217033270E
:10100000042E01C0220F0A94EAF7822B4F5F5F4F34
:101010004330510559F70895903FC9F0923080F45C
:101020008330A8F4282F30E063E871E0A901E3E001
:101030009E9F400D511D1124CA010E94E50708958D
:101040009C5F923020F460E871E090E0F6CF80E0A1
:101050000895262F277091E001C0990F2A95EAF78D
:1010600023E0769567952A95E1F7FB01EE0FFF1FC8
:10107000E60FF71FE40FF51F50E040E0682F70E027
:101080008191DF0111979B01042E02C036952795AF
:101090000A94E2F7217021952827292328272C93E9
:1010A0004F5F5F4F4330510559F70895282F862F22
:1010B000903F79F0923070F4233058F4622F70E052
:1010C00023E0929F600D711D112443E851E00E94BE
:1010D000290808959C5F9230E0F7622F70E040E8A5
:1010E00051E0F5CF9C013A9521153F4150F5FC01A7
:1010F000EE27F170BC0166277270AC014427547072
:101100009C012227387094FF0EC080E1EF2B09F478
:1011100080E0672B09F08062452B09F08064232B67
:1011200089F08068089581E0EF2B09F480E0672B57
:1011300009F08260452B09F08460232B19F0886048
:10114000089580E0089580931C0370931E036093BC
:101150001D03809136038430F9F48093E9008FEF0A
:101160009091E800815095FD06C095ED9A95F1F7B4
:1011700000008111F5CF8091E80085FF0DC050E09F
:1011800040E063E070E08CE193E00E946C038091AA
:10119000E8008E778093E8000895BC0184E00E9407
:1011A000A3080895BC0183E00E94A3080895CF938B
:1011B000DF93EC0181E08093E9008FEF9091E800EC
:1011C000815095FD06C095ED9A95F1F700008111CB
:1011D000F5CF8091E80085FF14C050E040E068E062
:1011E00070E0CE010E946C038091E8008E778093BE
:1011F000E80088E0FE01A3E2B3E001900D928A9539
:10120000E1F7DF91CF91089580910D0280FD0AC032
:10121000E3EFF1E0118210821282339652E0E53062
:10122000F507C1F7529A3BB13B7F2BB124604FB712
:10123000F89483EF91E0FC015191CF0168E02BB964
:10124000000000C057FF3BB9550F000000C000C0B0
:1012500000C03BB900C06A9591F7F2E085309F0766
:1012600051F74FBF8FE594E00197F1F700C0000000
:10127000089590910D0290FF0CC0E3EFF1E081839F
:1012800060834283339692E0E530F907C1F70E940C
:1012900004090895A3E0B0E0E0E5F9E00C944425EA
:1012A00090910D0290FF0AC09E012F5F3F4F0E9458
:1012B00093054B8169818A810E9439092396E2E076
:1012C0000C946025CF93DF93EC01EDE0F2E04381D5
:1012D00062818C810E944A098C818F5F8C83DF91AF
:1012E000CF910895CF93DF93EC01EC81F0E0E95DBD
:1012F000FC4F4491EDE0F2E0628181810E944A0955
:101300008C818F5F8C83DF91CF910895CF93DF9392
:10131000C7EBD0E060E0CE010E94B9252196C1154F
:1013200084E0D807B9F7DF91CF9108950F931F9309
:10133000CF93DF93142F022F8430F0F461111CC07F
:1013400094E0899FE0011124C95ADF4F82E090E0C8
:10135000442311F090E080E0632F8C0F9D1F0E94CA
:10136000B92583E090E0112311F081E090E0602F37
:101370008C0F9D1F0E94B925DF91CF911F910F9176
:1013800008951F93CF93DF93122F8430E0F46230DF
:10139000D0F44330C0F4C42FD0E0CC0FDD1F96E072
:1013A000699FC00DD11D11249CE0899FC00DD11DE6
:1013B0001124632FCE0187960E94B925612FCE019B
:1013C00088960E94B925DF91CF911F910895CF9300
:1013D000C82F6FEF811162EF83E290E00E94B92580
:1013E0006FEFC11166E984E290E00E94B9256FEFCA
:1013F000C11169E585E290E00E94B925CF91089579
:10140000AAE0B0E0E6E0FAE00C94382580906202B1
:101410009090630281E090E0909363028093620277
:1014200087E2C82E84E0D82E99E2A92E94E0B92E46
:1014300027E3E22E24E0F22E10E0370100E0F30172
:1014400025913491402F60E0812F0E94C10992E0E4
:10145000690E711C0F5F033091F7370196E0690E3A
:10146000711C00E0F30125913491402F61E0812F40
:101470000E94C10982E0680E711C0F5F033091F772
:10148000F6012591349141E060E0812F0E94960998
:10149000F5012591349140E060E0812F0E9496098A
:1014A000E4E0CE0ED11C1F5FF4E0AF0EB11C8CE067
:1014B000E80EF11C143009F0C0CFFE0131967F0117
:1014C0008AE011928A95E9F707E610E04AE050E0D9
:1014D000B801C7010E94DD25065F1F4F073B1105BC
:1014E000A9F790926302809262022A96EEE00C9431
:1014F000542580E00E94E70960E086E290E00E94C7
:10150000B9250E94000A0E94860981E00E94E7092D
:101510000895FF920F931F93CF93DF93F42E84309F
:1015200040F5611126C024E0829F80011124095AF0
:101530001F4F82E090E0442311F090E080E0800FA4
:10154000911F0E94A525C82FD0E0DC2FCC2783E077
:1015500090E0FF2011F081E090E0800F911F0E9449
:10156000A5259E01282BC901CDB7DEB7E5E00C9477
:101570005D2590E080E0F8CF0F931F93CF93DF932A
:10158000843030F5623020F5433010F5C42FD0E0C0
:10159000CC0FDD1F26E0629FC00DD11D11243CE061
:1015A000839FC00DD11D1124CE0187960E94A525D1
:1015B000082F10E0102F0027CE0188960E94A52545
:1015C0009801282BC901DF91CF911F910F910895A8
:1015D00090E080E0F8CF462F672F2091660230918F
:1015E0006702232BF9F4703F39F4403FD9F480911E
:1015F00064029091650208958430A0F4723028F45A
:10160000433080F40E94BC0A08957D3F39F44111B3
:1016100009C041E060E00E94890A08957C3F11F40E
:101620004423C1F390E080E00895CF92DF92FF92CF
:101630000F931F93CF93DF936C0100913703809139
:10164000D801082BC7E0D0E010E0FC2EC8010C2E1A
:1016500002C0959587950A94E2F780FD0CC021970A
:10166000A0F7F12C8F2DDF91CF911F910F91FF905B
:10167000DF90CF900895B6018C2F0E94EB0A0E9454
:101680006E06019761F3EECFCF93DF93EC010E94DA
:10169000150BBE010E94EB0A0E946E06DF91CF91EE
:1016A0000895FC0183819481892B29F080819181A7
:1016B00089238F3FF1F480E008950E946E06929591
:1016C0009F70963089F058F4925F9F70923098F72F
:1016D000803F19F030F4883E70F781E008959A5FFA
:1016E000F4CF843F41F7F9CF883EB8F3813F19F733
:1016F000F4CF86819781009701F7808191810E94C4
:10170000440BDDCFA5E0B0E0E8E8FBE00C94432516
:101710009C01FC01868197810097E1F485E0DE0160
:10172000119601900D928A95E1F7F9012281898144
:101730009A81222399F0662389F00E94150B182FB5
:10174000682F89819A810E94560869817A81812F48
:101750000E94EB0A2596E3E00C945F250E940C089A
:10176000182FF3CF83E290E00E94A525823F89F4F1
:1017700084E290E00E94A525863959F485E290E044
:101780000E94A52591E0893509F090E0892F8170AC
:10179000089580E0FCCFAAE0B0E0E1EDFBE00C941E
:1017A0003E25E2E1F2E080E5DF011D928A95E9F74E
:1017B000EDECF2E088E3DF011D928A95E9F782E122
:1017C000C82E82E0D82E7F0107E610E0F701D18213
:1017D000C0824AE050E0B801CE0101960E949525F2
:1017E00088E0FE013196D60101900D928A95E1F7CD
:1017F00089859A85D70113969C938E931297BAE0A8
:10180000CB0ED11CE7E0EE0EF11C065F1F4F073B2D
:101810001105E1F62A96E8E00C945A2560910D0234
:10182000669570E041E050E08CE091E00E94742504
:10183000892B19F481E080930C020E94FA049093A2
:101840000602809305020895CF92DF92EF92FF92F5
:101850006B017C010E948405B701A60188E090E03D
:101860000E94CB25FF90EF90DF90CF900895A3E0EA
:10187000B0E0EDE3FCE00C944025082FF62E142F89
:10188000E22E80910D0280FF28C0E82FE695F0E05F
:10189000E25AFE4F908190930B028E7F823009F5C1
:1018A0009E012F5F3F4F802F0E9493054B816981DE
:1018B0008A810E94390900930E02F0920F02109360
:1018C0001002EE2051F060910D0270910E02809195
:1018D0000F02909110020E94240C2396E6E00C94D3
:1018E0005C25923019F410911002E5CF963019F76B
:1018F00000910E02E0CFEDE0F2E0438121E1421BD6
:1019000008F440E021E0628181810E94370C089553
:10191000EDE0F2E0438121E1420F08F44FEF21E0D6
:10192000628181810E94370C0895EDE0F2E06281CE
:1019300021E1621B08F460E021E0438181810E9483
:10194000370C0895EDE0F2E0628121E1620F08F4C6
:101950006FEF21E0438181810E94370C0895EDE013
:10196000F2E0818121E04381628188500E94370C3E
:101970000895EDE0F2E0818121E043816281885F9A
:101980000E94370C089580911102882319F081502C
:101990008093110260910D0270910E0280910F02EE
:1019A000909110020E94240C0895809111028330BE
:1019B00018F48F5F8093110260910D0270910E02F6
:1019C00080910F02909110020E94240C0895909132
:1019D0000D0290FF2CC0917081112AC092609093EB
:1019E0000D02662351F060910D0270910E028091FC
:1019F0000F02909110020E94240C60910D026695D6
:101A000070E041E050E08CE091E00E947425892B69
:101A1000B1F010920C0281E08093080220E0409126
:101A2000100260910F0280910E020E94370C0895FF
:101A3000893010F09061D3CF880F982BD0CF0E94BF
:101A40000E0CE9CF80910D028695815009F488E053
:101A500061E00E94E70C089580910D0286958F5FEA
:101A6000893008F081E061E00E94E70C08959091D0
:101A70000D0290FF08C09695981728F0961718F455
:101A80000E942C0D089561E00E94E70C0895EDE09E
:101A9000F2E08DE0808311828FEF828385E583837E
:101AA000148260817181828193810E94240C089547
:101AB00068EE7EEF90E080E00E94D72560E082E053
:101AC00090E00E94B92560E083E090E00E94B92593
:101AD0001092D80160E084E090E00E94B92564E0B3
:101AE00082E290E00E94B92560E085E090E00E94EB
:101AF000B92560E086E090E00E94B9256FEF87E0AD
:101B000090E00E94B92540E050E0BA0188E090E002
:101B10000E94CB2560E08DE090E00E94B92540E076
:101B200050E0BA0188E190E00E94CB2560E087E1B7
:101B300090E00E94B92540E050E0BA018CE190E0CD
:101B40000E94CB2570E060E080E290E00E94D72503
:101B500040E050E0BA0188E190E00E94CB2580E0AF
:101B60000E94E7090E94790A40E050E0BA018FE044
:101B700090E00E94CB2540E050E0BA0183E190E084
:101B80000E94CB2508958091200390916A02892BB1
:101B90008093780148E050E060ED71E088E791E0E3
:101BA0000E948125892BA9F088E0E8E7F1E0A0ED0B
:101BB000B1E001900D928A95E1F7E0911303F09165
:101BC0001403309731F00280F381E02D88E791E033
:101BD0000995089590E080E00E941C0590E080E067
:101BE0000E94060510926A020E94C30D0895809318
:101BF00037030E94EA0D089580913703982F96705D
:101C0000963021F488600E94F70D0895877FFBCFFE
:101C100021E030E001C0220F8A95EAF720958091FB
:101C2000370382230E94F70D089521E030E001C0C0
:101C3000220F8A95EAF780913703822B0E94F70DD5
:101C400008958093D8010E94EA0D0895EAE7F1E033
:101C500086E0DF011D928A95E9F70E94EA0D08955A
:101C6000AAE2B0E0E6E3FEE00C9443258EE293E0C6
:101C70002091F100DC012D93CD01B3E086339B0769
:101C8000B9F780912F03833009F472C0B8F4813022
:101C900009F449C0823009F4B5C08091E80083FF9F
:101CA00098C280912E0390912F039A3008F091C230
:101CB000E92FF0E0E950FA4D0C9427258A3009F419
:101CC00090C08B3009F471C0893039F780912E03B0
:101CD000813219F78091320390913303009711F00C
:101CE0000297D9F68091E800877F8093E800809181
:101CF000E80082FF38C09091F3008091F2000297D3
:101D000031F48091F100813011F0863021F480911E
:101D1000F100809322038091E8008B778093E800A4
:101D20000E94BE03BACF80912E03813A09F0B5CF4D
:101D30008091E800877F8093E80080913203909142
:101D40003303892B61F468E083E293E070E00E9442
:101D50006A048091E8008B778093E8009ECF60E072
:101D600090E080E0F3CF809136038111C0CF95CF12
:101D700080912E03813A09F090CF809132039091A7
:101D80003303892B09F089CF8091E800877F809306
:101D9000E8008091E80080FFFCCF80910E018093E5
:101DA000F1008091E8008E77B9CF80912E038132C7
:101DB00009F073CF8091320390913303892B09F09E
:101DC0006CCF8091E800877F8093E8000E94BE037B
:101DD0008091300380930E01109220030E94260E02
:101DE0005CCF80912E03813209F057CF8091E800BB
:101DF000877F8093E8000E94BE0380913103809327
:101E000021034BCF80912E03813A09F046CF809178
:101E1000E800877F8093E8008091E80080FFFCCF96
:101E200080912103BCCF803899F0823809F0D1C16C
:101E3000809132038F70873008F0CBC18093E90026
:101E40008091EB0085FB882780F91092E90006C09D
:101E500080912B0390912C03911182609091E80066
:101E6000977F9093E8008093F1001092F1008091A9
:101E7000E8008E77AAC1882309F498C1823009F05E
:101E8000A8C18091300381119BC1809132038F7072
:101E90002FEF280F263008F09CC18093E900209195
:101EA000EB0020FF8DC1933031F48091EB00806214
:101EB0008093EB0085C19091EB0090619093EB00D3
:101EC00021E030E001C0220F8A95EAF72093EA0072
:101ED0001092EA008091EB008860EACF811179C10D
:101EE000109130031F778091E3008078812B8093DD
:101EF000E3008091E800877F8093E8000E94BE03A2
:101F00008091E80080FFFCCF8091E300806880939F
:101F1000E30082E0111183E0809336035AC18058B8
:101F2000823008F056C120913003309131032C3DAE
:101F3000E3E03E07A1F583E08A838AE289834FB715
:101F4000F894DE01139620E03EE051E2E32FF0E04A
:101F500050935700E49120FF03C0E295EF703F5F7C
:101F6000EF708E2F90E0EA30C0F0C7968D939D936E
:101F70002F5F243159F74FBF8091E800877F80930E
:101F8000E8006AE270E0CE0101960E946A04809146
:101F9000E8008B778093E8001CC1C096E7CF809162
:101FA000320390913303432F55274330510509F4F1
:101FB0004AC078F54130510509F485C08BE590E0C1
:101FC000E7E6F4E04230510509F003C12091E80052
:101FD000277F2093E8002091340330913503821746
:101FE000930708F49C0140E02115310509F070C009
:101FF00041116EC08091E80082FDC9CF8091360307
:10200000882329F2853019F28091E80083FFF2CF0E
:10201000BECF4132510509F447C04232510509F0A3
:10202000D8C08330910508F0D4C0FC01EE0FFF1F2B
:10203000E659FE4F0190F081E02D89599E4FDC0159
:102040008C9190E01DC0332721303105E9F0211536
:10205000310579F022303105F9F02330310509F0EE
:10206000B8C0E4EDF4E0E4918E2F90E0E4EDF4E00C
:1020700007C0E6E4F5E0E4918E2F90E0E6E4F5E0B9
:10208000009709F4A6C0A2CFE8E1F5E0E4918E2F15
:1020900090E0E8E1F5E0F4CFE2EFF4E0E4918E2F98
:1020A00090E0E2EFF4E0ECCF8330910508F091C0CE
:1020B000880F991FFC01E059FE4F0190F081E02D3F
:1020C00089E090E083CF82E190E0E2ECF4E07ECF23
:1020D00080913603882309F45ACF853009F457CF0D
:1020E0008091E80083FD53CF8091E80082FD82CF8C
:1020F0008091E80080FF78CF9091F3008091F2000A
:102100002115310519F08830910550F041E008970C
:1021100009F040E08091E8008E778093E80064CF7A
:1021200044914093F1003196215031090196E8CF56
:10213000803809F04EC08091E800877F8093E800E6
:1021400080912D038093F10092CE811142C01091B5
:1021500030031230F0F58091E800877F8093E8002B
:1021600010932D030E94BE03112311F084E005C0DB
:102170008091E30087FDFACF81E08093360342E04F
:1021800061EC81E00E94DD0342E261EC84E00E94A8
:10219000DD0342E261EC82E00E94DD0342E260EC9A
:1021A00083E00E94DD038091360313C080913003E9
:1021B000813079F481E0933009F080E080932C0342
:1021C0001092E9008091E800877F8093E8000E94E8
:1021D000BE038091E80083FF0AC08091E800877FFA
:1021E0008093E8008091EB0080628093EB00AA96D8
:1021F000E3E00C945F25109220030E94260E2FEF3F
:1022000084E39CE0215080409040E1F700C0000052
:1022100088E19AE00FB6F894A895809360000FBE0D
:1022200090936000FFCF882341F0809590916A02DF
:10223000892380936A020E94C30D0895882339F090
:1022400090916A02982B90936A020E94C30D0895A0
:10225000882341F080959091200389238093200367
:102260000E94C30D0895882339F090912003982B84
:10227000909320030E94C30D08958823C1F19CEF21
:10228000980F913A78F4EAE7F1E09191891303C04D
:10229000DF0111971C9241E0E038F407B1F70E948A
:1022A000C30D089590E2980F983088F4877021E06C
:1022B00030E0A90102C0440F551F8A95E2F7CA0118
:1022C000809590912003892380932003E8CF9BE59C
:1022D000980F933028F490E080E00E941C05089548
:1022E000885A873120F490E080E00E940605089526
:1022F0000F931F93CF93C82F882349F18CEF8C0F36
:10230000813AB8F50AE711E080E891E0F8012191FF
:10231000C21709F121E0E038F207C9F7EFEF80E0DA
:10232000D8019D918D01C91781F0EF3F19F49111EA
:1023300001C0E82F8F5F863099F7EF3F31F00E2E06
:10234000000CFF0BE858FE4FC2830E94C30DCF91D3
:102350001F910F910895EAE7F1E02191C21303C0A4
:10236000DF0111971C928E179F07B9F70E94C30DCA
:10237000D5CF80E28C0F883068F4C77021E030E060
:1023800001C0220FCA95EAF780912003822B809327
:102390002003DBCFEBE5EC0FE33040F4F0E0E95E47
:1023A000FE4F808190E00E941C05D1CFC85AC731F2
:1023B00070F6EC2FF0E0EE0FFF1FE65EFE4F80811F
:1023C00091810E940605C3CF1F93CF93DF93182FEF
:1023D000EB010E947811209739F4812F0E943D1162
:1023E000DF91CF911F9108958FE99FE00197F1F759
:1023F00000C000002197EFCFB0E0A0E0E2E0F2E102
:102400000C943C25EC018AE0A82E2881222309F4B3
:102410009FC0213009F03FC099818A81913051F4E9
:10242000229670E060E0893311F460E570E00E946C
:10243000E41105C0923029F422960E947811219669
:10244000E4CF933021F422960E943D11F8CF9430CE
:1024500011F02196F4CF229630E020E0AE014F5FDC
:102460005F4F8053990B8A30910550F0215031090C
:1024700030F38FE99FE00197F1F700C00000F6CF3D
:10248000A29EB001A39E700D11249C01260F371F40
:102490008981EA01E3CFE22FF0E0E658FA4FB490E9
:1024A000822F86958695869590E0FC01E659FA4F35
:1024B000E4902770F12C022E02C0F594E7940A9460
:1024C000E2F731E0E322FF24FC01E65AFA4FC49020
:1024D000D12C022E02C0D594C7940A94E2F731E0C1
:1024E000C322DD24FC01E65BFA4F049110E002C038
:1024F000159507952A95E2F701701127E114F1046B
:1025000019F081EE0E947811C114D10419F086EE01
:102510000E94781189E370E060E0B81202C060E5C3
:1025200070E08B2D0E94E411C114D10419F086EEE5
:102530000E943D11E114F10419F081EE0E943D1159
:102540000115110509F47BCF70E060E08CE26FCFDC
:10255000CDB7DEB7EAE00C945825A4E0B0E0E3EB99
:10256000F2E10C943D257C01FC0183819481892B4F
:1025700031F08081918189238F3F09F0EEC224964A
:10258000E9E00C945925980122513F45203131054D
:1025900008F0D0C28FEF93E00E94A5258111EFCF04
:1025A000025197EBE92EF12C011133C019821A82E6
:1025B0001B821C82BB24BA9487010F5F1F4FC70187
:1025C0000E94A52589831A828823C9F2813009F0E7
:1025D00081C0670142E0C40ED11CC8010E94A5253C
:1025E000082F8A83882359F2C6010E94A525182F37
:1025F0008FEF800F8330E0F4670153E0C50ED11CEC
:102600001B83112321F0CE0101960E94FC1176015B
:10261000D3CFE114F4E0FF0609F4B1CFC7010E9463
:10262000A525811101C001502FEFE21AF20ABCCF9B
:102630008BEF800F833038F5C70103961B836C0145
:10264000112329F36701E4E0CE0ED11C0E94A525D9
:102650008C838823E1F2EB80FC80F1E0EF16FFEF42
:10266000FF0610F0FE2CEE24063049F0073019F07A
:10267000C7010E94811BC7010E94491BC8CFC70127
:102680000E94811BC4CF043011F6670124E0C20E02
:10269000D11CC70103960E94A525112309F46FCF11
:1026A000882309F46CCF8150990BB89E9001B99E94
:1026B000300D1124412F4150550BCA01820F931F39
:1026C000019708F4A4CFEFE9FFE03197F1F700C0DC
:1026D0000000F6CFCE0101960E94FC11680197CF51
:1026E00081E00E94150E03C081E00E94080E0E9446
:1026F000FC0D45CF82E0F5CF82E0F7CF073CECE55B
:102700001E0709F478C008F471C0083C2CE51207D4
:1027100009F476C0093C4CE5140709F04EC24BE7BA
:102720005CE068E87CE055C00E3C5CE5150709F408
:1027300076C088F40C3CFCE51F0709F46BC043EC41
:102740005CE065ED7CE00D3C2CE5120708F441C02F
:1027500061E081E037C0063D4CE5140750F468E0C5
:1027600086E0003D5CE5150708F009CF0E94370DB3
:1027700006CF0D35100709F402CF1FC280910D025C
:1027800080FF1BC08E7F80930D0260910D027091BF
:102790000E0280910F02909110020E94240C109260
:1027A0000C029FEFE0E7F2E09150E040F040E1F7EB
:1027B00000C000000E940409E2CE816080930D02F7
:1027C00061E086950E94E70CDACE42E25DE06CE2C1
:1027D0007DE00E947E05D3CE4CE25DE062E27DE0CA
:1027E000F8CF4FEA5CE069EB7CE0F3CF49EB5CE0CB
:1027F0006FEA7CE0EECF45E95CE062EA7CE0E9CF9D
:1028000042EA5CE065E97CE0E4CF48E85CE06BE745
:102810007CE0DFCF45ED5CE063EC7CE0DACF65E0A7
:1028200082E0A4CF073A2DE5120709F494C10115FF
:102830004CE5140709F0C1C1109220030E94260E36
:102840005FEF84E39CE0515080409040E1F700C08E
:1028500000000E94CE0400811181992369F0C80113
:102860000E94150BD82E682FC8010E945608B80187
:102870008D2D0E94EB0AA9C1C8010E940C08D82E18
:10288000F6CF022F0F70207F11F00295007F3323C7
:10289000C9F0002369F080E2810F883010F0111137
:1028A0000BC080912003082B009320030E94C30DCE
:1028B000812F0E94781119C080916A02082B009321
:1028C0006A02F4CF812F0E943D11002371F0009520
:1028D00080E2810F883010F0111115C08091200323
:1028E0000823009320030E94C30DE8E0CE1AD1080C
:1028F000F4E0CF16D10410F40E94320560E0C70165
:102900000E94820B3CCE80916A02082300936A02E7
:10291000EACF822F8F70207F203211F08295807F46
:10292000113061F4332329F04630F8F60E94331158
:10293000DCCF4530D0F60E942811D7CF332341F0A9
:102940004423A1F350FFB4CF5F70F7015583EECF5E
:10295000442389F3193349F4FFEF27EE43E0F150A4
:1029600020404040E1F700C00000812F0E943D114F
:10297000BCCF822F86958695837069F0813009F0EF
:10298000B4CF812F922F9370311102C090E080E07C
:102990000E940605AACF812F922F9370311102C099
:1029A00090E080E00E941C05A0CF822F837089F503
:1029B00031119BCF312F329536953770330F330F4E
:1029C000812F8F70032E01C0880F0A94EAF7412FE0
:1029D000407114FF07C04FE050E001C0440F3A952A
:1029E000EAF74095269526952370223069F050F439
:1029F0003091D801213029F0842B83230E94210EAD
:102A000074CF832B842BFACF482B8091D801842755
:102A1000F5CF8695332311F0822F8170882309F436
:102A200064CF312F329536953770330F330F812FA6
:102A30008F70032E01C0880F0A94EAF7412F40716E
:102A400014FF07C04FE050E001C0440F3A95EAF789
:102A50004095269526952370223069F050F43091E8
:102A60003703213029F0842B83230E94F70D3DCFBB
:102A7000832B842BFACF482B809137038427F5CF03
:102A8000022F0F70332329F0802F0E94150E812F03
:102A90004DCF812F0E942811802F0E94080E25CF34
:102AA000113F61F148F4103FA9F0332399F141112E
:102AB000FFCE822F8F7126C0123F39F1133FA9F745
:102AC00080E0332391F22F7181E001C0880F2A95B5
:102AD000EAF7CBCF332371F0453008F006CF2F71E2
:102AE00081E090E001C0880F2A95EAF790913703C2
:102AF0008927BBCF463008F0F8CEF1CF822F8F71F7
:102B0000332359F20E94150EF0CE822F8F7133239A
:102B1000C9F3C3CF442359F0193309F026CF5FEF2F
:102B200087EE93E0515080409040E1F71CCF822F18
:102B30008F71B3CF00312FE5120709F4D1CD0131E8
:102B40004FE5140709F4D6CD0E3D2CE5120709F028
:102B500069CE0E94580D0E94FB1061E0C7010E94DF
:102B6000820B8C01F701928191110DCD00315FE54F
:102B7000150709F4B9CD01318FE5180709F4BCCD6B
:102B80008091200382720A3C4CE5140709F43DCE83
:102B900008F0CACD053CECE51E0709F422CE08F08A
:102BA000ADCD033C2CE5120709F40FCE08F014CE8E
:102BB000023C5CE5150709F4E1CDF7012681378178
:102BC0002115310509F447CEC9010E946E06182F60
:102BD000292FF70132815581452F42954F709295EB
:102BE0009F70C92ED12C9C3008F07FCEF601EF5F8C
:102BF000F94D0C942725CF93DF9380918B01807F33
:102C000009F049C080918801882309F444C080916B
:102C1000CF01D0918E016091860170918701A091C2
:102C20008901B0918A01C62FC723D817A1F190E07E
:102C3000109711F0CF3F19F401968770F6CF9C01E1
:102C400043E0220F331F4A95E1F7F901E157FE4FA8
:102C500041814713F1CF40814613EECF42814111AC
:102C6000EBCF438154814A1B5B0B483C510520F755
:102C700080918B018F70806180938B01F901EC56FC
:102C8000FE4F80818F708061808386E891E00E9492
:102C9000AD120E94DB07DF91CF910895A5E1B0E06E
:102CA000E4E5F6E10C943C258C0185E0F801DE01B9
:102CB000519601900D928A95E1F7F801E28066E85D
:102CC000A62E61E0B62E6091890170918A0161158E
:102CD000710509F45CC19091860140918701892FAB
:102CE00084238F3F09F453C120813181C380D48074
:102CF000F0908801F601E61BF70BFF2009F411C1E3
:102D000080918B01582F507FE83CF10508F0C4C03A
:102D1000511175C0FE2C43131EC092131CC060914C
:102D20008C0170918D01F8014681578164177507F8
:102D300091F4E11010C08F70806180938B01C50108
:102D40000E94AD1280918B01F80185838F2D6596CD
:102D5000EAE00C945825C114D10429F0822F832372
:102D60008F3F09F02FC180E0F82FF170DF2E80FF38
:102D70003CC08091CF0140918E01841315C0298BF6
:102D80003A8B89899A890E94440B292F22952F70AA
:102D90002230F8F0243020F59F70F9F0F801958189
:102DA000907FD9F4D12C1FC090E0FC0153E0EE0FCE
:102DB000FF1F5A95E1F7E157FE4F5181351306C0C9
:102DC0005081251303C05281E5120FC00196877010
:102DD000D4CF9F7011F0882329F3805E883010F3E0
:102DE000C8010E94AD12FD2CB1CFEE2009F4AECF88
:102DF00080918B01816080938B01F12CA7CF4313CD
:102E00001BC0921319C040918C0150918D01F801A3
:102E1000268137814217530779F4E1100DC085836D
:102E2000C8010E94AD1288E0F801A6E8B1E0019067
:102E30000D928A95E1F78ACFC8010E94510B882331
:102E400039F1EE2029F180918B018032A0F02091A0
:102E50008601309187013A8729871B86DD86CC86DB
:102E60008E8780918C0190918D01988B8F87CE01F8
:102E700009960E94AD1288E0F801A6E8B1E0019041
:102E80000D928A95E1F70E94FB15FF24F3945ECF23
:102E9000C8010E94AD12F9CF51110AC086E891E035
:102EA0000E94AD1288E0F50111928A95E9F7A5CF4D
:102EB000431318C0921316C040918C0150918D019C
:102EC000F801268137814217530761F4E1100AC0E7
:102ED0008583C8010E94AD1288E0F50111928A95A0
:102EE000E9F734CFC8010E94510B882389F2EE2004
:102EF00079F280918B01803208F4BDCF2091860158
:102F0000309187013A8329831B82DD82CC828E83B4
:102F100080918C0190918D0198878F83CE010196CD
:102F2000A8CFE83CF105C0F6FE2CEE2009F4B0CFA6
:102F300043131FC092131DC020918C0130918D014D
:102F4000F801868197812817390799F490918B01B0
:102F500090FD69CF907F09F466CF80918B018583C6
:102F6000903F09F45DCF982F907F905F8F70892BF1
:102F700056CFC8010E94510B81117DCF80918B01EA
:102F8000816080938B01C8010E94AD12DFCEEE20DC
:102F900009F47ECFC8010E94510BF82E882309F452
:102FA00077CF88E0F801A6E8B1E001900D928A950C
:102FB000E1F780918601909187010E94440B0E9465
:102FC000FB15C4CE81E08E25CFCEA0E1B0E0EBEEC4
:102FD000F7E10C94442529873A874B875C876D87F6
:102FE0007E878F87988BCE0109960E944E1681119D
:102FF00012C088E0FE013996DE01119601900D9213
:103000008A95E1F78C859D85892B29F089859A859C
:1030100089238F3F81F58091CF0190918E01891393
:1030200017C06096E2E00C94602593E0AA0FBB1FE6
:103030009A95E1F7A157BE4F98E0FE0131960190B5
:103040000D929A95E1F780938E010E94DB07E3CF02
:10305000B8E08B9FC001112481579E4F0E944E16ED
:103060008823F9F28091CF0190E00196877099272B
:103070008093CF01D0CFA0918E01B0E0CD01019619
:10308000877099272091CF012817190671F61092A1
:1030900020030E94260E10928E011092CF0188E02C
:1030A000E6E8F1E0DF011D928A95E9F7B4CF0F93CE
:1030B0001F93CF93DF9380916C02E0916B02CCE081
:1030C00081111AC0DF91CF911F910F910895D1E026
:1030D000DE0FD0936B020E2F10E0EC9FF001112455
:1030E000E359FD4F83819481892B29F0808191815F
:1030F00089238F3F51F4ED2F80916C02E81738F34C
:1031000010926C0210926B02DDCFC09FD001C19F64
:10311000B00D1124A359BD4F16968D919C91179710
:10312000892B29F418968D919C91019651F4208158
:1031300031814281538164817581868197810E94AA
:10314000E517C09FF001C19FF00D1124E359FD4F19
:103150001482138210926A02CECF10921003109242
:103160000F0310920D0180910E0380930D030E94B6
:103170006D050E9457180895B0E0A0E0E2ECF8E178
:103180000C943525C0910D0397E0892E01E010E0E5
:103190002CE0322E3EEF932E4424439480910E0374
:1031A0008C1309C00E9457180E946D05CDB7DEB779
:1031B000E1E10C945125D0E0FE01EE0FFF1FEB5F23
:1031C000FC4F80819181889ED001899EB00D112491
:1031D000A353BD4F14962C911497211158C05090B1
:1031E0006C02EDE6F2E030E020E0712C5D01251587
:1031F00008F04BC0E284F384D501CD90DC906FEFF2
:103200007FEF612C462D50E0DA01AA0FBB1FAC0DF9
:10321000BD1D0D90BC91A02D109731F0EA16FB0654
:1032200009F4BA016394EECF6F3F7607A9F1D80194
:1032300002C0AA0FBB1F6A95E2F77A2AB801062CD2
:1032400002C0660F771F0A94E2F7AB0141505109A3
:1032500074161506F9F4329EF001339EF00D112418
:10326000E359FD4F889ED001899EB00D1124A353D0
:10327000BD4F12962D913C911397378326839082F0
:1032800091829187808715964C920E943F052196E6
:10329000C37084CF148213822F5F3F4F3C96A7CF19
:1032A000A9E1B0E0E6E5F9E10C943425498B5A8BAD
:1032B0006B8B7C8B8D8B611110926A021D861E8632
:1032C0001F86188A85E0FE017196DE01199601902D
:1032D0000D928A95E1F78C859D85892B31F0898542
:1032E0009A8589238F3F09F0C0C129853A854B858E
:1032F0005C856D857E858F8598890E94E517C3C0A2
:1033000028EFC2162CE5D20629F4882379F00E9412
:10331000AD18EBCF39EFC3163CE5D30639F488235B
:1033200029F080910D018111F2CFAFC10DEC12E0B7
:10333000E12CB12CA12C88248394912C2EEF522EB9
:1033400044244394F8014081518166246A94762C88
:1033500020E0822F90E0FC01EE0FFF1FE40FF51F2D
:10336000608171816115710531F0C616D70609F4C7
:103370003C012F5FEECFF12CFFEF6F167F0609F4B3
:1033800044C0F8014481F0900D018F2D411180E07F
:10339000F82FF170FF2EF801258086819B859923F7
:1033A00009F4F2C0FF2009F4EFC0211014C0A401F9
:1033B000062C01C0440F0A94EAF7842B868380917F
:1033C000680290916902C29730F462E370E07093F2
:1033D000690260936802C40102C0880F991F2A9590
:1033E000E2F70197F80126812817190671F48091F8
:1033F0000F0390911003009709F449C00E94DF0465
:10340000C39708F444C0F8014482EF28FFEFAF1AD5
:10341000BF0A095F1F4F28E0A216B10409F092CF3E
:103420008B85882309F40CC1EE2009F409C10E94A0
:10343000FA049093100380930F0380916C028830FC
:1034400010F591E0980F90936C0298E0FE01399688
:10345000DE01119601900D929A95E1F73CE0839F71
:10346000C001112483599D4F28E0FE013196DC01F3
:1034700001900D922A95E1F72FEF3FEFFC01318784
:103480002087D386C2866996E2E10C94502580910C
:103490000D0350910E03982FF0E0E0E0851314C067
:1034A00090930D030E171F0709F4AFCF90E0FC01B6
:1034B000EE0FFF1FEB5FFC4FB182A082019683707D
:1034C000992780930E03A1CF282E312CF101EE0F06
:1034D000FF1FEB5FFC4F20813181F7E0F29FD001AD
:1034E000F39FB00D1124A353BD4F2D913C91119723
:1034F000398F288F40E020E030E0E32FF0E0EE0F3E
:10350000FF1F688D798DE60FF71F60807180611451
:103510007104E1F0F8010190F081E02DFF8BEE8B5A
:1035200020E005C06616770609F44F2D2F5FE22FC5
:10353000F0E0EE0FFF1F6E897F89E60FF71F6081B5
:1035400071816115710571F73F5FD7CF4423C9F0D1
:10355000F801231708F0FD0144820E171F0721F41C
:1035600090930D03F42E51CF981305C0AE17BF07EB
:1035700011F49F5F937091012F5F3F4F822F8370F3
:103580008DCFF0E0E0E0F7CF90E0211020C0B40153
:1035900002C0660F771F2A95E2F79B01215031097F
:1035A0008217930731F4442309F448C0C5010E94EF
:1035B0003F05C401062C01C0880F0A94EAF7982F32
:1035C0009095F801868189238683F22C1ECF9C0179
:1035D000062C02C0359527950A94E2F7A90141709F
:1035E0005527BC016150710986239723892B11F55A
:1035F000452B01F1F80182819381892BC1F01B8257
:103600001C821D821E8259825A820E94FA048160A5
:10361000582F9D838C83F801828193818F839887B3
:1036200029813A814B816D817E810E94E517F801E5
:103630001582BFCFF22FF1702F2EBBCF2F2CB9CF19
:1036400090910D0380910E03981731F00E94BC18E1
:10365000EE2009F44ACE17CF0E945718109210039B
:1036600010920F030E946D05F3CF61E0CE01099621
:103670000E94820B6C018B85F7EFCF16FCE5DF060D
:1036800009F03ECE882309F451CE81E080930D01EC
:103690002CCEA5E0B0E0EFE4FBE10C9442258C01D8
:1036A0009093650280936402011580E21807C0F4CC
:1036B000802F0E943D11C8010E9472089801205E6F
:1036C00031092830310518F00115110531F40E9437
:1036D00028112596E4E00C945E250E941311F9CF81
:1036E00080EF89838A831B820E94FA048160782F8D
:1036F0009D838C8349815A816B818D810E945019F1
:10370000E8CFA5E0B0E0E7E8FBE10C9442258C01AE
:103710009093650280936402011580E21807C0F45B
:10372000C8010E9472089801205E310928303105D5
:1037300018F00115110549F40E943311802F0E94E1
:1037400078112596E4E00C945E250E941E11F6CFB8
:1037500080EF89838A8381E08B830E94FA048160F1
:10376000782F9D838C8349815A816B818D810E9442
:103770005019E7CFA2E0B0E0E0ECFBE10C94442567
:10378000E8E4F1E041E030E021912F3F09F04FC043
:10379000440F81E0EB34F807B9F73983EBE4F1E04B
:1037A0006EE471E041E030E021912F3F09F053C019
:1037B000440F6E177F07C1F73A8342E050E0BE0125
:1037C0006F5F7F4F8CED91E00E948125892B09F47A
:1037D00056C089819A819093DD018093DC0181E05C
:1037E0008093DB010E94FA049093DA018093D9015F
:1037F0008091D9019091DA010E94DF04059708F4C5
:1038000042C042E050E06CED71E081EF91E00E9437
:103810008125892BE9F18091DC019091DD01909364
:10382000F2018093F10181E01092DB012DC0A22F03
:10383000A295AF70B0E090968C9190E02F7002C08E
:10384000959587952A95E2F780FD03C0842F382B44
:103850009FCF80E0FCCFA22FA295AF70B0E09096F2
:103860008C9190E02F7002C0959587952A95E2F78C
:1038700080FD03C0842F382B9BCF80E0FCCF80914C
:10388000DB018111B5CF80E02296E2E00C94602547
:1038900080E0CACF90E080E00E94B325883E9E4F32
:1038A00019F40E94B20B089580E008951F920F92C0
:1038B0000FB60F9211242F933F934F935F936F9303
:1038C0007F938F939F93AF93BF93CF93DF93EF93A8
:1038D000FF93D091E900DF708091EC00C82FC17098
:1038E00080FDC0E81092E9008091F000877F80930E
:1038F000F00078940E94300E1092E9008091F00060
:1039000088608093F000CD2BCF70C093E900FF91C9
:10391000EF91DF91CF91BF91AF919F918F917F9167
:103920006F915F914F913F912F910F900FBE0F902C
:103930001F9018951F920F920FB60F9211242F937C
:103940003F934F935F936F937F938F939F93AF9327
:10395000BF93EF93FF938091E10082FF09C08091B4
:10396000E20082FF05C08091E1008B7F8093E1003F
:103970008091DA0080FF24C08091D80080FF20C0B1
:103980008091DA008E7F8093DA008091D90080FFE9
:103990009DC080E189BD82E189BD09B400FEFDCFF3
:1039A00081E08093360380911F03811109C00E943A
:1039B0001C030E940F048091E20084608093E20067
:1039C0008091E10080FF17C08091E20080FF13C06A
:1039D0008091E2008E7F8093E2008091E20080611E
:1039E0008093E2008091D80080628093D80019BC57
:1039F00085E0809336038091E10084FF2BC08091A5
:103A0000E20084FF27C080E189BD82E189BD89B5DC
:103A1000982F917080FFFBCF8091D8008F7D80938D
:103A2000D8008091E1008F7E8093E1008091E200D8
:103A30008F7E8093E2008091E20081608093E200BB
:103A400080912D03882309F447C084E080933603D6
:103A5000809136038091E10083FF27C08091E200CE
:103A600083FF23C08091E100877F8093E10082E0A3
:103A70008093360310922D038091E1008E7F809316
:103A8000E1008091E2008E7F8093E2008091E2006D
:103A900080618093E20042E060E080E00E94DD030C
:103AA0008091F00088608093F000FF91EF91BF91CA
:103AB000AF919F918F917F916F915F914F913F91C6
:103AC0002F910F900FBE0F901F90189519BC109258
:103AD000360310921F0374CF8091E30087FD93E0BB
:103AE00090933603B5CF78941F921FB61F9211247E
:103AF0008F939F93AF93BF93809118039091190375
:103B0000A0911A03B0911B030196A11DB11D8093D2
:103B1000180390931903A0931A03B0931B03BF914A
:103B2000AF919F918F911F901FBE1F9018951F926C
:103B30001FB61F9211248F939F93AF93BF938091D1
:103B40001703811113C08091180390911903A0915C
:103B50001A03B0911B034196A11DB11D8093180358
:103B600090931903A0931A03B0931B03BF91AF91D5
:103B70009F918F911F901FBE1F901895CDB7DEB7F4
:103B8000C854D1090FB6F894DEBF0FBECDBF85B7BC
:103B9000806885BF85B7806885BF84B7877F84BF0D
:103BA0000FB6F894A89580916000886180936000BA
:103BB000109260000FBE80E890E00FB6F8948093FA
:103BC0006100909361000FBE89E296E090937701C7
:103BD000809376010E94CB0B0E941C030E940F046D
:103BE0008091E20084608093E200789480913603B3
:103BF0008823A1F01091E9001F709091EC00892FAB
:103C0000817090FD80E8182B1092E9008091E80007
:103C100083FD0E94300E1F701093E90082E084BD86
:103C200093E095BD9AEF97BD80936E000E94B20B12
:103C3000811102C00E94790A28E431E061E070E05D
:103C4000D90150E040E08D918F3F91F0E82FE2954F
:103C5000EF70F0E0F1A08F708B0101C0000F8A952A
:103C6000EAF7902F90959F2191A382A1802B82A3A8
:103C70004F5F5F4F4330510531F72D5F3F4F81E07C
:103C80002E343807E9F61092F2011092F1011092E9
:103C9000DD011092DC010E944A1C811102C00E94C9
:103CA000580D82E090E00E94A5258093E50184E014
:103CB00090E00E94A525182F82E290E00E94A525A1
:103CC000982F812F9093DF018093DE010E94BA1B11
:103CD000EFE3FCE93197F1F700C000000E94BA1B46
:103CE0008091F10180FF08C06FEF7FEF90E080E0EE
:103CF0000E94D7250E94CE0483E090E00E94A52573
:103D00000E94210E8091E001811133C00E944A1C63
:103D1000811104C00E94580D0E94470D88E090E078
:103D20000E94AD2560930D0270930E0280930F02E6
:103D3000909310026E7F71F40E94470D88E090E02E
:103D40000E94AD2560930D0270930E0280930F02C6
:103D5000909310020E94840510920C0280910D0233
:103D600080FF04C060E086950E94E70C81E08093AC
:103D7000E00181E08093EA012198299A87988F9A3F
:103D80008FE891E00197F1F700C000004091EA014F
:103D90006BEE71E0FB018E2F861B841708F4B8C010
:103DA00080E091E0909314038093130348E1242E64
:103DB000312C8091360311E000E132E1F32E8530A1
:103DC00009F41CC10E94BA1B9091F1018091E60197
:103DD000981331C19091F2018091E70198132BC1A2
:103DE0000E94FA048C018091E3019091E40108178C
:103DF000190701F18FEF8FAF21968FAF2197229690
:103E00001FAE22970E94FA048160782F24969FAFFC
:103E10008EAF24974FAD21965FAD219722966FAD5F
:103E2000229724968FAD24970E9450191093E40195
:103E30000093E30180910D01882301F180910F032C
:103E4000909110030097D1F00E94DF042091680246
:103E5000309169022817390788F490910D038091F9
:103E60000E03981709F434C10E94BC18109269021D
:103E7000109268021092100310920F0380910C02AE
:103E80008823D1F180910B02E0910D02E695E81BA9
:103E9000E0930702823009F024C1F0E0ED5BFE4FB1
:103EA000E4910E2F10E082E7E82E89E0F82E809151
:103EB0000802882361F0109208020E94FA0490938D
:103EC00006028093050210920A02109209020E94D3
:103ED000FA04E0910502F09106028E1B9F0B8F3FC2
:103EE0009F4750F40E0F1F1F109306020093050208
:103EF00085E092E0F7010995B12CA12C64E0E62E53
:103F0000F12C7DEF972E88248394ECEF7E2E9AC1BE
:103F100083B1869581702FB130E0220F232F221FAD
:103F2000330B90E0232B09F092E0892B819333CF60
:103F300080913603843009F43EC010920C028091C7
:103F4000E201811116C01093E20180910D02982FB9
:103F500091709093E1018E7F80930D029FEFE0E7D7
:103F6000F2E09150E040F040E1F700C000000E9414
:103F700004091092170320E40FB6F894A895209234
:103F800060000FBE2093600083B7817F846083BF91
:103F900083B7816083BF7894889583B78E7F83BF12
:103FA0000FB6F894A89580916000886180936000B6
:103FB000109260000FBE80912C038823F9F00E94BC
:103FC000BA1B8091F1019091F201892BB9F009BDE2
:103FD000F9BC09B400FEFDCF8091D8008F7D80939D
:103FE000D8008091E00082608093E0008091E00042
:103FF00081FDFCCF109220030E94260E8091360393
:10400000853009F495CF109220030E94260E0E945D
:1040100032051092E2018091E101882349F08091FC
:104020000D02816080930D0260E086950E94E70C8E
:104030000E940E0CC7CE91EFC92E91E0D92E26EE2C
:10404000A22E21E0B22EE12CF60111916F01F501B3
:1040500081915F01811799F1982E912600E0FF244C
:10406000F394892D8F2121F125960FAF2597269660
:10407000EFAE269791E0812F8F2109F490E02796EB
:104080009FAF27970E94FA048160782F29969FAFEF
:104090008EAF299725964FAD259726965FAD26972B
:1040A00027966FAD279729968FAD29970E945019B3
:1040B0000F5FFF0C0330A9F6F50131971083F1E093
:1040C000EF1203C00E94EE04B5CEEE24E394BCCF01
:1040D0000E9457181092100310920F030E946D0552
:1040E000CDCE00ED17E0A9ECEA2EA4E0FA2E863042
:1040F00009F0DDCEF0E0E05CFE4FE4910E2F10E021
:10410000B2E6EB2EB9E0FB2ED2CECB2CD12CE3B114
:10411000E695E1708FB190E0880F892F881F990B89
:10412000892B09F0DCC080E08E2BD601A551BE4F53
:10413000EC919E2F9370891709F483C0EE0FEE0F58
:10414000E82BEC93EF70F0E0E25BFE4F8601075145
:104150001E4F8081F8019081890F808320E0843098
:104160008CF1F601E851FE4F80818F5F80830E94C1
:10417000FA04BDAA7EAA8FAA8160782F99AF88AF72
:104180004B2D5CEF61E089AD0E9450198FE39FE1F8
:104190000197F1F700C000000E94FA04BAAE7BAEAE
:1041A0001CAE8160782F9EAF8DAF4B2D5CEF60E031
:1041B0008EAD0E945019EFE3FFE13197F1F700C097
:1041C000000021E0F80180818D3F8CF5F601E85177
:1041D000FE4F8081815080830E94FA04BBA69CA67A
:1041E0008DA68160782F9FA78EA74B2D5DEF61E094
:1041F0008FA50E9450198FE39FE10197F1F700C04E
:1042000000000E94FA04B8AA99AA1AAA8160782F1D
:104210009CAB8BAB4B2D5DEF60E08CA90E945019DD
:10422000EFE3FFE13197F1F700C0000021E0F80172
:104230008081082E000C990BB7010E941325808302
:10424000A22AB3948091EA01B81608F45ECFA110B7
:104250000E94EE040E9432059091EC01891721F032
:104260008093EC010E94EE0480913603843009F0C3
:10427000A0CD83E08093E9008091E80082FF99CD92
:104280008091E80090E085FF05C00E943B038823F1
:1042900041F191E08091E8008B778093E8009923C9
:1042A00009F487CD0091660210916702898101159A
:1042B0001105A1F18E3F09F0C5C08A81833020F03D
:1042C0008550833008F0BEC0EA81EE3008F0BAC0F5
:1042D000F0E0E35FF94DCE0101960C94272582E0D2
:1042E00023CF00E210E09E012F5F3F4F79018091C4
:1042F000E80085FD0AC08091E8008B778093E80094
:104300000E943B03882399F3C4CF8091F100F70109
:1043100081937F010150110951F7BBCF8B3009F414
:10432000FFC198F5853009F4AEC0D0F4823009F4AD
:1043300078C030F4813009F470C08FEF898382C077
:10434000833009F491C08430C1F74C816B818A813C
:104350000E94BC0A9827892798279E838D8372C064
:10436000873009F49EC008F499C0883009F4D9C098
:10437000893019F760910D0270910E0280910F0241
:10438000909110020E94240C5DC0803109F41BC181
:10439000C0F58D3009F4E8C008F4E3C08E3009F4AC
:1043A000E7C08F3051F68091620290916302892BB1
:1043B00009F448C08C81E82EF12C2DE1E216F104BD
:1043C00008F040C0CA80DB80DC24CD24DC248E01D0
:1043D0000F5F1F4FE00EF11EC60189549F4F0E154F
:1043E0001F0581F139E4C31633E0D30620F4F80148
:1043F00064810E94B9250F5F1F4FFFEFCF1ADF0ABC
:10440000EBCF823109F4E4C008F4E0C0833109F451
:1044100008C18E3F09F091CF57CF1A8289E08B8374
:1044200011C08A81823009F4E2C2833081F0813088
:1044300009F083CF0E94EE040E942D256B837C83BC
:104440008D839E83CE0101960E949603B2CC80910B
:10445000620290916302892BA9F38091F1018B8311
:104460008091F2018C83EECF8A81823009F065CF92
:104470006B817C818D819E810E942D2586E290E05A
:104480000E94B925DFCF2D813E8132272327322795
:104490004C816B818A810E94C109D4CF0E94000A9D
:1044A000D1CF8A818138B9F058F4803859F620E0AC
:1044B0004B8160910F0280910E020E94370CC2CF97
:1044C000823859F1833809F0BDCF20E040911002C5
:1044D0006C818B81F2CF60E08B810E94E70C9B8125
:1044E00080910D02911111C08E7F80930D02109268
:1044F0000C02FFEF20E732E0F15020403040E1F7BE
:1045000000C000000E9404099DCF816080930D02CD
:1045100060E086950E94E70C95CF8B818093110215
:1045200091CF8A81813891F030F4803809F08ACFB8
:104530008091100274CF823889F0833809F082CFDD
:1045400080910E028B8380910F028CCF80910D029F
:1045500080FF02C0869563CF80E061CF8091110219
:104560005ECF80E18A836ECF83E08A8389E457CF70
:104570008C81E82EF12C8DE1E816F10408F062CF71
:10458000CA80DB80DC24CD24DC248E010F5F1F4F2A
:10459000E00EF11EC60189549F4F0E151F0509F448
:1045A00051CFE9E4CE16E3E0DE0650F40E94A525E3
:1045B000F8018483FFEFCF1ADF0A0F5F1F4FEACFA6
:1045C000F8011482F7CF0E9486093CCF84E0CACF5D
:1045D0008C81E82EF12C2DE1E216F10408F032CFA7
:1045E000CA80DB80DC24CD24DC248E010F5F1F4FCA
:1045F000E00EF11EC60187960E151F0509F422CFA5
:1046000030E3C316D10450F40E94A525F801848339
:10461000FFEFCF1ADF0A0F5F1F4FECCFF8011482B4
:10462000F7CFEC80F12C2DE1E216F10408F00ACF6F
:104630000A811B811027012710270033110508F07C
:1046400001CF80E390E0801B910B8E159F0508F44D
:10465000F9CE480137E2830E911C8091620290915D
:10466000630238016E0C7F1C892BB9F5680181E06B
:10467000C822DD2400FF0DC0C80186960E94A52532
:104680009D8189279827892781159C4511F48FEFF3
:104690008D83570160FE17C0F1E0AF1AB10855E0F5
:1046A000452E512C4C0E5D1E4A0C5B1CC4018E0D18
:1046B0009F1D0E94A525F201908181159C4519F44A
:1046C0008FEFF2018083E1E0F0E0EC0FFD1FEC0DD5
:1046D000FD1D2FEFCA14DB0428F09E012F5F3F4F12
:1046E000790118C09481858181159C4511F424833A
:1046F000258382E0C80ED11C3296ECCF0033110521
:1047000020F4F70164810E94B925FFEFEF1AFF0A38
:104710000F5F1F4FC80187960615170579F792CED0
:104720008091620290916302892B09F48BCECE01B5
:1047300001960E9496033FEF81EE94E03150804055
:104740009040E1F700C00000D5CA28E0EFE0F1E0BA
:10475000DE01919601900D922A95E1F720E2FC018D
:1047600011922A95E9F785E0898388E0FE01B196E8
:10477000DE01159601900D928A95E1F763CE80EEE9
:1047800089831A821B821C825DCE0C81602F70E0AF
:10479000762F66270B81060F172F111D012E000C97
:1047A000220B330B45E0000F111F221F331F4A95C8
:1047B000D1F7B901A801405E5F4F6F4F7F4F40179F
:1047C00051076207730708F43DCE003E110521052D
:1047D000310508F037CE413E51056105710520F0E5
:1047E00040EE50E060E070E0401B510BB801695BA7
:1047F0007E4F0E946B2526CE1B810C8140E0602FEE
:10480000812F0E94890A9827892798279A8389836C
:1048100041E0602F812F0E94890A982789279827D5
:104820009C838B830FCE2E813F8132272327322713
:104830002115FCE53F0741F48091620290916302EB
:10484000892B11F430E020E041E08D81811101C01D
:1048500040E06C818B810E949609F4CD4AE150E0E2
:104860006FEF70E0CE0107960E948E258091620264
:1048700089830A831B821C8281E08D838E83E2CD33
:1048800081E090E0909367028093660282E390E07B
:104890009093F0018093EF010E94FA049093EE014F
:1048A0008093ED01CFCD012B61F11091F1010091C9
:1048B000F2018091ED019091EE010E94DF048536B6
:1048C000910540F101FF26C010FF24C00E94FA04A8
:1048D0009093EE018093ED018091EF019091F001B2
:1048E00001979093F0018093EF01892B51F410927E
:1048F00067021092660281E090E0909363028093D9
:104900006202809162028983809166028A8380912B
:10491000EF0185CD82E390E09093F0018093EF0169
:10492000F0CF10926302109262028CCD40E250E010
:104930006FEF70E00E948E2585CD2B81233059F0DA
:10494000243039F121117ECD20E2FC0111922A950B
:10495000E9F788E007CE6C812AE0CE018196FC0160
:10496000322F11923A95E9F7683088F4629FB001CE
:10497000112469597F4F4AE050E00E94952580E05C
:1049800089838AE0FE01B196DE011296F3CE8FEFA5
:10499000F7CF6C818AE0FE013596DE019196019099
:1049A0000D928A95E1F789A59AA58115ECE59E07F8
:1049B00041F42091620230916302232B11F490E0C4
:1049C00080E09AA789A78FEF683068F4FAE06F9FBC
:1049D000B001112469597F4F4AE050E0CE01819621
:1049E0000E94DD2580E089830E94CB0B2BCD86E2DF
:1049F00090E00E94A5251B821C821D823FCFAA1B2E
:104A0000BB1B51E107C0AA1FBB1FA617B70710F0B9
:104A1000A61BB70B881F991F5A95A9F780959095EB
:104A2000BC01CD01089597FB072E16F4009407D022
:104A300077FD09D00E94FF2407FC05D03EF4909535
:104A400081959F4F0895709561957F4F0895EE0F62
:104A5000FF1F0590F491E02D099469279627692797
:104A600078278727782708952F923F924F925F9259
:104A70006F927F928F929F92AF92BF92CF92DF926E
:104A8000EF92FF920F931F93CF93DF93CDB7DEB7D3
:104A9000CA1BDB0B0FB6F894DEBF0FBECDBF099467
:104AA0002A88398848885F846E847D848C849B84BE
:104AB000AA84B984C884DF80EE80FD800C811B81CC
:104AC000AA81B981CE0FD11D0FB6F894DEBF0FBEFB
:104AD000CDBFED010895FB01DC0102C005900D92F0
:104AE00041505040D8F70895FC014150504030F0FB
:104AF00001900616D1F73197CF010895882799279D
:104B00000895FB01DC0104C08D910190801921F40E
:104B100041505040C8F7881B990B0895DC0101C033
:104B20006D9341505040E0F70895DC01CB01FC014A
:104B3000F999FECF06C0F2BDE1BDF89A319600B4F6
:104B40000D9241505040B8F70895F999FECF92BDAB
:104B500081BDF89A992780B50895A6E1B0E044E0B8
:104B600050E00C949725A8E1B0E042E050E00C94AE
:104B70009725262FF999FECF92BD81BDF89A01970E
:104B800000B4021639F01FBA20BD0FB6F894FA9A95
:104B9000F99A0FBE08950396272F0E94BA250E9406
:104BA000B925252F0E94BA25242F0C94BA250196E9
:104BB000272F0E94BA250C94B925DC01CB0103C034
:104BC0002D910E94E82541505040D0F70895262F9E
:104BD000F999FECF1FBA92BD81BD20BD0FB6F894E2
:104BE000FA9AF99A0FBE01960895F894FFCF130F21
:104BF0003B0FE9103B0FE9106E0F8F0FE910981073
:104C0000A5104114411489148914B914751475142C
:104C10007514D514401550155015A523BF23C52371
:104C2000FC2313242E24402453249124962422224E
:064C3000222222229D2435
:104C3600CB04D708CA04D208CD08C8040101016F05
:104C4600D28E5224C7C341818283E200E900EA0082
:104C5600B500B600B700CD008301CC008A019201F1
:104C660094012102230224022502260227022A0297
:104C7600B300B4006F007000C697FF3534F400FF30
:104C86000100010000FFFF0000010001FF0000011C
:104C9600020202020606064022320001DE00AC00D5
:064CA60079049204B2043F
:00000001FF
